{"abi":[{"type":"function","name":"cancelExpiredSale","inputs":[],"outputs":[],"stateMutability":"nonpayable"},{"type":"function","name":"cancelSale","inputs":[],"outputs":[],"stateMutability":"nonpayable"},{"type":"function","name":"claimBackCapitalIfCanceled","inputs":[],"outputs":[],"stateMutability":"nonpayable"},{"type":"function","name":"claimExcessCapital","inputs":[{"name":"amount","type":"uint256","internalType":"uint256"},{"name":"proof","type":"bytes32[]","internalType":"bytes32[]"}],"outputs":[],"stateMutability":"nonpayable"},{"type":"function","name":"claimTokenAllocation","inputs":[{"name":"amount","type":"uint256","internalType":"uint256"},{"name":"proof","type":"bytes32[]","internalType":"bytes32[]"}],"outputs":[],"stateMutability":"nonpayable"},{"type":"function","name":"decryptSealedBid","inputs":[{"name":"encryptedAmountOut","type":"uint256","internalType":"uint256"},{"name":"salt","type":"uint256","internalType":"uint256"}],"outputs":[{"name":"","type":"uint256","internalType":"uint256"}],"stateMutability":"view"},{"type":"function","name":"emergencyWithdraw","inputs":[{"name":"receiver","type":"address","internalType":"address"},{"name":"token","type":"address","internalType":"address"},{"name":"amount","type":"uint256","internalType":"uint256"}],"outputs":[],"stateMutability":"nonpayable"},{"type":"function","name":"initialize","inputs":[{"name":"sealedBidAuctionPeriodAndFeeConfig","type":"tuple","internalType":"struct ILegionSealedBidAuction.SealedBidAuctionPeriodAndFeeConfig","components":[{"name":"salePeriodSeconds","type":"uint256","internalType":"uint256"},{"name":"refundPeriodSeconds","type":"uint256","internalType":"uint256"},{"name":"lockupPeriodSeconds","type":"uint256","internalType":"uint256"},{"name":"vestingDurationSeconds","type":"uint256","internalType":"uint256"},{"name":"vestingCliffDurationSeconds","type":"uint256","internalType":"uint256"},{"name":"legionFeeOnCapitalRaisedBps","type":"uint256","internalType":"uint256"},{"name":"legionFeeOnTokensSoldBps","type":"uint256","internalType":"uint256"},{"name":"minimumPledgeAmount","type":"uint256","internalType":"uint256"},{"name":"publicKey","type":"tuple","internalType":"struct Point","components":[{"name":"x","type":"uint256","internalType":"uint256"},{"name":"y","type":"uint256","internalType":"uint256"}]}]},{"name":"sealedBidAuctionAddressConfig","type":"tuple","internalType":"struct ILegionSealedBidAuction.SealedBidAuctionAddressConfig","components":[{"name":"bidToken","type":"address","internalType":"address"},{"name":"askToken","type":"address","internalType":"address"},{"name":"projectAdmin","type":"address","internalType":"address"},{"name":"legionAdmin","type":"address","internalType":"address"},{"name":"legionSigner","type":"address","internalType":"address"},{"name":"vestingFactory","type":"address","internalType":"address"}]}],"outputs":[],"stateMutability":"nonpayable"},{"type":"function","name":"initializePublishSaleResults","inputs":[],"outputs":[],"stateMutability":"nonpayable"},{"type":"function","name":"investorPositions","inputs":[{"name":"investorAddress","type":"address","internalType":"address"}],"outputs":[{"name":"pledgedCapital","type":"uint256","internalType":"uint256"},{"name":"hasSettled","type":"bool","internalType":"bool"},{"name":"hasClaimedExcess","type":"bool","internalType":"bool"},{"name":"vestingAddress","type":"address","internalType":"address"}],"stateMutability":"view"},{"type":"function","name":"pledgeCapital","inputs":[{"name":"amount","type":"uint256","internalType":"uint256"},{"name":"sealedBid","type":"bytes","internalType":"bytes"},{"name":"signature","type":"bytes","internalType":"bytes"}],"outputs":[],"stateMutability":"nonpayable"},{"type":"function","name":"publishExcessCapitalResults","inputs":[{"name":"merkleRoot","type":"bytes32","internalType":"bytes32"}],"outputs":[],"stateMutability":"nonpayable"},{"type":"function","name":"publishSaleResults","inputs":[{"name":"merkleRoot","type":"bytes32","internalType":"bytes32"},{"name":"tokensAllocated","type":"uint256","internalType":"uint256"},{"name":"capitalRaised","type":"uint256","internalType":"uint256"},{"name":"sealedBidPrivateKey","type":"uint256","internalType":"uint256"}],"outputs":[],"stateMutability":"nonpayable"},{"type":"function","name":"releaseTokens","inputs":[],"outputs":[],"stateMutability":"nonpayable"},{"type":"function","name":"requestRefund","inputs":[],"outputs":[],"stateMutability":"nonpayable"},{"type":"function","name":"saleAddressConfiguration","inputs":[],"outputs":[{"name":"saleAddressConfig","type":"tuple","internalType":"struct ILegionSealedBidAuction.SealedBidAuctionAddressConfig","components":[{"name":"bidToken","type":"address","internalType":"address"},{"name":"askToken","type":"address","internalType":"address"},{"name":"projectAdmin","type":"address","internalType":"address"},{"name":"legionAdmin","type":"address","internalType":"address"},{"name":"legionSigner","type":"address","internalType":"address"},{"name":"vestingFactory","type":"address","internalType":"address"}]}],"stateMutability":"view"},{"type":"function","name":"salePeriodAndFeeConfiguration","inputs":[],"outputs":[{"name":"salePeriodAndFeeConfig","type":"tuple","internalType":"struct ILegionSealedBidAuction.SealedBidAuctionPeriodAndFeeConfig","components":[{"name":"salePeriodSeconds","type":"uint256","internalType":"uint256"},{"name":"refundPeriodSeconds","type":"uint256","internalType":"uint256"},{"name":"lockupPeriodSeconds","type":"uint256","internalType":"uint256"},{"name":"vestingDurationSeconds","type":"uint256","internalType":"uint256"},{"name":"vestingCliffDurationSeconds","type":"uint256","internalType":"uint256"},{"name":"legionFeeOnCapitalRaisedBps","type":"uint256","internalType":"uint256"},{"name":"legionFeeOnTokensSoldBps","type":"uint256","internalType":"uint256"},{"name":"minimumPledgeAmount","type":"uint256","internalType":"uint256"},{"name":"publicKey","type":"tuple","internalType":"struct Point","components":[{"name":"x","type":"uint256","internalType":"uint256"},{"name":"y","type":"uint256","internalType":"uint256"}]}]}],"stateMutability":"view"},{"type":"function","name":"saleStatus","inputs":[],"outputs":[{"name":"sealedBidAuctionStatus","type":"tuple","internalType":"struct ILegionSealedBidAuction.SealedBidAuctionStatus","components":[{"name":"startTime","type":"uint256","internalType":"uint256"},{"name":"endTime","type":"uint256","internalType":"uint256"},{"name":"refundEndTime","type":"uint256","internalType":"uint256"},{"name":"lockupEndTime","type":"uint256","internalType":"uint256"},{"name":"vestingStartTime","type":"uint256","internalType":"uint256"},{"name":"totalCapitalPledged","type":"uint256","internalType":"uint256"},{"name":"totalTokensAllocated","type":"uint256","internalType":"uint256"},{"name":"totalCapitalRaised","type":"uint256","internalType":"uint256"},{"name":"privateKey","type":"uint256","internalType":"uint256"},{"name":"claimTokensMerkleRoot","type":"bytes32","internalType":"bytes32"},{"name":"excessCapitalMerkleRoot","type":"bytes32","internalType":"bytes32"},{"name":"isCanceled","type":"bool","internalType":"bool"},{"name":"tokensSupplied","type":"bool","internalType":"bool"}]}],"stateMutability":"view"},{"type":"function","name":"supplyTokens","inputs":[{"name":"amount","type":"uint256","internalType":"uint256"},{"name":"legionFee","type":"uint256","internalType":"uint256"}],"outputs":[],"stateMutability":"nonpayable"},{"type":"function","name":"withdrawCapital","inputs":[],"outputs":[],"stateMutability":"nonpayable"},{"type":"event","name":"CapitalPledged","inputs":[{"name":"amount","type":"uint256","indexed":false,"internalType":"uint256"},{"name":"encryptedAmountOut","type":"uint256","indexed":false,"internalType":"uint256"},{"name":"salt","type":"uint256","indexed":false,"internalType":"uint256"},{"name":"investor","type":"address","indexed":false,"internalType":"address"},{"name":"pledgeTimestamp","type":"uint256","indexed":false,"internalType":"uint256"}],"anonymous":false},{"type":"event","name":"CapitalRefunded","inputs":[{"name":"amount","type":"uint256","indexed":false,"internalType":"uint256"},{"name":"investor","type":"address","indexed":false,"internalType":"address"}],"anonymous":false},{"type":"event","name":"CapitalRefundedAfterCancel","inputs":[{"name":"amount","type":"uint256","indexed":false,"internalType":"uint256"},{"name":"investor","type":"address","indexed":false,"internalType":"address"}],"anonymous":false},{"type":"event","name":"CapitalWithdrawn","inputs":[{"name":"amountToWithdraw","type":"uint256","indexed":false,"internalType":"uint256"},{"name":"projectOwner","type":"address","indexed":false,"internalType":"address"}],"anonymous":false},{"type":"event","name":"EmergencyWithdraw","inputs":[{"name":"receiver","type":"address","indexed":false,"internalType":"address"},{"name":"token","type":"address","indexed":false,"internalType":"address"},{"name":"amount","type":"uint256","indexed":false,"internalType":"uint256"}],"anonymous":false},{"type":"event","name":"ExcessCapitalClaimed","inputs":[{"name":"amount","type":"uint256","indexed":false,"internalType":"uint256"},{"name":"investor","type":"address","indexed":false,"internalType":"address"}],"anonymous":false},{"type":"event","name":"ExcessCapitalResultsPublished","inputs":[{"name":"merkleRoot","type":"bytes32","indexed":false,"internalType":"bytes32"}],"anonymous":false},{"type":"event","name":"Initialized","inputs":[{"name":"version","type":"uint64","indexed":false,"internalType":"uint64"}],"anonymous":false},{"type":"event","name":"PublishSaleResultsInitialized","inputs":[],"anonymous":false},{"type":"event","name":"SaleCanceled","inputs":[],"anonymous":false},{"type":"event","name":"SaleResultsPublished","inputs":[{"name":"merkleRoot","type":"bytes32","indexed":false,"internalType":"bytes32"},{"name":"tokensAllocated","type":"uint256","indexed":false,"internalType":"uint256"},{"name":"capitalRaised","type":"uint256","indexed":false,"internalType":"uint256"},{"name":"sealedBidPrivateKey","type":"uint256","indexed":false,"internalType":"uint256"}],"anonymous":false},{"type":"event","name":"TokenAllocationClaimed","inputs":[{"name":"amount","type":"uint256","indexed":false,"internalType":"uint256"},{"name":"investor","type":"address","indexed":false,"internalType":"address"},{"name":"vesting","type":"address","indexed":false,"internalType":"address"}],"anonymous":false},{"type":"event","name":"TokensSuppliedForDistribution","inputs":[{"name":"amount","type":"uint256","indexed":false,"internalType":"uint256"},{"name":"legionFee","type":"uint256","indexed":false,"internalType":"uint256"}],"anonymous":false},{"type":"error","name":"AlreadyClaimedExcess","inputs":[{"name":"investor","type":"address","internalType":"address"}]},{"type":"error","name":"AlreadySettled","inputs":[{"name":"investor","type":"address","internalType":"address"}]},{"type":"error","name":"AskTokenUnavailable","inputs":[]},{"type":"error","name":"CancelLocked","inputs":[]},{"type":"error","name":"CancelNotLocked","inputs":[]},{"type":"error","name":"CannotClaimExcessCapital","inputs":[{"name":"investor","type":"address","internalType":"address"}]},{"type":"error","name":"ECDSAInvalidSignature","inputs":[]},{"type":"error","name":"ECDSAInvalidSignatureLength","inputs":[{"name":"length","type":"uint256","internalType":"uint256"}]},{"type":"error","name":"ECDSAInvalidSignatureS","inputs":[{"name":"s","type":"bytes32","internalType":"bytes32"}]},{"type":"error","name":"ExcessCapitalResultsAlreadyPublished","inputs":[{"name":"merkleRoot","type":"bytes32","internalType":"bytes32"}]},{"type":"error","name":"InvalidBidPrivateKey","inputs":[]},{"type":"error","name":"InvalidBidPublicKey","inputs":[]},{"type":"error","name":"InvalidClaimAmount","inputs":[]},{"type":"error","name":"InvalidFeeAmount","inputs":[]},{"type":"error","name":"InvalidInitialization","inputs":[]},{"type":"error","name":"InvalidPeriodConfig","inputs":[]},{"type":"error","name":"InvalidPledgeAmount","inputs":[{"name":"amount","type":"uint256","internalType":"uint256"}]},{"type":"error","name":"InvalidRefundAmount","inputs":[]},{"type":"error","name":"InvalidSalt","inputs":[]},{"type":"error","name":"InvalidSignature","inputs":[]},{"type":"error","name":"InvalidTokenAmountSupplied","inputs":[{"name":"amount","type":"uint256","internalType":"uint256"}]},{"type":"error","name":"LockupPeriodIsNotOver","inputs":[]},{"type":"error","name":"NoCapitalPledged","inputs":[{"name":"investor","type":"address","internalType":"address"}]},{"type":"error","name":"NotCalledByLegionAdmin","inputs":[]},{"type":"error","name":"NotCalledByProjectAdmin","inputs":[]},{"type":"error","name":"NotInClaimWhitelist","inputs":[{"name":"investor","type":"address","internalType":"address"}]},{"type":"error","name":"NotInitializing","inputs":[]},{"type":"error","name":"PrivateKeyAlreadyPublished","inputs":[]},{"type":"error","name":"PrivateKeyNotPublished","inputs":[]},{"type":"error","name":"RefundPeriodIsNotOver","inputs":[]},{"type":"error","name":"RefundPeriodIsOver","inputs":[]},{"type":"error","name":"SafeERC20FailedOperation","inputs":[{"name":"token","type":"address","internalType":"address"}]},{"type":"error","name":"SaleHasEnded","inputs":[]},{"type":"error","name":"SaleHasNotEnded","inputs":[]},{"type":"error","name":"SaleIsCanceled","inputs":[]},{"type":"error","name":"SaleIsNotCanceled","inputs":[]},{"type":"error","name":"SaleResultsAlreadyPublished","inputs":[]},{"type":"error","name":"SaleResultsNotPublished","inputs":[]},{"type":"error","name":"TokensAlreadyAllocated","inputs":[{"name":"totalTokensAllocated","type":"uint256","internalType":"uint256"}]},{"type":"error","name":"TokensAlreadySupplied","inputs":[]},{"type":"error","name":"TokensNotAllocated","inputs":[]},{"type":"error","name":"TokensNotSupplied","inputs":[]},{"type":"error","name":"ZeroAddressProvided","inputs":[]},{"type":"error","name":"ZeroValueProvided","inputs":[]}],"bytecode":{"object":"0x6080604052348015600f57600080fd5b506016601a565b60ca565b7ff0c57e16840df040f15088dc2f81fe391c3923bec73e23a9662efc9c229c6a00805468010000000000000000900460ff161560695760405163f92ee8a960e01b815260040160405180910390fd5b80546001600160401b039081161460c75780546001600160401b0319166001600160401b0390811782556040519081527fc7f505b2f371ae2175ee4913f4499e1f2633a7b5936321eed1cdaeb6115181d29060200160405180910390a15b50565b6127f4806100d96000396000f3fe608060405234801561001057600080fd5b506004361061012c5760003560e01c8063b14d8bd5116100ad578063e7e1049011610071578063e7e1049014610356578063e8d214531461035e578063ee36f21b14610371578063f5af582d14610386578063f9020e331461039957600080fd5b8063b14d8bd51461030d578063bcb520bd14610315578063c043586a14610328578063d5cef1331461033b578063e63ea4081461034357600080fd5b806349bfdafd116100f457806349bfdafd146102635780635111e9861461027657806389bd6265146102ea578063a96f8668146102fd578063ada14d771461030557600080fd5b806306b31e2c1461013157806311c0dcaa1461021d57806317727a001461023e578063245b5e6b146102485780632a8b6fae1461025b575b600080fd5b6101b96040805160c081018252600080825260208201819052918101829052606081018290526080810182905260a0810191909152506040805160c0810182526008546001600160a01b03908116825260095481166020830152600a54811692820192909252600b5482166060820152600c5482166080820152600d5490911660a082015290565b604051610214919081516001600160a01b03908116825260208084015182169083015260408084015182169083015260608084015182169083015260808084015182169083015260a092830151169181019190915260c00190565b60405180910390f35b61023061022b366004612215565b6103ae565b604051908152602001610214565b610246610457565b005b610246610256366004612237565b610558565b61024661060e565b610246610271366004612269565b610691565b6102bb610284366004612297565b6019602052600090815260409020805460019091015460ff808216916101008104909116906201000090046001600160a01b031684565b604080519485529215156020850152901515918301919091526001600160a01b03166060820152608001610214565b6102466102f8366004612215565b61070f565b61024661083b565b610246610941565b6102466109f6565b6102466103233660046122bb565b610a64565b610246610336366004612379565b610b36565b610246610c29565b610246610351366004612486565b610cd0565b610246610d5a565b61024661036c3660046122bb565b610d97565b610379610eb6565b60405161021491906124c7565b61024661039436600461253f565b610f2a565b6103a1611206565b6040516102149190612586565b60006103b8611304565b601c54604051633a89a52360e01b815260048101859052601a546024820152601b54604482015260648101919091526084810183905273__$edfbc930edab1df5637e2c8827573bd861$__90633a89a5239060a401602060405180830381865af415801561042a573d6000803e3d6000fd5b505050506040513d601f19601f8201168201806040525081019061044e9190612626565b90505b92915050565b600a546001600160a01b0316331461048257604051635d9c72eb60e01b815260040160405180910390fd5b61048a611327565b61049261134a565b61049a61136e565b6009546001600160a01b0316156104b3576104b3611391565b601554600554600090612710906104cb908490612655565b6104d5919061266c565b604080518481523360208201529192507f2d6f01e5411cbd4277f423f351cb310dc3488eec3993da5a4ae9276837d4b82f910160405180910390a16105313361051e838561268e565b6008546001600160a01b031691906113b9565b801561055457600b54600854610554916001600160a01b039182169116836113b9565b5050565b600b546001600160a01b031633146105835760405163f3b1b93560e01b815260040160405180910390fd5b61058b61134a565b610593611418565b61059b611327565b6105a48161143b565b6105ac61152e565b601684905560148390556015829055601c8190556040805185815260208101859052908101839052606081018290527f15002cf84c247aa6d0a704e65b626e112d5204efb8b2bcc20ac504b336fef5a69060800160405180910390a150505050565b600b546001600160a01b031633146106395760405163f3b1b93560e01b815260040160405180910390fd5b61064161134a565b61064961155e565b610651611327565b61065961152e565b601d805460ff191660011790556040517f7e3cf79491a274018c7f265a2e16256849ea1679173c4b19f0fea8cb7c34a87a90600090a1565b600b546001600160a01b031633146106bc5760405163f3b1b93560e01b815260040160405180910390fd5b6106c461134a565b6106cc611582565b6106d46115a5565b60178190556040518181527f1d05456b2ffc08dcb82751ae9e81ca9abf41f6579406fa5f5b9939abbb51cf7f9060200160405180910390a150565b600a546001600160a01b0316331461073a57604051635d9c72eb60e01b815260040160405180910390fd5b6009546001600160a01b031661076357604051632c7efdd160e21b815260040160405180910390fd5b61076c826115cc565b61077461134a565b61077c611614565b6018805461ff0019166101001790556006546127109061079d908490612655565b6107a7919061266c565b81146107c55760405162a4671960e71b815260040160405180910390fd5b60408051838152602081018390527f8fb31ceaccebf6ba3c9c15e8959a4b82e39bf26a144aa885ae5e82a1d1b9c16c910160405180910390a1600954610816906001600160a01b031633308561163d565b801561055457600b54600954610554916001600160a01b03918216913391168461163d565b6009546001600160a01b031661086457604051632c7efdd160e21b815260040160405180910390fd5b3360009081526019602090815260409182902082516080810184528154815260019091015460ff80821615159383019390935261010081049092161515928101929092526201000090046001600160a01b0316606082018190526108db57604051638474420160e01b815260040160405180910390fd5b6060810151600954604051631916558760e01b81526001600160a01b039182166004820152911690631916558790602401600060405180830381600087803b15801561092657600080fd5b505af115801561093a573d6000803e3d6000fd5b5050505050565b610949611676565b336000908152601960205260408120549081900361097a5760405163843ce46b60e01b815260040160405180910390fd5b3360009081526019602052604081208190556013805483929061099e90849061268e565b9091555050604080518281523360208201527f3807f78213e07f1e91138875c27db2a63adf27577192e6d8617910fb3b755b1391015b60405180910390a16008546109f3906001600160a01b031633836113b9565b50565b6109fe611699565b610a0661134a565b6009546001600160a01b031615610a2457610a1f611614565b610a2c565b610a2c6116bc565b6018805460ff191660011790556040517f0943552b21b3bcfb11bcb560653f2703faf49c76ac2a791e285b130c0117678a90600090a1565b610a6c611582565b610a7461134a565b610a80338484846116dd565b336000908152601960205260409020600101805461ff0019166101001790558215610b31573360009081526019602052604081208054859290610ac490849061268e565b925050819055508260136000828254610add919061268e565b9091555050604080518481523360208201527f4a475b512b2940a96ef545685fe93076a8d71b278f57c3206f204dc7e9049acc910160405180910390a1600854610b31906001600160a01b031633856113b9565b505050565b610b3f81611844565b60008080610b4f858701876126a1565b925092509250610b5e826118f2565b610b6781611912565b610b6f611a1d565b610b7761134a565b610b8087611a3f565b8660136000828254610b9291906126f7565b90915550503360009081526019602052604081208054899290610bb69084906126f7565b909155505060408051888152602081018590529081018390523360608201524260808201527f9e2b3387341690ff22eba0ca100d437b6c0e24ca49e13174fb09b991b8050e469060a00160405180910390a1600854610c20906001600160a01b031633308a61163d565b50505050505050565b610c31611a65565b610c3961134a565b610c41611582565b3360009081526019602052604081205490819003610c72576040516316365d5f60e01b815260040160405180910390fd5b33600090815260196020526040812081905560138054839290610c9690849061268e565b9091555050604080518281523360208201527f68537ca51c1b2cb464f6b47b5ab5fed672fd221e6745c3784c21d1cf127693b691016109d4565b600b546001600160a01b03163314610cfb5760405163f3b1b93560e01b815260040160405180910390fd5b604080516001600160a01b038086168252841660208201529081018290527ff24ef89f38eadc1bde50701ad6e4d6d11a2dc24f7cf834a486991f38833285049060600160405180910390a1610b316001600160a01b03831684836113b9565b600a546001600160a01b03163314610d8557604051635d9c72eb60e01b815260040160405180910390fd5b610d8d611a87565b610d9561155e565b565b6009546001600160a01b0316610dc057604051632c7efdd160e21b815260040160405180910390fd5b610dc861136e565b610dd433848484611ac2565b610ddc61134a565b610de4611699565b3360009081526019602052604090206001908101805460ff191690911790558215610b31576000610e1d33601254600354600454611bf4565b604080518681523360208201526001600160a01b0383168183015290519192507f4a05d5cbbd2a218b1587ca6133e262548c26dc0596c2178e5bac5812b1f9a610919081900360600190a133600090815260196020526040902060010180546001600160a01b03808416620100000262010000600160b01b031990921691909117909155600954610eb0911682866113b9565b50505050565b610ebe6121af565b5060408051610120810182526000548152600154602080830191909152600254828401526003546060830152600454608083015260055460a083015260065460c083015260075460e08301528251808401909352601a548352601b549083015261010081019190915290565b7ff0c57e16840df040f15088dc2f81fe391c3923bec73e23a9662efc9c229c6a008054600160401b810460ff16159067ffffffffffffffff16600081158015610f705750825b905060008267ffffffffffffffff166001148015610f8d5750303b155b905081158015610f9b575080155b15610fb95760405163f92ee8a960e01b815260040160405180910390fd5b845467ffffffffffffffff191660011785558315610fe357845460ff60401b1916600160401b1785555b863560005560208088013560015560408801356002556060880135600355608088013560045560a088013560055560c088013560065560e0880135600755610100880135601a55610120880135601b5561103f90870187612297565b600880546001600160a01b0319166001600160a01b039290921691909117905561106f6040870160208801612297565b600980546001600160a01b0319166001600160a01b039290921691909117905561109f6060870160408801612297565b600a80546001600160a01b0319166001600160a01b03929092169190911790556110cf6080870160608801612297565b600b80546001600160a01b0319166001600160a01b03929092169190911790556110ff60a0870160808801612297565b600c80546001600160a01b0319166001600160a01b039290921691909117905561112f60c0870160a08801612297565b600d80546001600160a01b0319166001600160a01b039290921691909117905542600e819055611161908835906126f7565b600f819055611175906020890135906126f7565b6010556020870135604088013511611192576010546011556111a8565b8660400135600f546111a491906126f7565b6011555b6011546012556111b88787611c8e565b8315610c2057845460ff60401b19168555604051600181527fc7f505b2f371ae2175ee4913f4499e1f2633a7b5936321eed1cdaeb6115181d29060200160405180910390a150505050505050565b61127b604051806101a0016040528060008152602001600081526020016000815260200160008152602001600081526020016000815260200160008152602001600081526020016000815260200160008019168152602001600080191681526020016000151581526020016000151581525090565b50604080516101a081018252600e548152600f546020820152601054918101919091526011546060820152601254608082015260135460a082015260145460c082015260155460e0820152601c546101008083019190915260165461012083015260175461014083015260185460ff808216151561016085015291900416151561018082015290565b601c54600003610d955760405163483d23a160e11b815260040160405180910390fd5b601054421015610d9557604051630aabc7c160e11b815260040160405180910390fd5b60185460ff1615610d9557604051638019358960e01b815260040160405180910390fd5b601454600003610d9557604051630efd8e0d60e21b815260040160405180910390fd5b601854610100900460ff16610d9557604051630479472b60e51b815260040160405180910390fd5b6040516001600160a01b03838116602483015260448201839052610b3191859182169063a9059cbb906064015b604051602081830303815290604052915060e01b6020820180516001600160e01b038381831617835250505050611eb7565b601d5460ff16610d9557604051634f21a3b760e01b815260040160405180910390fd5b601c541561145c576040516336fb475960e01b815260040160405180910390fd5b604080518082018252600181526002602082019081529151632bf48e2b60e21b815290516004820152905160248201526044810182905260009073__$edfbc930edab1df5637e2c8827573bd861$__9063afd238ac906064016040805180830381865af41580156114d1573d6000803e3d6000fd5b505050506040513d601f19601f820116820180604052508101906114f5919061270a565b601a5481519192501415806115105750601b54602082015114155b1561055457604051635508a9c960e01b815260040160405180910390fd5b60145415610d9557601454604051632d459d4360e01b815260040161155591815260200190565b60405180910390fd5b601d5460ff1615610d95576040516373b9f2c160e11b815260040160405180910390fd5b600f54421015610d95576040516313365f7760e01b815260040160405180910390fd5b60175415610d9557601754604051630ce9692f60e41b815260040161155591815260200190565b6014546000036115ef576040516324f7856360e01b815260040160405180910390fd5b60145481146109f35760405163fda813a360e01b815260048101829052602401611555565b601854610100900460ff1615610d95576040516323e6655160e11b815260040160405180910390fd5b6040516001600160a01b038481166024830152838116604483015260648201839052610eb09186918216906323b872dd906084016113e6565b60185460ff16610d9557604051639903ed3760e01b815260040160405180910390fd5b601154421015610d9557604051631a7fddef60e01b815260040160405180910390fd5b60145415610d9557604051630a1bb29160e01b815260040160405180910390fd5b604080516001600160a01b038616602082015290810184905260009060600160408051601f198184030181528282528051602091820120908301520160408051601f1981840301815282825280516020918201206001600160a01b03808a16600090815260198452849020608086018552805486526001015460ff808216151587860152610100820416151586860152620100009004166060850152825186830281810184019094528681529094506117b992909187918791829190850190849080828437600092019190915250506017549150859050611f28565b6117e157604051638b68cb5760e01b81526001600160a01b0387166004820152602401611555565b80604001511561180f57604051633b8936cf60e11b81526001600160a01b0387166004820152602401611555565b805160000361183c5760405163f224fc4960e01b81526001600160a01b0387166004820152602401611555565b505050505050565b6040516bffffffffffffffffffffffff193360601b1660208201526000906118b290603401604051602081830303815290604052805190602001207f19457468657265756d205369676e6564204d6573736167653a0a3332000000006000908152601c91909152603c902090565b600c549091506001600160a01b03166118cb8284611f3e565b6001600160a01b03161461055457604051638baa579f60e01b815260040160405180910390fd5b3381146109f3576040516381e69d9b60e01b815260040160405180910390fd5b604051637a5e545960e11b815273__$edfbc930edab1df5637e2c8827573bd861$__9063f4bca8b29061194990849060040161273c565b602060405180830381865af4158015611966573d6000803e3d6000fd5b505050506040513d601f19601f8201168201806040525081019061198a9190612753565b6119a757604051637bdf9a2360e01b815260040160405180910390fd5b601a54601b5460408051602081019390935282015260600160408051601f19818403018152828252805160209182012084518583015192850152918301529060600160405160208183030381529060405280519060200120146109f357604051637bdf9a2360e01b815260040160405180910390fd5b600f544210610d9557604051634298ddab60e11b815260040160405180910390fd5b6007548110156109f3576040516328c3d6d560e01b815260048101829052602401611555565b6010544210610d9557604051632a65994560e21b815260040160405180910390fd5b600a546001600160a01b03163314611ab257604051635d9c72eb60e01b815260040160405180910390fd5b611aba6116bc565b610a2c61134a565b604080516001600160a01b038616602082015290810184905260009060600160408051601f198184030181528282528051602091820120908301520160408051601f1981840301815282825280516020918201206001600160a01b03808a16600090815260198452849020608086018552805486526001015460ff80821615158786015261010082041615158686015262010000900416606085015282518683028181018401909452868152909450611b9e92909187918791829190850190849080828437600092019190915250506016549150859050611f28565b611bc6576040516375774fbf60e11b81526001600160a01b0387166004820152602401611555565b80602001511561180f57604051634f051ead60e11b81526001600160a01b0387166004820152602401611555565b600d54604051636ddc243d60e01b81526001600160a01b03868116600483015267ffffffffffffffff80871660248401528086166044840152841660648301526000921690636ddc243d906084016020604051808303816000875af1158015611c61573d6000803e3d6000fd5b505050506040513d601f19601f82011682018060405250810190611c859190612775565b95945050505050565b6000611c9d6020830183612297565b6001600160a01b03161480611cca57506000611cbf6060830160408401612297565b6001600160a01b0316145b80611ced57506000611ce26080830160608401612297565b6001600160a01b0316145b80611d1057506000611d0560a0830160808401612297565b6001600160a01b0316145b80611d3357506000611d2860c0830160a08401612297565b6001600160a01b0316145b15611d5157604051638474420160e01b815260040160405180910390fd5b81351580611d6157506020820135155b80611d6e57506040820135155b15611d8c5760405163ad3e811360e01b815260040160405180910390fd5b604051637a5e545960e11b81526101008301356004820152610120830135602482015273__$edfbc930edab1df5637e2c8827573bd861$__9063f4bca8b290604401602060405180830381865af4158015611deb573d6000803e3d6000fd5b505050506040513d601f19601f82011682018060405250810190611e0f9190612753565b611e2c57604051637bdf9a2360e01b815260040160405180910390fd5b6276a70082351180611e445750621275008260200135115b80611e55575062f0c8a08260400135115b15611e7357604051630373c09360e51b815260040160405180910390fd5b610e1082351080611e895750610e108260200135105b80611e995750610e108260400135105b1561055457604051630373c09360e51b815260040160405180910390fd5b600080602060008451602086016000885af180611eda576040513d6000823e3d81fd5b50506000513d91508115611ef2578060011415611eff565b6001600160a01b0384163b155b15610eb057604051635274afe760e01b81526001600160a01b0385166004820152602401611555565b600082611f358584611f68565b14949350505050565b600080600080611f4e8686611fab565b925092509250611f5e8282611ff8565b5090949350505050565b600081815b8451811015611fa357611f9982868381518110611f8c57611f8c612792565b60200260200101516120b1565b9150600101611f6d565b509392505050565b60008060008351604103611fe55760208401516040850151606086015160001a611fd7888285856120e0565b955095509550505050611ff1565b50508151600091506002905b9250925092565b600082600381111561200c5761200c6127a8565b03612015575050565b6001826003811115612029576120296127a8565b036120475760405163f645eedf60e01b815260040160405180910390fd5b600282600381111561205b5761205b6127a8565b0361207c5760405163fce698f760e01b815260048101829052602401611555565b6003826003811115612090576120906127a8565b03610554576040516335e2f38360e21b815260048101829052602401611555565b60008183106120cd57600082815260208490526040902061044e565b600083815260208390526040902061044e565b600080807f7fffffffffffffffffffffffffffffff5d576e7357a4501ddfe92f46681b20a084111561211b57506000915060039050826121a5565b604080516000808252602082018084528a905260ff891692820192909252606081018790526080810186905260019060a0016020604051602081039080840390855afa15801561216f573d6000803e3d6000fd5b5050604051601f1901519150506001600160a01b03811661219b575060009250600191508290506121a5565b9250600091508190505b9450945094915050565b6040518061012001604052806000815260200160008152602001600081526020016000815260200160008152602001600081526020016000815260200160008152602001612210604051806040016040528060008152602001600081525090565b905290565b6000806040838503121561222857600080fd5b50508035926020909101359150565b6000806000806080858703121561224d57600080fd5b5050823594602084013594506040840135936060013592509050565b60006020828403121561227b57600080fd5b5035919050565b6001600160a01b03811681146109f357600080fd5b6000602082840312156122a957600080fd5b81356122b481612282565b9392505050565b6000806000604084860312156122d057600080fd5b83359250602084013567ffffffffffffffff808211156122ef57600080fd5b818601915086601f83011261230357600080fd5b81358181111561231257600080fd5b8760208260051b850101111561232757600080fd5b6020830194508093505050509250925092565b634e487b7160e01b600052604160045260246000fd5b6040805190810167ffffffffffffffff811182821017156123735761237361233a565b60405290565b6000806000806060858703121561238f57600080fd5b8435935060208086013567ffffffffffffffff808211156123af57600080fd5b818801915088601f8301126123c357600080fd5b8135818111156123d257600080fd5b89848285010111156123e357600080fd5b9183019550909350604087013590808211156123fe57600080fd5b818801915088601f83011261241257600080fd5b8135818111156124245761242461233a565b604051601f8201601f19908116603f0116810190838211818310171561244c5761244c61233a565b816040528281528b8684870101111561246457600080fd5b8286860187830137600086848301015280965050505050505092959194509250565b60008060006060848603121561249b57600080fd5b83356124a681612282565b925060208401356124b681612282565b929592945050506040919091013590565b600061014082019050825182526020830151602083015260408301516040830152606083015160608301526080830151608083015260a083015160a083015260c083015160c083015260e083015160e0830152610100808401516125378285018280518252602090810151910152565b505092915050565b60008082840361020081121561255457600080fd5b6101408082121561256457600080fd5b84935060c061013f198301121561257a57600080fd5b92959390920193505050565b60006101a082019050825182526020830151602083015260408301516040830152606083015160608301526080830151608083015260a083015160a083015260c083015160c083015260e083015160e0830152610100808401518184015250610120808401518184015250610140808401518184015250610160808401516126118285018215159052565b50506101808381015180151584830152612537565b60006020828403121561263857600080fd5b5051919050565b634e487b7160e01b600052601160045260246000fd5b80820281158282048414176104515761045161263f565b60008261268957634e487b7160e01b600052601260045260246000fd5b500490565b818103818111156104515761045161263f565b600080600083850360808112156126b757600080fd5b84359350602085013592506040603f19820112156126d457600080fd5b506126dd612350565b604085013581526060909401356020850152509093909250565b808201808211156104515761045161263f565b60006040828403121561271c57600080fd5b612724612350565b82518152602083015160208201528091505092915050565b815181526020808301519082015260408101610451565b60006020828403121561276557600080fd5b815180151581146122b457600080fd5b60006020828403121561278757600080fd5b81516122b481612282565b634e487b7160e01b600052603260045260246000fd5b634e487b7160e01b600052602160045260246000fdfea26469706673582212206af5e1dcd0d349e7d68c7a2cd292b8201a3ae372e476f8904464a5a35d4367fd64736f6c63430008190033","linkReferences":{"src/lib/ECIES.sol":{"ECIES":[{"start":1225,"length":20},{"start":5489,"length":20},{"start":6650,"length":20},{"start":7818,"length":20}]}}},"methodIdentifiers":{"cancelExpiredSale()":"b14d8bd5","cancelSale()":"e7e10490","claimBackCapitalIfCanceled()":"ada14d77","claimExcessCapital(uint256,bytes32[])":"bcb520bd","claimTokenAllocation(uint256,bytes32[])":"e8d21453","decryptSealedBid(uint256,uint256)":"11c0dcaa","emergencyWithdraw(address,address,uint256)":"e63ea408","initialize((uint256,uint256,uint256,uint256,uint256,uint256,uint256,uint256,(uint256,uint256)),(address,address,address,address,address,address))":"f5af582d","initializePublishSaleResults()":"2a8b6fae","investorPositions(address)":"5111e986","pledgeCapital(uint256,bytes,bytes)":"c043586a","publishExcessCapitalResults(bytes32)":"49bfdafd","publishSaleResults(bytes32,uint256,uint256,uint256)":"245b5e6b","releaseTokens()":"a96f8668","requestRefund()":"d5cef133","saleAddressConfiguration()":"06b31e2c","salePeriodAndFeeConfiguration()":"ee36f21b","saleStatus()":"f9020e33","supplyTokens(uint256,uint256)":"89bd6265","withdrawCapital()":"17727a00"},"id":60}