{"abi":[{"type":"constructor","inputs":[],"stateMutability":"nonpayable"},{"type":"function","name":"cancelSale","inputs":[],"outputs":[],"stateMutability":"nonpayable"},{"type":"function","name":"claimAskTokenAllocation","inputs":[],"outputs":[],"stateMutability":"nonpayable"},{"type":"function","name":"emergencyWithdraw","inputs":[{"name":"receiver","type":"address","internalType":"address"},{"name":"token","type":"address","internalType":"address"},{"name":"amount","type":"uint256","internalType":"uint256"}],"outputs":[],"stateMutability":"nonpayable"},{"type":"function","name":"initialize","inputs":[{"name":"preLiquidSaleConfig","type":"tuple","internalType":"struct ILegionPreLiquidSale.PreLiquidSaleConfig","components":[{"name":"refundPeriodSeconds","type":"uint256","internalType":"uint256"},{"name":"vestingDurationSeconds","type":"uint256","internalType":"uint256"},{"name":"vestingCliffDurationSeconds","type":"uint256","internalType":"uint256"},{"name":"tokenAllocationOnTGEBps","type":"uint256","internalType":"uint256"},{"name":"legionFeeOnCapitalRaisedBps","type":"uint256","internalType":"uint256"},{"name":"legionFeeOnTokensSoldBps","type":"uint256","internalType":"uint256"},{"name":"saftMerkleRoot","type":"bytes32","internalType":"bytes32"},{"name":"bidToken","type":"address","internalType":"address"},{"name":"projectAdmin","type":"address","internalType":"address"},{"name":"legionAdmin","type":"address","internalType":"address"},{"name":"vestingFactory","type":"address","internalType":"address"}]}],"outputs":[],"stateMutability":"nonpayable"},{"type":"function","name":"invest","inputs":[{"name":"amount","type":"uint256","internalType":"uint256"},{"name":"saftInvestAmount","type":"uint256","internalType":"uint256"},{"name":"tokenAllocationBps","type":"uint256","internalType":"uint256"},{"name":"saftHash","type":"bytes32","internalType":"bytes32"},{"name":"proof","type":"bytes32[]","internalType":"bytes32[]"}],"outputs":[],"stateMutability":"nonpayable"},{"type":"function","name":"investorPositions","inputs":[{"name":"investorAddress","type":"address","internalType":"address"}],"outputs":[{"name":"investedCapital","type":"uint256","internalType":"uint256"},{"name":"withdrawnCapital","type":"uint256","internalType":"uint256"},{"name":"cachedInvestTimestamp","type":"uint256","internalType":"uint256"},{"name":"cachedSAFTInvestAmount","type":"uint256","internalType":"uint256"},{"name":"cachedTokenAllocationBps","type":"uint256","internalType":"uint256"},{"name":"cachedSAFTHash","type":"bytes32","internalType":"bytes32"},{"name":"hasSettled","type":"bool","internalType":"bool"},{"name":"vestingAddress","type":"address","internalType":"address"}],"stateMutability":"view"},{"type":"function","name":"publishTgeDetails","inputs":[{"name":"_askToken","type":"address","internalType":"address"},{"name":"_askTokenTotalSupply","type":"uint256","internalType":"uint256"},{"name":"_vestingStartTime","type":"uint256","internalType":"uint256"},{"name":"_totalTokensAllocated","type":"uint256","internalType":"uint256"}],"outputs":[],"stateMutability":"nonpayable"},{"type":"function","name":"refund","inputs":[],"outputs":[],"stateMutability":"nonpayable"},{"type":"function","name":"releaseTokens","inputs":[],"outputs":[],"stateMutability":"nonpayable"},{"type":"function","name":"saleConfig","inputs":[],"outputs":[{"name":"preLiquidSaleConfig","type":"tuple","internalType":"struct ILegionPreLiquidSale.PreLiquidSaleConfig","components":[{"name":"refundPeriodSeconds","type":"uint256","internalType":"uint256"},{"name":"vestingDurationSeconds","type":"uint256","internalType":"uint256"},{"name":"vestingCliffDurationSeconds","type":"uint256","internalType":"uint256"},{"name":"tokenAllocationOnTGEBps","type":"uint256","internalType":"uint256"},{"name":"legionFeeOnCapitalRaisedBps","type":"uint256","internalType":"uint256"},{"name":"legionFeeOnTokensSoldBps","type":"uint256","internalType":"uint256"},{"name":"saftMerkleRoot","type":"bytes32","internalType":"bytes32"},{"name":"bidToken","type":"address","internalType":"address"},{"name":"projectAdmin","type":"address","internalType":"address"},{"name":"legionAdmin","type":"address","internalType":"address"},{"name":"vestingFactory","type":"address","internalType":"address"}]}],"stateMutability":"view"},{"type":"function","name":"saleStatus","inputs":[],"outputs":[{"name":"preLiquidSaleStatus","type":"tuple","internalType":"struct ILegionPreLiquidSale.PreLiquidSaleStatus","components":[{"name":"askToken","type":"address","internalType":"address"},{"name":"vestingStartTime","type":"uint256","internalType":"uint256"},{"name":"askTokenTotalSupply","type":"uint256","internalType":"uint256"},{"name":"totalCapitalInvested","type":"uint256","internalType":"uint256"},{"name":"totalTokensAllocated","type":"uint256","internalType":"uint256"},{"name":"totalCapitalWithdrawn","type":"uint256","internalType":"uint256"},{"name":"isCanceled","type":"bool","internalType":"bool"},{"name":"askTokensSupplied","type":"bool","internalType":"bool"},{"name":"investmentAccepted","type":"bool","internalType":"bool"}]}],"stateMutability":"view"},{"type":"function","name":"supplyAskTokens","inputs":[{"name":"amount","type":"uint256","internalType":"uint256"},{"name":"legionFee","type":"uint256","internalType":"uint256"}],"outputs":[],"stateMutability":"nonpayable"},{"type":"function","name":"toggleInvestmentAccepted","inputs":[],"outputs":[],"stateMutability":"nonpayable"},{"type":"function","name":"updateSAFTMerkleRoot","inputs":[{"name":"merkleRoot","type":"bytes32","internalType":"bytes32"}],"outputs":[],"stateMutability":"nonpayable"},{"type":"function","name":"updateVestingTerms","inputs":[{"name":"_vestingDurationSeconds","type":"uint256","internalType":"uint256"},{"name":"_vestingCliffDurationSeconds","type":"uint256","internalType":"uint256"},{"name":"_tokenAllocationOnTGEBps","type":"uint256","internalType":"uint256"}],"outputs":[],"stateMutability":"nonpayable"},{"type":"function","name":"withdrawCapitalIfSaleIsCanceled","inputs":[],"outputs":[],"stateMutability":"nonpayable"},{"type":"function","name":"withdrawExcessCapital","inputs":[{"name":"amount","type":"uint256","internalType":"uint256"},{"name":"saftInvestAmount","type":"uint256","internalType":"uint256"},{"name":"tokenAllocationBps","type":"uint256","internalType":"uint256"},{"name":"saftHash","type":"bytes32","internalType":"bytes32"},{"name":"proof","type":"bytes32[]","internalType":"bytes32[]"}],"outputs":[],"stateMutability":"nonpayable"},{"type":"function","name":"withdrawRaisedCapital","inputs":[{"name":"investors","type":"address[]","internalType":"address[]"}],"outputs":[{"name":"amount","type":"uint256","internalType":"uint256"}],"stateMutability":"nonpayable"},{"type":"event","name":"CapitalInvested","inputs":[{"name":"amount","type":"uint256","indexed":false,"internalType":"uint256"},{"name":"investor","type":"address","indexed":false,"internalType":"address"},{"name":"tokenAllocationBps","type":"uint256","indexed":false,"internalType":"uint256"},{"name":"saftHash","type":"bytes32","indexed":false,"internalType":"bytes32"},{"name":"investTimestamp","type":"uint256","indexed":false,"internalType":"uint256"}],"anonymous":false},{"type":"event","name":"CapitalRefunded","inputs":[{"name":"amount","type":"uint256","indexed":false,"internalType":"uint256"},{"name":"investor","type":"address","indexed":false,"internalType":"address"}],"anonymous":false},{"type":"event","name":"CapitalRefundedAfterCancel","inputs":[{"name":"amount","type":"uint256","indexed":false,"internalType":"uint256"},{"name":"investor","type":"address","indexed":false,"internalType":"address"}],"anonymous":false},{"type":"event","name":"CapitalWithdrawn","inputs":[{"name":"amount","type":"uint256","indexed":false,"internalType":"uint256"}],"anonymous":false},{"type":"event","name":"EmergencyWithdraw","inputs":[{"name":"receiver","type":"address","indexed":false,"internalType":"address"},{"name":"token","type":"address","indexed":false,"internalType":"address"},{"name":"amount","type":"uint256","indexed":false,"internalType":"uint256"}],"anonymous":false},{"type":"event","name":"ExcessCapitalRefunded","inputs":[{"name":"amount","type":"uint256","indexed":false,"internalType":"uint256"}],"anonymous":false},{"type":"event","name":"ExcessCapitalWithdrawn","inputs":[{"name":"amount","type":"uint256","indexed":false,"internalType":"uint256"},{"name":"investor","type":"address","indexed":false,"internalType":"address"},{"name":"tokenAllocationBps","type":"uint256","indexed":false,"internalType":"uint256"},{"name":"saftHash","type":"bytes32","indexed":false,"internalType":"bytes32"},{"name":"investTimestamp","type":"uint256","indexed":false,"internalType":"uint256"}],"anonymous":false},{"type":"event","name":"Initialized","inputs":[{"name":"version","type":"uint64","indexed":false,"internalType":"uint64"}],"anonymous":false},{"type":"event","name":"SAFTMerkleRootUpdated","inputs":[{"name":"merkleRoot","type":"bytes32","indexed":false,"internalType":"bytes32"}],"anonymous":false},{"type":"event","name":"SaleCanceled","inputs":[],"anonymous":false},{"type":"event","name":"TgeDetailsPublished","inputs":[{"name":"tokenAddress","type":"address","indexed":false,"internalType":"address"},{"name":"totalSupply","type":"uint256","indexed":false,"internalType":"uint256"},{"name":"vestingStartTime","type":"uint256","indexed":false,"internalType":"uint256"},{"name":"allocatedTokenAmount","type":"uint256","indexed":false,"internalType":"uint256"}],"anonymous":false},{"type":"event","name":"ToggleInvestmentAccepted","inputs":[{"name":"investmentAccepted","type":"bool","indexed":false,"internalType":"bool"}],"anonymous":false},{"type":"event","name":"TokenAllocationClaimed","inputs":[{"name":"amountToBeVested","type":"uint256","indexed":false,"internalType":"uint256"},{"name":"amountOnClaim","type":"uint256","indexed":false,"internalType":"uint256"},{"name":"investor","type":"address","indexed":false,"internalType":"address"},{"name":"vesting","type":"address","indexed":false,"internalType":"address"}],"anonymous":false},{"type":"event","name":"TokensSuppliedForDistribution","inputs":[{"name":"amount","type":"uint256","indexed":false,"internalType":"uint256"},{"name":"legionFee","type":"uint256","indexed":false,"internalType":"uint256"}],"anonymous":false},{"type":"event","name":"VestingTermsUpdated","inputs":[{"name":"_vestingDurationSeconds","type":"uint256","indexed":false,"internalType":"uint256"},{"name":"_vestingCliffDurationSeconds","type":"uint256","indexed":false,"internalType":"uint256"},{"name":"_tokenAllocationOnTGEBps","type":"uint256","indexed":false,"internalType":"uint256"}],"anonymous":false},{"type":"error","name":"AlreadySettled","inputs":[{"name":"investor","type":"address","internalType":"address"}]},{"type":"error","name":"AskTokensNotSupplied","inputs":[]},{"type":"error","name":"CannotWithdrawCapital","inputs":[]},{"type":"error","name":"CapitalAlreadyWithdrawn","inputs":[{"name":"investor","type":"address","internalType":"address"}]},{"type":"error","name":"CapitalNotInvested","inputs":[{"name":"investor","type":"address","internalType":"address"}]},{"type":"error","name":"InvalidClaimAmount","inputs":[]},{"type":"error","name":"InvalidFeeAmount","inputs":[]},{"type":"error","name":"InvalidInitialization","inputs":[]},{"type":"error","name":"InvalidPeriodConfig","inputs":[]},{"type":"error","name":"InvalidRefundAmount","inputs":[]},{"type":"error","name":"InvalidTokenAmountSupplied","inputs":[{"name":"amount","type":"uint256","internalType":"uint256"}]},{"type":"error","name":"InvalidTotalSupply","inputs":[]},{"type":"error","name":"InvestmentNotAccepted","inputs":[]},{"type":"error","name":"NotAllowedToInvestCapital","inputs":[{"name":"investor","type":"address","internalType":"address"}]},{"type":"error","name":"NotAllowedToWithdrawExcessCapital","inputs":[{"name":"investor","type":"address","internalType":"address"}]},{"type":"error","name":"NotCalledByLegionAdmin","inputs":[]},{"type":"error","name":"NotCalledByProjectAdmin","inputs":[]},{"type":"error","name":"NotInitializing","inputs":[]},{"type":"error","name":"ProjectHasWithdrawnCapital","inputs":[]},{"type":"error","name":"RefundPeriodIsNotOver","inputs":[]},{"type":"error","name":"RefundPeriodIsOver","inputs":[]},{"type":"error","name":"SafeERC20FailedOperation","inputs":[{"name":"token","type":"address","internalType":"address"}]},{"type":"error","name":"SaleIsCanceled","inputs":[]},{"type":"error","name":"SaleIsNotCanceled","inputs":[]},{"type":"error","name":"TokensAlreadyAllocated","inputs":[]},{"type":"error","name":"TokensAlreadySupplied","inputs":[]},{"type":"error","name":"TokensNotAllocated","inputs":[]},{"type":"error","name":"UnableToClaimTokenAllocation","inputs":[]},{"type":"error","name":"ZeroAddressProvided","inputs":[]},{"type":"error","name":"ZeroValueProvided","inputs":[]}],"bytecode":{"object":"0x6080604052348015600f57600080fd5b506016601a565b60ca565b7ff0c57e16840df040f15088dc2f81fe391c3923bec73e23a9662efc9c229c6a00805468010000000000000000900460ff161560695760405163f92ee8a960e01b815260040160405180910390fd5b80546001600160401b039081161460c75780546001600160401b0319166001600160401b0390811782556040519081527fc7f505b2f371ae2175ee4913f4499e1f2633a7b5936321eed1cdaeb6115181d29060200160405180910390a15b50565b6121d4806100d96000396000f3fe608060405234801561001057600080fd5b50600436106101165760003560e01c8063b19164d0116100a2578063e5ccd91b11610071578063e5ccd91b1461035b578063e63ea40814610363578063e7e1049014610376578063f37bfe741461037e578063f9020e331461039157600080fd5b8063b19164d01461031a578063c366eff81461032d578063c5e9339f14610335578063c684e70a1461034857600080fd5b806356f55bab116100e957806356f55bab146101ff578063590e1ae314610207578063689513a01461020f57806390aa0b0f14610230578063a96f86681461031257600080fd5b80634d04ea5b1461011b5780634e474163146101305780634e9148a6146101435780635111e98614610156575b600080fd5b61012e610129366004611d67565b6103a6565b005b61012e61013e366004611dcc565b6105c5565b61012e610151366004611e4b565b6106da565b6101b4610164366004611e86565b6012602052600090815260409020805460018201546002830154600384015460048501546005860154600690960154949593949293919290919060ff81169061010090046001600160a01b031688565b604080519889526020890197909752958701949094526060860192909252608085015260a0840152151560c08301526001600160a01b031660e0820152610100015b60405180910390f35b61012e6107a2565b61012e6108ef565b61022261021d366004611ea3565b6109a2565b6040519081526020016101f6565b6103056040805161016081018252600080825260208201819052918101829052606081018290526080810182905260a0810182905260c0810182905260e081018290526101008101829052610120810182905261014081019190915250604080516101608101825260005481526001546020820152600254918101919091526003546060820152600454608082015260055460a082015260065460c08201526007546001600160a01b0390811660e083015260085481166101008301526009548116610120830152600a541661014082015290565b6040516101f69190611ee5565b61012e610b81565b61012e610328366004611dcc565b610c74565b61012e610d64565b61012e610343366004611f95565b610e18565b61012e610356366004611fae565b610e8e565b61012e610f88565b61012e610371366004611fd0565b61101f565b61012e6110ae565b61012e61038c366004612011565b61113d565b6103996111d5565b6040516101f6919061203d565b7ff0c57e16840df040f15088dc2f81fe391c3923bec73e23a9662efc9c229c6a008054600160401b810460ff16159067ffffffffffffffff166000811580156103ec5750825b905060008267ffffffffffffffff1660011480156104095750303b155b905081158015610417575080155b156104355760405163f92ee8a960e01b815260040160405180910390fd5b845467ffffffffffffffff19166001178555831561045f57845460ff60401b1916600160401b1785555b8535600055602086013560015560408601356002556060860135600355608086013560045560a086013560055560c08601356006556104a5610100870160e08801611e86565b600780546001600160a01b0319166001600160a01b03929092169190911790556104d761012087016101008801611e86565b600880546001600160a01b0319166001600160a01b039290921691909117905561050961014087016101208801611e86565b600980546001600160a01b0319166001600160a01b039290921691909117905561053b61016087016101408801611e86565b600a80546001600160a01b03929092166001600160a01b03199092169190911790556011805462ff0000191662010000179055610577866112a6565b83156105bd57845460ff60401b19168555604051600181527fc7f505b2f371ae2175ee4913f4499e1f2633a7b5936321eed1cdaeb6115181d29060200160405180910390a15b505050505050565b6105cd6113a3565b6105d56113c9565b336000908152601260205260408120600e8054919289926105f79084906120cd565b90915550508054879082906000906106109084906120cd565b90915550506002810154600003610628574260028201555b8581600301541461063b57600381018690555b8481600401541461064e57600481018590555b8381600501541461066157600581018490555b61066c3384846113f1565b60408051888152336020820152908101869052606081018590524260808201527f1a67a76a9e304ee20506c8fcce419857970b8af84bc88f250510f3042caad1d69060a00160405180910390a16007546106d1906001600160a01b031633308a611558565b50505050505050565b6009546001600160a01b031633146107055760405163f3b1b93560e01b815260040160405180910390fd5b61070d6113a3565b61071784846115c5565b600b80546001600160a01b0319166001600160a01b038616179055600d839055600c829055600f81905560115462010000900460ff161561075f576011805462ff0000191690555b7f0d1e7d410b8c1f5458a5aed9b93922c886b6cba9e90562aefd5eebd46fb00c5d8484848460405161079494939291906120e0565b60405180910390a150505050565b6107aa6113a3565b6107b333611647565b3360009081526012602052604081206004810154600d54919291612710916107da91612106565b6107e4919061211d565b90506000612710600354836107f99190612106565b610803919061211d565b90506000610811828461213f565b9050600061082733600c5460015460025461173b565b60068601805460ff196001600160a01b03841661010002166001600160a81b03199091161760011790556040519091507ff923792c0048215a0ec9c4a916271549f6ef7be7caddd9438ea7edfef2e6e38a906108ac90849086903390869093845260208401929092526001600160a01b03908116604084015216606082015260800190565b60405180910390a1600b546108cb906001600160a01b031682846117d5565b82156108e857600b546108e8906001600160a01b031633856117d5565b5050505050565b6108f76113a3565b61090033611806565b33600090815260126020526040812080549091819003610933576040516316365d5f60e01b815260040160405180910390fd5b6000808355600e805483929061094a90849061213f565b9091555050604080518281523360208201527f68537ca51c1b2cb464f6b47b5ab5fed672fd221e6745c3784c21d1cf127693b6910160405180910390a160075461099e906001600160a01b031633836117d5565b5050565b6008546000906001600160a01b031633146109d057604051635d9c72eb60e01b815260040160405180910390fd5b6109d86113a3565b60005b82811015610ac457610a128484838181106109f8576109f8612152565b9050602002016020810190610a0d9190611e86565b6118b0565b610a41848483818110610a2757610a27612152565b9050602002016020810190610a3c9190611e86565b611959565b600060126000868685818110610a5957610a59612152565b9050602002016020810190610a6e9190611e86565b6001600160a01b03166001600160a01b0316815260200190815260200160002090508060000154816001016000828254610aa891906120cd565b90915550508054610ab990846120cd565b9250506001016109db565b508060106000828254610ad791906120cd565b92505081905550600061271082600454610af19190612106565b610afb919061211d565b90507f3ae35a082057a5be9e6d5f35595c7af95c80661ebf74fdbb3790f6ef55c75e4f82604051610b2e91815260200190565b60405180910390a1610b5733610b44838561213f565b6007546001600160a01b031691906117d5565b8015610b7a57600954600754610b7a916001600160a01b039182169116836117d5565b5092915050565b3360009081526012602090815260409182902082516101008082018552825482526001830154938201939093526002820154938101939093526003810154606084015260048101546080840152600581015460a08401526006015460ff8116151560c0840152046001600160a01b031660e08201819052610c1557604051638474420160e01b815260040160405180910390fd5b60e0810151600b54604051631916558760e01b81526001600160a01b039182166004820152911690631916558790602401600060405180830381600087803b158015610c6057600080fd5b505af11580156108e8573d6000803e3d6000fd5b610c7c6113a3565b336000908152601260205260408120600e805491928992610c9e90849061213f565b9091555050805487908290600090610cb790849061213f565b909155505060038101548614610ccf57600381018690555b84816004015414610ce257600481018590555b83816005015414610cf557600581018490555b610d00338484611a31565b60408051888152336020820152908101869052606081018590524260808201527fd84decea969f0c829ea42947cd8c6f90667f2eb8458cf4a499c0f1d4983950439060a00160405180910390a16007546106d1906001600160a01b031633896117d5565b610d6c611b93565b3360009081526012602052604081205490819003610d9d5760405163843ce46b60e01b815260040160405180910390fd5b336000908152601260205260408120819055600e8054839290610dc190849061213f565b9091555050604080518281523360208201527f3807f78213e07f1e91138875c27db2a63adf27577192e6d8617910fb3b755b13910160405180910390a1600754610e15906001600160a01b031633836117d5565b50565b6008546001600160a01b03163314610e4357604051635d9c72eb60e01b815260040160405180910390fd5b610e4b6113a3565b610e53611bb6565b60068190556040518181527fac6ccaebceb7db9d2c79237384a321e39219912d1cbb6a95c09ae874c6ca4a8d9060200160405180910390a150565b6008546001600160a01b03163314610eb957604051635d9c72eb60e01b815260040160405180910390fd5b610ec16113a3565b610eca82611bd7565b61271082600554610edb9190612106565b610ee5919061211d565b8114610f035760405162a4671960e71b815260040160405180910390fd5b6011805461ff00191661010017905560408051838152602081018390527f8fb31ceaccebf6ba3c9c15e8959a4b82e39bf26a144aa885ae5e82a1d1b9c16c910160405180910390a1600b54610f63906001600160a01b0316333085611558565b801561099e57600954600b5461099e916001600160a01b039182169133911684611558565b6008546001600160a01b03163314610fb357604051635d9c72eb60e01b815260040160405180910390fd5b610fbb611c48565b6011805460ff62010000808304821615810262ff00001990931692909217928390556040517f45feb7652572c788bb34f6d73371acf0a76228b5f94a6267ab079c67448ee662936110159390049091161515815260200190565b60405180910390a1565b6009546001600160a01b0316331461104a5760405163f3b1b93560e01b815260040160405180910390fd5b604080516001600160a01b038086168252841660208201529081018290527ff24ef89f38eadc1bde50701ad6e4d6d11a2dc24f7cf834a486991f38833285049060600160405180910390a16110a96001600160a01b03831684836117d5565b505050565b6008546001600160a01b031633146110d957604051635d9c72eb60e01b815260040160405180910390fd5b6110e16113a3565b6010546011805460ff191660011790556040517f0943552b21b3bcfb11bcb560653f2703faf49c76ac2a791e285b130c0117678a90600090a18015610e15576000601055600754610e15906001600160a01b0316333084611558565b6008546001600160a01b0316331461116857604051635d9c72eb60e01b815260040160405180910390fd5b6111706113a3565b611178611bb6565b611180611c48565b60018390556002829055600381905560408051848152602081018490529081018290527f58e28d925e2c26857c5c2ca9745e16c543063e7a0cfe5eb61045cce9a465466b9060600160405180910390a1505050565b61123360405180610120016040528060006001600160a01b0316815260200160008152602001600081526020016000815260200160008152602001600081526020016000151581526020016000151581526020016000151581525090565b506040805161012081018252600b546001600160a01b03168152600c546020820152600d5491810191909152600e546060820152600f54608082015260105460a082015260115460ff808216151560c08401526101008083048216151560e0850152620100009092041615159082015290565b60006112b9610100830160e08401611e86565b6001600160a01b031614806112e8575060006112dd61012083016101008401611e86565b6001600160a01b0316145b8061130d5750600061130261014083016101208401611e86565b6001600160a01b0316145b806113325750600061132761016083016101408401611e86565b6001600160a01b0316145b1561135057604051638474420160e01b815260040160405180910390fd5b80351580611360575060c0810135155b1561137e5760405163ad3e811360e01b815260040160405180910390fd5b6212750081351115610e1557604051630373c09360e51b815260040160405180910390fd5b60115460ff16156113c757604051638019358960e01b815260040160405180910390fd5b565b60115462010000900460ff166113c757604051625abecd60e71b815260040160405180910390fd5b6001600160a01b0380841660009081526012602090815260408083208151610100808201845282548252600183015482860152600283015482850152600383015460608301819052600484015460808401819052600585015460a0850181905260069095015460ff8116151560c08601529290920490971660e083015292519095611482948a9491939192016120e0565b60408051601f198184030181528282528051602091820120908301520160405160208183030381529060405280519060200120905081606001518260000151146114ef576040516370d2e4b760e11b81526001600160a01b03861660048201526024015b60405180910390fd5b611530848480806020026020016040519081016040528093929190818152602001838360200280828437600092019190915250506006549150849050611c69565b6108e8576040516370d2e4b760e11b81526001600160a01b03861660048201526024016114e6565b6040516001600160a01b0384811660248301528381166044830152606482018390526115bf9186918216906323b872dd906084015b604051602081830303815290604052915060e01b6020820180516001600160e01b038381831617835250505050611c7f565b50505050565b816001600160a01b03166318160ddd6040518163ffffffff1660e01b8152600401602060405180830381865afa158015611603573d6000803e3d6000fd5b505050506040513d601f19601f820116820180604052508101906116279190612168565b81101561099e576040516334bbd58560e01b815260040160405180910390fd5b6001600160a01b0380821660009081526012602090815260409182902082516101008082018552825482526001830154938201939093526002820154938101939093526003810154606084015260048101546080840152600581015460a08401526006015460ff808216151560c08501529082900490931660e083015260115491929104166116e95760405163130f6b4360e31b815260040160405180910390fd5b8060c001511561171757604051634f051ead60e11b81526001600160a01b03831660048201526024016114e6565b805160000361099e57604051633177dde360e21b81523360048201526024016114e6565b600a54604051636ddc243d60e01b81526001600160a01b03868116600483015267ffffffffffffffff80871660248401528086166044840152841660648301526000921690636ddc243d906084016020604051808303816000875af11580156117a8573d6000803e3d6000fd5b505050506040513d601f19601f820116820180604052508101906117cc9190612181565b95945050505050565b6040516001600160a01b038381166024830152604482018390526110a991859182169063a9059cbb9060640161158d565b6001600160a01b038082166000908152601260209081526040808320815161010080820184528254825260018301549482019490945260028201549281018390526003820154606082015260048201546080820152600582015460a082015260069091015460ff8116151560c08301529290920490931660e08201529054909161189091906120cd565b42111561099e57604051632a65994560e21b815260040160405180910390fd5b6001600160a01b038082166000908152601260209081526040808320815161010080820184528254825260018301549482019490945260028201549281018390526003820154606082015260048201546080820152600582015460a082015260069091015460ff8116151560c08301529290920490931660e08201529054909161193a91906120cd565b421161099e57604051630aabc7c160e11b815260040160405180910390fd5b6001600160a01b0380821660009081526012602090815260408083208151610100808201845282548083526001840154958301959095526002830154938201939093526003820154606082015260048201546080820152600582015460a082015260069091015460ff8116151560c08301529190910490931660e08401529003611a0157604051633177dde360e21b81526001600160a01b03831660048201526024016114e6565b805160208201510361099e576040516392f1dcf760e01b81526001600160a01b03831660048201526024016114e6565b6001600160a01b0380841660009081526012602090815260408083208151610100808201845282548252600183015482860152600283015482850152600383015460608301819052600484015460808401819052600585015460a0850181905260069095015460ff8116151560c08601529290920490971660e083015292519095611ac2948a9491939192016120e0565b60408051601f19818403018152828252805160209182012090830152016040516020818303038152906040528051906020012090508160600151826000015114611b2a57604051635e7272cd60e11b81526001600160a01b03861660048201526024016114e6565b611b6b848480806020026020016040519081016040528093929190818152602001838360200280828437600092019190915250506006549150849050611c69565b6108e857604051635e7272cd60e11b81526001600160a01b03861660048201526024016114e6565b60115460ff166113c757604051639903ed3760e01b815260040160405180910390fd5b601054156113c757604051638aada42160e01b815260040160405180910390fd5b600f54600003611bfa576040516324f7856360e01b815260040160405180910390fd5b601154610100900460ff1615611c23576040516323e6655160e11b815260040160405180910390fd5b600f548114610e155760405163fda813a360e01b8152600481018290526024016114e6565b600f54156113c757604051632801533160e21b815260040160405180910390fd5b600082611c768584611cf0565b14949350505050565b600080602060008451602086016000885af180611ca2576040513d6000823e3d81fd5b50506000513d91508115611cba578060011415611cc7565b6001600160a01b0384163b155b156115bf57604051635274afe760e01b81526001600160a01b03851660048201526024016114e6565b600081815b8451811015611d2b57611d2182868381518110611d1457611d14612152565b6020026020010151611d35565b9150600101611cf5565b5090505b92915050565b6000818310611d51576000828152602084905260409020611d60565b60008381526020839052604090205b9392505050565b60006101608284031215611d7a57600080fd5b50919050565b60008083601f840112611d9257600080fd5b50813567ffffffffffffffff811115611daa57600080fd5b6020830191508360208260051b8501011115611dc557600080fd5b9250929050565b60008060008060008060a08789031215611de557600080fd5b86359550602087013594506040870135935060608701359250608087013567ffffffffffffffff811115611e1857600080fd5b611e2489828a01611d80565b979a9699509497509295939492505050565b6001600160a01b0381168114610e1557600080fd5b60008060008060808587031215611e6157600080fd5b8435611e6c81611e36565b966020860135965060408601359560600135945092505050565b600060208284031215611e9857600080fd5b8135611d6081611e36565b60008060208385031215611eb657600080fd5b823567ffffffffffffffff811115611ecd57600080fd5b611ed985828601611d80565b90969095509350505050565b600061016082019050825182526020830151602083015260408301516040830152606083015160608301526080830151608083015260a083015160a083015260c083015160c083015260e0830151611f4860e08401826001600160a01b03169052565b50610100838101516001600160a01b038116848301525050610120838101516001600160a01b038116848301525050610140838101516001600160a01b038116848301525b505092915050565b600060208284031215611fa757600080fd5b5035919050565b60008060408385031215611fc157600080fd5b50508035926020909101359150565b600080600060608486031215611fe557600080fd5b8335611ff081611e36565b9250602084013561200081611e36565b929592945050506040919091013590565b60008060006060848603121561202657600080fd5b505081359360208301359350604090920135919050565b60006101208201905060018060a01b0383511682526020830151602083015260408301516040830152606083015160608301526080830151608083015260a083015160a083015260c0830151151560c083015260e08301516120a360e084018215159052565b506101008381015180151584830152611f8d565b634e487b7160e01b600052601160045260246000fd5b80820180821115611d2f57611d2f6120b7565b6001600160a01b0394909416845260208401929092526040830152606082015260800190565b8082028115828204841417611d2f57611d2f6120b7565b60008261213a57634e487b7160e01b600052601260045260246000fd5b500490565b81810381811115611d2f57611d2f6120b7565b634e487b7160e01b600052603260045260246000fd5b60006020828403121561217a57600080fd5b5051919050565b60006020828403121561219357600080fd5b8151611d6081611e3656fea2646970667358221220ceeb54b470cee2231aaba3fcbbf716c85063797aa2cb5acf3a65c064b828108e64736f6c63430008190033","linkReferences":{}},"methodIdentifiers":{"cancelSale()":"e7e10490","claimAskTokenAllocation()":"56f55bab","emergencyWithdraw(address,address,uint256)":"e63ea408","initialize((uint256,uint256,uint256,uint256,uint256,uint256,bytes32,address,address,address,address))":"4d04ea5b","invest(uint256,uint256,uint256,bytes32,bytes32[])":"4e474163","investorPositions(address)":"5111e986","publishTgeDetails(address,uint256,uint256,uint256)":"4e9148a6","refund()":"590e1ae3","releaseTokens()":"a96f8668","saleConfig()":"90aa0b0f","saleStatus()":"f9020e33","supplyAskTokens(uint256,uint256)":"c684e70a","toggleInvestmentAccepted()":"e5ccd91b","updateSAFTMerkleRoot(bytes32)":"c5e9339f","updateVestingTerms(uint256,uint256,uint256)":"f37bfe74","withdrawCapitalIfSaleIsCanceled()":"c366eff8","withdrawExcessCapital(uint256,uint256,uint256,bytes32,bytes32[])":"b19164d0","withdrawRaisedCapital(address[])":"689513a0"},"id":58}