{"abi":[{"type":"constructor","inputs":[{"name":"newOwner","type":"address","internalType":"address"}],"stateMutability":"nonpayable"},{"type":"function","name":"createFixedPriceSale","inputs":[{"name":"fixedPriceSalePeriodAndFeeConfig","type":"tuple","internalType":"struct ILegionFixedPriceSale.FixedPriceSalePeriodAndFeeConfig","components":[{"name":"prefundPeriodSeconds","type":"uint256","internalType":"uint256"},{"name":"prefundAllocationPeriodSeconds","type":"uint256","internalType":"uint256"},{"name":"salePeriodSeconds","type":"uint256","internalType":"uint256"},{"name":"refundPeriodSeconds","type":"uint256","internalType":"uint256"},{"name":"lockupPeriodSeconds","type":"uint256","internalType":"uint256"},{"name":"vestingDurationSeconds","type":"uint256","internalType":"uint256"},{"name":"vestingCliffDurationSeconds","type":"uint256","internalType":"uint256"},{"name":"legionFeeOnCapitalRaisedBps","type":"uint256","internalType":"uint256"},{"name":"legionFeeOnTokensSoldBps","type":"uint256","internalType":"uint256"},{"name":"minimumPledgeAmount","type":"uint256","internalType":"uint256"},{"name":"tokenPrice","type":"uint256","internalType":"uint256"}]},{"name":"fixedPriceSaleAddressConfig","type":"tuple","internalType":"struct ILegionFixedPriceSale.FixedPriceSaleAddressConfig","components":[{"name":"bidToken","type":"address","internalType":"address"},{"name":"askToken","type":"address","internalType":"address"},{"name":"projectAdmin","type":"address","internalType":"address"},{"name":"legionAdmin","type":"address","internalType":"address"},{"name":"legionSigner","type":"address","internalType":"address"},{"name":"vestingFactory","type":"address","internalType":"address"}]}],"outputs":[{"name":"fixedPriceSaleInstance","type":"address","internalType":"address payable"}],"stateMutability":"nonpayable"},{"type":"function","name":"fixedPriceSaleTemplate","inputs":[],"outputs":[{"name":"","type":"address","internalType":"address"}],"stateMutability":"view"},{"type":"function","name":"owner","inputs":[],"outputs":[{"name":"","type":"address","internalType":"address"}],"stateMutability":"view"},{"type":"function","name":"renounceOwnership","inputs":[],"outputs":[],"stateMutability":"nonpayable"},{"type":"function","name":"totalInstances","inputs":[],"outputs":[{"name":"","type":"uint256","internalType":"uint256"}],"stateMutability":"view"},{"type":"function","name":"transferOwnership","inputs":[{"name":"newOwner","type":"address","internalType":"address"}],"outputs":[],"stateMutability":"nonpayable"},{"type":"event","name":"NewFixedPriceSaleCreated","inputs":[{"name":"saleInstance","type":"address","indexed":false,"internalType":"address"},{"name":"fixedPriceSalePeriodAndFeeConfig","type":"tuple","indexed":false,"internalType":"struct ILegionFixedPriceSale.FixedPriceSalePeriodAndFeeConfig","components":[{"name":"prefundPeriodSeconds","type":"uint256","internalType":"uint256"},{"name":"prefundAllocationPeriodSeconds","type":"uint256","internalType":"uint256"},{"name":"salePeriodSeconds","type":"uint256","internalType":"uint256"},{"name":"refundPeriodSeconds","type":"uint256","internalType":"uint256"},{"name":"lockupPeriodSeconds","type":"uint256","internalType":"uint256"},{"name":"vestingDurationSeconds","type":"uint256","internalType":"uint256"},{"name":"vestingCliffDurationSeconds","type":"uint256","internalType":"uint256"},{"name":"legionFeeOnCapitalRaisedBps","type":"uint256","internalType":"uint256"},{"name":"legionFeeOnTokensSoldBps","type":"uint256","internalType":"uint256"},{"name":"minimumPledgeAmount","type":"uint256","internalType":"uint256"},{"name":"tokenPrice","type":"uint256","internalType":"uint256"}]},{"name":"fixedPriceSaleAddressConfig","type":"tuple","indexed":false,"internalType":"struct ILegionFixedPriceSale.FixedPriceSaleAddressConfig","components":[{"name":"bidToken","type":"address","internalType":"address"},{"name":"askToken","type":"address","internalType":"address"},{"name":"projectAdmin","type":"address","internalType":"address"},{"name":"legionAdmin","type":"address","internalType":"address"},{"name":"legionSigner","type":"address","internalType":"address"},{"name":"vestingFactory","type":"address","internalType":"address"}]}],"anonymous":false},{"type":"event","name":"OwnershipTransferred","inputs":[{"name":"previousOwner","type":"address","indexed":true,"internalType":"address"},{"name":"newOwner","type":"address","indexed":true,"internalType":"address"}],"anonymous":false},{"type":"error","name":"FailedDeployment","inputs":[]},{"type":"error","name":"InsufficientBalance","inputs":[{"name":"balance","type":"uint256","internalType":"uint256"},{"name":"needed","type":"uint256","internalType":"uint256"}]},{"type":"error","name":"OwnableInvalidOwner","inputs":[{"name":"owner","type":"address","internalType":"address"}]},{"type":"error","name":"OwnableUnauthorizedAccount","inputs":[{"name":"account","type":"address","internalType":"address"}]}],"bytecode":{"object":"0x60a0604052604051610010906100f3565b604051809103906000f08015801561002c573d6000803e3d6000fd5b506001600160a01b031660805234801561004557600080fd5b50604051612b7d380380612b7d83398101604081905261006491610100565b806001600160a01b03811661009357604051631e4fbdf760e01b81526000600482015260240160405180910390fd5b61009c816100a3565b5050610130565b600080546001600160a01b038381166001600160a01b0319831681178455604051919092169283917f8be0079c531659141344cd1fd0a4f28419497f9722a3daafe3b4186f6b6457e09190a35050565b61249c806106e183390190565b60006020828403121561011257600080fd5b81516001600160a01b038116811461012957600080fd5b9392505050565b6080516105906101516000396000818160bd015261012d01526105906000f3fe608060405234801561001057600080fd5b50600436106100625760003560e01c80632837693914610067578063715018a6146100975780638412e7cc146100a15780638be135a7146100b85780638da5cb5b146100df578063f2fde38b146100f0575b600080fd5b61007a610075366004610372565b610103565b6040516001600160a01b0390911681526020015b60405180910390f35b61009f6101f5565b005b6100aa60015481565b60405190815260200161008e565b61007a7f000000000000000000000000000000000000000000000000000000000000000081565b6000546001600160a01b031661007a565b61009f6100fe3660046103d5565b610209565b600061010d61024c565b60016000815461011c906103f7565b909155506101526001600160a01b037f000000000000000000000000000000000000000000000000000000000000000016610279565b90507f6f3b3e252e297a9cc656895a8b66c98304801b6ed89bb115af1dc9853c93ecfd81848460405161018793929190610509565b60405180910390a16040516356e915b960e11b81526001600160a01b0382169063add22b72906101bd908690869060040161053d565b600060405180830381600087803b1580156101d757600080fd5b505af11580156101eb573d6000803e3d6000fd5b5050505092915050565b6101fd61024c565b610207600061028c565b565b61021161024c565b6001600160a01b03811661024057604051631e4fbdf760e01b8152600060048201526024015b60405180910390fd5b6102498161028c565b50565b6000546001600160a01b031633146102075760405163118cdaa760e01b8152336004820152602401610237565b60006102868260006102dc565b92915050565b600080546001600160a01b038381166001600160a01b0319831681178455604051919092169283917f8be0079c531659141344cd1fd0a4f28419497f9722a3daafe3b4186f6b6457e09190a35050565b6000814710156103085760405163cf47918160e01b815247600482015260248101839052604401610237565b763d602d80600a3d3981f3363d3d373d3d3d363d730000008360601b60e81c176000526e5af43d82803e903d91602b57fd5bf38360781b176020526037600983f090506001600160a01b0381166102865760405163b06ebf3d60e01b815260040160405180910390fd5b60008082840361022081121561038757600080fd5b6101608082121561039757600080fd5b84935060c061015f19830112156103ad57600080fd5b92959390920193505050565b80356001600160a01b03811681146103d057600080fd5b919050565b6000602082840312156103e757600080fd5b6103f0826103b9565b9392505050565b60006001820161041757634e487b7160e01b600052601160045260246000fd5b5060010190565b803582526020810135602083015260408101356040830152606081013560608301526080810135608083015260a081013560a083015260c081013560c083015260e081013560e08301526101008082013581840152506101208082013581840152506101408082013581840152505050565b6001600160a01b03806104a2836103b9565b168352806104b2602084016103b9565b166020840152806104c5604084016103b9565b166040840152806104d8606084016103b9565b166060840152806104eb608084016103b9565b166080840152806104fe60a084016103b9565b1660a0840152505050565b6001600160a01b03841681526102408101610527602083018561041e565b610535610180830184610490565b949350505050565b610220810161054c828561041e565b6103f061016083018461049056fea26469706673582212207b3b633c42a5ebf531ac2b84a0d3f4b6522cd058c3924dffa38f6340ddf881af64736f6c634300081900336080604052348015600f57600080fd5b506016601a565b60ca565b7ff0c57e16840df040f15088dc2f81fe391c3923bec73e23a9662efc9c229c6a00805468010000000000000000900460ff161560695760405163f92ee8a960e01b815260040160405180910390fd5b80546001600160401b039081161460c75780546001600160401b0319166001600160401b0390811782556040519081527fc7f505b2f371ae2175ee4913f4499e1f2633a7b5936321eed1cdaeb6115181d29060200160405180910390a15b50565b6123c3806100d96000396000f3fe608060405234801561001057600080fd5b50600436106101165760003560e01c8063b14d8bd5116100a2578063e7e1049011610071578063e7e1049014610317578063e8d214531461031f578063e90b366314610332578063ee36f21b14610345578063f9020e33146103d257600080fd5b8063b14d8bd5146102e1578063bcb520bd146102e9578063d5cef133146102fc578063e63ea4081461030457600080fd5b80635111e986116100e95780635111e9861461023757806389bd6265146102ab578063a96f8668146102be578063ada14d77146102c6578063add22b72146102ce57600080fd5b806306b31e2c1461011b57806317727a00146102075780633b0e9e411461021157806349bfdafd14610224575b600080fd5b6101a36040805160c081018252600080825260208201819052918101829052606081018290526080810182905260a0810191909152506040805160c0810182526008546001600160a01b03908116825260095481166020830152600a54811692820192909252600b5482166060820152600c5482166080820152600d5490911660a082015290565b6040516101fe919081516001600160a01b03908116825260208084015182169083015260408084015182169083015260608084015182169083015260808084015182169083015260a092830151169181019190915260c00190565b60405180910390f35b61020f6103e7565b005b61020f61021f366004611eca565b6104e8565b61020f610232366004611eec565b610605565b61027c610245366004611f1a565b6019602052600090815260409020805460019091015460ff808216916101008104909116906201000090046001600160a01b031684565b604080519485529215156020850152901515918301919091526001600160a01b031660608201526080016101fe565b61020f6102b9366004611eca565b610683565b61020f6107af565b61020f6108b5565b61020f6102dc366004611f37565b61096a565b61020f610c78565b61020f6102f7366004611f7e565b610ce6565b61020f610db8565b61020f610312366004611ffd565b610e5f565b61020f610ee9565b61020f61032d366004611f7e565b610f24565b61020f610340366004612054565b611043565b61034d61110e565b6040516101fe9190600061016082019050825182526020830151602083015260408301516040830152606083015160608301526080830151608083015260a083015160a083015260c083015160c083015260e083015160e083015261010080840151818401525061012080840151818401525061014080840151818401525092915050565b6103da6111d2565b6040516101fe919061210f565b600a546001600160a01b0316331461041257604051635d9c72eb60e01b815260040160405180910390fd5b61041a6112e0565b610422611305565b61042a611329565b6009546001600160a01b0316156104435761044361134c565b6015546005546000906127109061045b9084906121cf565b61046591906121e6565b604080518481523360208201529192507f2d6f01e5411cbd4277f423f351cb310dc3488eec3993da5a4ae9276837d4b82f910160405180910390a16104c1336104ae8385612208565b6008546001600160a01b03169190611374565b80156104e457600b546008546104e4916001600160a01b03918216911683611374565b5050565b600b546001600160a01b031633146105135760405163f3b1b93560e01b815260040160405180910390fd5b61051b611305565b6105236112e0565b61052b6113d3565b601682905560148190556008546040805163313ce56760e01b815290516001600160a01b039092169163313ce567916004808201926020929091908290030181865afa15801561057f573d6000803e3d6000fd5b505050506040513d601f19601f820116820180604052508101906105a3919061221b565b6105ae90600a612322565b601c546105bb90836121cf565b6105c591906121e6565b60155560408051838152602081018390527f86f76a0050decd53ce203c8e8294aa73d2f1f21363a5551d08325fa564f361e6910160405180910390a15050565b600b546001600160a01b031633146106305760405163f3b1b93560e01b815260040160405180910390fd5b610638611305565b610640611403565b610648611426565b60178190556040518181527f1d05456b2ffc08dcb82751ae9e81ca9abf41f6579406fa5f5b9939abbb51cf7f9060200160405180910390a150565b600a546001600160a01b031633146106ae57604051635d9c72eb60e01b815260040160405180910390fd5b6009546001600160a01b03166106d757604051632c7efdd160e21b815260040160405180910390fd5b6106e08261144d565b6106e8611305565b6106f0611495565b6018805461ff001916610100179055600654612710906107119084906121cf565b61071b91906121e6565b81146107395760405162a4671960e71b815260040160405180910390fd5b60408051838152602081018390527f8fb31ceaccebf6ba3c9c15e8959a4b82e39bf26a144aa885ae5e82a1d1b9c16c910160405180910390a160095461078a906001600160a01b03163330856114be565b80156104e457600b546009546104e4916001600160a01b0391821691339116846114be565b6009546001600160a01b03166107d857604051632c7efdd160e21b815260040160405180910390fd5b3360009081526019602090815260409182902082516080810184528154815260019091015460ff80821615159383019390935261010081049092161515928101929092526201000090046001600160a01b03166060820181905261084f57604051638474420160e01b815260040160405180910390fd5b6060810151600954604051631916558760e01b81526001600160a01b039182166004820152911690631916558790602401600060405180830381600087803b15801561089a57600080fd5b505af11580156108ae573d6000803e3d6000fd5b5050505050565b6108bd6114f7565b33600090815260196020526040812054908190036108ee5760405163843ce46b60e01b815260040160405180910390fd5b33600090815260196020526040812081905560138054839290610912908490612208565b9091555050604080518281523360208201527f3807f78213e07f1e91138875c27db2a63adf27577192e6d8617910fb3b755b1391015b60405180910390a1600854610967906001600160a01b03163383611374565b50565b7ff0c57e16840df040f15088dc2f81fe391c3923bec73e23a9662efc9c229c6a008054600160401b810460ff16159067ffffffffffffffff166000811580156109b05750825b905060008267ffffffffffffffff1660011480156109cd5750303b155b9050811580156109db575080155b156109f95760405163f92ee8a960e01b815260040160405180910390fd5b845467ffffffffffffffff191660011785558315610a2357845460ff60401b1916600160401b1785555b8635601a55602080880135601b5560408801356000556060880135600155608088013560025560a088013560035560c088013560045560e0880135600555610100880135600655610120880135600755610140880135601c55610a8890870187611f1a565b600880546001600160a01b0319166001600160a01b0392909216919091179055610ab86040870160208801611f1a565b600980546001600160a01b0319166001600160a01b0392909216919091179055610ae86060870160408801611f1a565b600a80546001600160a01b0319166001600160a01b0392909216919091179055610b186080870160608801611f1a565b600b80546001600160a01b0319166001600160a01b0392909216919091179055610b4860a0870160808801611f1a565b600c80546001600160a01b0319166001600160a01b0392909216919091179055610b7860c0870160a08801611f1a565b600d80546001600160a01b0319166001600160a01b039290921691909117905542601d819055610baa90883590612331565b601e819055610bbe90602089013590612331565b600e819055610bd290604089013590612331565b600f819055610be690606089013590612331565b6010556060870135608088013511610c0357601054601155610c19565b8660800135600f54610c159190612331565b6011555b601154601255610c29878761151a565b8315610c6f57845460ff60401b19168555604051600181527fc7f505b2f371ae2175ee4913f4499e1f2633a7b5936321eed1cdaeb6115181d29060200160405180910390a15b50505050505050565b610c8061170d565b610c88611305565b6009546001600160a01b031615610ca657610ca1611495565b610cae565b610cae611730565b6018805460ff191660011790556040517f0943552b21b3bcfb11bcb560653f2703faf49c76ac2a791e285b130c0117678a90600090a1565b610cee611403565b610cf6611305565b610d0233848484611751565b336000908152601960205260409020600101805461ff0019166101001790558215610db3573360009081526019602052604081208054859290610d46908490612208565b925050819055508260136000828254610d5f9190612208565b9091555050604080518481523360208201527f4a475b512b2940a96ef545685fe93076a8d71b278f57c3206f204dc7e9049acc910160405180910390a1600854610db3906001600160a01b03163385611374565b505050565b610dc06118b8565b610dc8611305565b610dd0611403565b3360009081526019602052604081205490819003610e01576040516316365d5f60e01b815260040160405180910390fd5b33600090815260196020526040812081905560138054839290610e25908490612208565b9091555050604080518281523360208201527f68537ca51c1b2cb464f6b47b5ab5fed672fd221e6745c3784c21d1cf127693b69101610948565b600b546001600160a01b03163314610e8a5760405163f3b1b93560e01b815260040160405180910390fd5b604080516001600160a01b038086168252841660208201529081018290527ff24ef89f38eadc1bde50701ad6e4d6d11a2dc24f7cf834a486991f38833285049060600160405180910390a1610db36001600160a01b0383168483611374565b600a546001600160a01b03163314610f1457604051635d9c72eb60e01b815260040160405180910390fd5b610f1c611730565b610cae611305565b6009546001600160a01b0316610f4d57604051632c7efdd160e21b815260040160405180910390fd5b610f55611329565b610f61338484846118da565b610f69611305565b610f7161170d565b3360009081526019602052604090206001908101805460ff191690911790558215610db3576000610faa33601254600354600454611a0c565b604080518681523360208201526001600160a01b0383168183015290519192507f4a05d5cbbd2a218b1587ca6133e262548c26dc0596c2178e5bac5812b1f9a610919081900360600190a133600090815260196020526040902060010180546001600160a01b03808416620100000262010000600160b01b03199092169190911790915560095461103d91168286611374565b50505050565b61104c81611aa6565b611054611b54565b61105c611b85565b611064611305565b61106d82611ba7565b816013600082825461107f9190612331565b909155505033600090815260196020526040812080548492906110a3908490612331565b9091555050601e546040805184815233602082015242928310818301819052606082019390935290517f42dc9c05c6880bfa823f19361e04c707f8c5a03bb7197ba9d9737f5a5624d7dc9181900360800190a1600854610db3906001600160a01b03163330866114be565b61116b60405180610160016040528060008152602001600081526020016000815260200160008152602001600081526020016000815260200160008152602001600081526020016000815260200160008152602001600081525090565b604051806101600160405280601a548152602001601b5481526020016000548152602001600154815260200160025481526020016003548152602001600454815260200160055481526020016006548152602001601c548152602001600754815250905090565b61124e604051806101c001604052806000815260200160008152602001600081526020016000815260200160008152602001600081526020016000815260200160008152602001600081526020016000815260200160008019168152602001600080191681526020016000151581526020016000151581525090565b50604080516101c081018252601d548152601e546020820152600e5491810191909152600f546060820152601054608082015260115460a082015260125460c082015260135460e08201526014546101008083019190915260155461012083015260165461014083015260175461016083015260185460ff80821615156101808501529190041615156101a082015290565b60105442101561130357604051630aabc7c160e11b815260040160405180910390fd5b565b60185460ff161561130357604051638019358960e01b815260040160405180910390fd5b60145460000361130357604051630efd8e0d60e21b815260040160405180910390fd5b601854610100900460ff1661130357604051630479472b60e51b815260040160405180910390fd5b6040516001600160a01b03838116602483015260448201839052610db391859182169063a9059cbb906064015b604051602081830303815290604052915060e01b6020820180516001600160e01b038381831617835250505050611bcd565b6014541561130357601454604051632d459d4360e01b81526004016113fa91815260200190565b60405180910390fd5b600f54421015611303576040516313365f7760e01b815260040160405180910390fd5b6017541561130357601754604051630ce9692f60e41b81526004016113fa91815260200190565b601454600003611470576040516324f7856360e01b815260040160405180910390fd5b60145481146109675760405163fda813a360e01b8152600481018290526024016113fa565b601854610100900460ff1615611303576040516323e6655160e11b815260040160405180910390fd5b6040516001600160a01b03848116602483015283811660448301526064820183905261103d9186918216906323b872dd906084016113a1565b60185460ff1661130357604051639903ed3760e01b815260040160405180910390fd5b60006115296020830183611f1a565b6001600160a01b031614806115565750600061154b6060830160408401611f1a565b6001600160a01b0316145b806115795750600061156e6080830160608401611f1a565b6001600160a01b0316145b8061159c5750600061159160a0830160808401611f1a565b6001600160a01b0316145b806115bf575060006115b460c0830160a08401611f1a565b6001600160a01b0316145b156115dd57604051638474420160e01b815260040160405180910390fd5b813515806115ed57506020820135155b806115fa57506040820135155b8061160757506060820135155b8061161457506080820135155b806116225750610140820135155b156116405760405163ad3e811360e01b815260040160405180910390fd5b6276a700823511806116585750621275008260200135115b8061166957506276a7008260400135115b8061167a5750621275008260600135115b8061168b575062f0c8a08260800135115b156116a957604051630373c09360e51b815260040160405180910390fd5b610e10823510806116bf5750610e108260200135105b806116cf5750610e108260400135105b806116df5750610e108260600135105b806116ef5750610e108260800135105b156104e457604051630373c09360e51b815260040160405180910390fd5b60115442101561130357604051631a7fddef60e01b815260040160405180910390fd5b6014541561130357604051630a1bb29160e01b815260040160405180910390fd5b604080516001600160a01b038616602082015290810184905260009060600160408051601f198184030181528282528051602091820120908301520160408051601f1981840301815282825280516020918201206001600160a01b03808a16600090815260198452849020608086018552805486526001015460ff8082161515878601526101008204161515868601526201000090041660608501528251868302818101840190945286815290945061182d92909187918791829190850190849080828437600092019190915250506017549150859050611c3e565b61185557604051638b68cb5760e01b81526001600160a01b03871660048201526024016113fa565b80604001511561188357604051633b8936cf60e11b81526001600160a01b03871660048201526024016113fa565b80516000036118b05760405163f224fc4960e01b81526001600160a01b03871660048201526024016113fa565b505050505050565b601054421061130357604051632a65994560e21b815260040160405180910390fd5b604080516001600160a01b038616602082015290810184905260009060600160408051601f198184030181528282528051602091820120908301520160408051601f1981840301815282825280516020918201206001600160a01b03808a16600090815260198452849020608086018552805486526001015460ff808216151587860152610100820416151586860152620100009004166060850152825186830281810184019094528681529094506119b692909187918791829190850190849080828437600092019190915250506016549150859050611c3e565b6119de576040516375774fbf60e11b81526001600160a01b03871660048201526024016113fa565b80602001511561188357604051634f051ead60e11b81526001600160a01b03871660048201526024016113fa565b600d54604051636ddc243d60e01b81526001600160a01b03868116600483015267ffffffffffffffff80871660248401528086166044840152841660648301526000921690636ddc243d906084016020604051808303816000875af1158015611a79573d6000803e3d6000fd5b505050506040513d601f19601f82011682018060405250810190611a9d9190612344565b95945050505050565b6040516bffffffffffffffffffffffff193360601b166020820152600090611b1490603401604051602081830303815290604052805190602001207f19457468657265756d205369676e6564204d6573736167653a0a3332000000006000908152601c91909152603c902090565b600c549091506001600160a01b0316611b2d8284611c54565b6001600160a01b0316146104e457604051638baa579f60e01b815260040160405180910390fd5b601e544210158015611b675750600e5442105b156113035760405163043f49dd60e11b815260040160405180910390fd5b600f54421061130357604051634298ddab60e11b815260040160405180910390fd5b600754811015610967576040516328c3d6d560e01b8152600481018290526024016113fa565b600080602060008451602086016000885af180611bf0576040513d6000823e3d81fd5b50506000513d91508115611c08578060011415611c15565b6001600160a01b0384163b155b1561103d57604051635274afe760e01b81526001600160a01b03851660048201526024016113fa565b600082611c4b8584611c80565b14949350505050565b600080600080611c648686611cc3565b925092509250611c748282611d10565b50909150505b92915050565b600081815b8451811015611cbb57611cb182868381518110611ca457611ca4612361565b6020026020010151611dc9565b9150600101611c85565b509392505050565b60008060008351604103611cfd5760208401516040850151606086015160001a611cef88828585611dfb565b955095509550505050611d09565b50508151600091506002905b9250925092565b6000826003811115611d2457611d24612377565b03611d2d575050565b6001826003811115611d4157611d41612377565b03611d5f5760405163f645eedf60e01b815260040160405180910390fd5b6002826003811115611d7357611d73612377565b03611d945760405163fce698f760e01b8152600481018290526024016113fa565b6003826003811115611da857611da8612377565b036104e4576040516335e2f38360e21b8152600481018290526024016113fa565b6000818310611de5576000828152602084905260409020611df4565b60008381526020839052604090205b9392505050565b600080807f7fffffffffffffffffffffffffffffff5d576e7357a4501ddfe92f46681b20a0841115611e365750600091506003905082611ec0565b604080516000808252602082018084528a905260ff891692820192909252606081018790526080810186905260019060a0016020604051602081039080840390855afa158015611e8a573d6000803e3d6000fd5b5050604051601f1901519150506001600160a01b038116611eb657506000925060019150829050611ec0565b9250600091508190505b9450945094915050565b60008060408385031215611edd57600080fd5b50508035926020909101359150565b600060208284031215611efe57600080fd5b5035919050565b6001600160a01b038116811461096757600080fd5b600060208284031215611f2c57600080fd5b8135611df481611f05565b600080828403610220811215611f4c57600080fd5b61016080821215611f5c57600080fd5b84935060c061015f1983011215611f7257600080fd5b92959390920193505050565b600080600060408486031215611f9357600080fd5b83359250602084013567ffffffffffffffff80821115611fb257600080fd5b818601915086601f830112611fc657600080fd5b813581811115611fd557600080fd5b8760208260051b8501011115611fea57600080fd5b6020830194508093505050509250925092565b60008060006060848603121561201257600080fd5b833561201d81611f05565b9250602084013561202d81611f05565b929592945050506040919091013590565b634e487b7160e01b600052604160045260246000fd5b6000806040838503121561206757600080fd5b82359150602083013567ffffffffffffffff8082111561208657600080fd5b818501915085601f83011261209a57600080fd5b8135818111156120ac576120ac61203e565b604051601f8201601f19908116603f011681019083821181831017156120d4576120d461203e565b816040528281528860208487010111156120ed57600080fd5b8260208601602083013760006020848301015280955050505050509250929050565b60006101c082019050825182526020830151602083015260408301516040830152606083015160608301526080830151608083015260a083015160a083015260c083015160c083015260e083015160e0830152610100808401518184015250610120808401518184015250610140808401518184015250610160808401518184015250610180808401516121a68285018215159052565b50506101a0928301511515919092015290565b634e487b7160e01b600052601160045260246000fd5b8082028115828204841417611c7a57611c7a6121b9565b60008261220357634e487b7160e01b600052601260045260246000fd5b500490565b81810381811115611c7a57611c7a6121b9565b60006020828403121561222d57600080fd5b815160ff81168114611df457600080fd5b600181815b8085111561227957816000190482111561225f5761225f6121b9565b8085161561226c57918102915b93841c9390800290612243565b509250929050565b60008261229057506001611c7a565b8161229d57506000611c7a565b81600181146122b357600281146122bd576122d9565b6001915050611c7a565b60ff8411156122ce576122ce6121b9565b50506001821b611c7a565b5060208310610133831016604e8410600b84101617156122fc575081810a611c7a565b612306838361223e565b806000190482111561231a5761231a6121b9565b029392505050565b6000611df460ff841683612281565b80820180821115611c7a57611c7a6121b9565b60006020828403121561235657600080fd5b8151611df481611f05565b634e487b7160e01b600052603260045260246000fd5b634e487b7160e01b600052602160045260246000fdfea2646970667358221220093a4d4437620f0291a98a693427688c6bab44e1b2e2949b7fade23b729d8db064736f6c63430008190033","linkReferences":{}},"methodIdentifiers":{"createFixedPriceSale((uint256,uint256,uint256,uint256,uint256,uint256,uint256,uint256,uint256,uint256,uint256),(address,address,address,address,address,address))":"28376939","fixedPriceSaleTemplate()":"8be135a7","owner()":"8da5cb5b","renounceOwnership()":"715018a6","totalInstances()":"8412e7cc","transferOwnership(address)":"f2fde38b"},"id":57}