{"abi":[{"type":"function","name":"FIELD_MODULUS","inputs":[],"outputs":[{"name":"","type":"uint256","internalType":"uint256"}],"stateMutability":"view"},{"type":"function","name":"GROUP_ORDER","inputs":[],"outputs":[{"name":"","type":"uint256","internalType":"uint256"}],"stateMutability":"view"},{"type":"function","name":"calcPubKey","inputs":[{"name":"generator_","type":"tuple","internalType":"struct Point","components":[{"name":"x","type":"uint256","internalType":"uint256"},{"name":"y","type":"uint256","internalType":"uint256"}]},{"name":"privateKey_","type":"uint256","internalType":"uint256"}],"outputs":[{"name":"","type":"tuple","internalType":"struct Point","components":[{"name":"x","type":"uint256","internalType":"uint256"},{"name":"y","type":"uint256","internalType":"uint256"}]}],"stateMutability":"view"},{"type":"function","name":"decrypt","inputs":[{"name":"ciphertext_","type":"uint256","internalType":"uint256"},{"name":"ciphertextPubKey_","type":"tuple","internalType":"struct Point","components":[{"name":"x","type":"uint256","internalType":"uint256"},{"name":"y","type":"uint256","internalType":"uint256"}]},{"name":"privateKey_","type":"uint256","internalType":"uint256"},{"name":"salt_","type":"uint256","internalType":"uint256"}],"outputs":[{"name":"message_","type":"uint256","internalType":"uint256"}],"stateMutability":"view"},{"type":"function","name":"deriveSymmetricKey","inputs":[{"name":"sharedSecret_","type":"uint256","internalType":"uint256"},{"name":"s1_","type":"uint256","internalType":"uint256"}],"outputs":[{"name":"","type":"uint256","internalType":"uint256"}],"stateMutability":"pure"},{"type":"function","name":"encrypt","inputs":[{"name":"message_","type":"uint256","internalType":"uint256"},{"name":"recipientPubKey_","type":"tuple","internalType":"struct Point","components":[{"name":"x","type":"uint256","internalType":"uint256"},{"name":"y","type":"uint256","internalType":"uint256"}]},{"name":"privateKey_","type":"uint256","internalType":"uint256"},{"name":"salt_","type":"uint256","internalType":"uint256"}],"outputs":[{"name":"ciphertext_","type":"uint256","internalType":"uint256"},{"name":"messagePubKey_","type":"tuple","internalType":"struct Point","components":[{"name":"x","type":"uint256","internalType":"uint256"},{"name":"y","type":"uint256","internalType":"uint256"}]}],"stateMutability":"view"},{"type":"function","name":"isOnBn128","inputs":[{"name":"p","type":"tuple","internalType":"struct Point","components":[{"name":"x","type":"uint256","internalType":"uint256"},{"name":"y","type":"uint256","internalType":"uint256"}]}],"outputs":[{"name":"","type":"bool","internalType":"bool"}],"stateMutability":"pure"},{"type":"function","name":"isValid","inputs":[{"name":"p","type":"tuple","internalType":"struct Point","components":[{"name":"x","type":"uint256","internalType":"uint256"},{"name":"y","type":"uint256","internalType":"uint256"}]}],"outputs":[{"name":"","type":"bool","internalType":"bool"}],"stateMutability":"pure"},{"type":"function","name":"recoverSharedSecret","inputs":[{"name":"ciphertextPubKey_","type":"tuple","internalType":"struct Point","components":[{"name":"x","type":"uint256","internalType":"uint256"},{"name":"y","type":"uint256","internalType":"uint256"}]},{"name":"privateKey_","type":"uint256","internalType":"uint256"}],"outputs":[{"name":"","type":"uint256","internalType":"uint256"}],"stateMutability":"view"}],"bytecode":{"object":"0x6107fc610039600b82828239805160001a607314602c57634e487b7160e01b600052600060045260246000fd5b30600052607381538281f3fe730000000000000000000000000000000000000000301460806040526004361061009d5760003560e01c80638e692fa1116100705780638e692fa1146101155780639c1ebe591461013c578063afd238ac1461015d578063ecfcc5011461017d578063f4bca8b2146101a057600080fd5b80633a89a523146100a25780633aa98bd7146100c85780634f76a98e146100db5780635d5a714214610102575b600080fd5b6100b56100b036600461068b565b6101b3565b6040519081526020015b60405180910390f35b6100b56100d63660046106c7565b6101dc565b6100b57f30644e72e131a029b85045b68181585d97816a916871ca8d3c208c16d87cfd4781565b6100b56101103660046106e9565b61020b565b6100b57f30644e72e131a029b85045b68181585d2833e84879b9709143e1f593f000000181565b61014f61014a36600461068b565b6102e3565b6040516100bf929190610714565b61017061016b3660046106e9565b61034f565b6040516100bf9190610732565b61019061018b366004610749565b61043a565b60405190151581526020016100bf565b6101906101ae366004610749565b610473565b6000806101c0858561020b565b905060006101ce82856101dc565b969096189695505050505050565b604080516020808201859052818301849052825180830384018152606090920190925280519101205b92915050565b60006102168361043a565b61025d5760405162461bcd60e51b815260206004820152601360248201527224b73b30b634b210383ab13634b19035b2bc9760691b60448201526064015b60405180910390fd5b7f30644e72e131a029b85045b68181585d2833e84879b9709143e1f593f00000018210158061028a575081155b156102ce5760405162461bcd60e51b815260206004820152601460248201527324b73b30b634b210383934bb30ba329035b2bc9760611b6044820152606401610254565b60006102da84846104bb565b51949350505050565b6000610302604051806040016040528060008152602001600081525090565b61032260405180604001604052806001815260200160028152508561034f565b90506000610330868661020b565b9050600061033e82866101dc565b979097189791965090945050505050565b604080518082019091526000808252602082015261036c8361043a565b6103b85760405162461bcd60e51b815260206004820152601860248201527f496e76616c69642067656e657261746f7220706f696e742e00000000000000006044820152606401610254565b7f30644e72e131a029b85045b68181585d2833e84879b9709143e1f593f0000001821015806103e5575081155b156104295760405162461bcd60e51b815260206004820152601460248201527324b73b30b634b210383934bb30ba329035b2bc9760611b6044820152606401610254565b61043383836104bb565b9392505050565b805160009061045d906104569061045181806105ca565b6105ca565b60036105f7565b602083015161046c90806105ca565b1492915050565b600061047e8261043a565b801561049c57508151600114801561049a575081602001516002145b155b8015610205575081511580156104b457506020820151155b1592915050565b6040805180820190915260008082526020820152825160208085015160405160009384936007936117709361050493928a91019283526020830191909152604082015260600190565b60408051601f198184030181529082905261051e91610765565b6000604051808303818686fa925050503d806000811461055a576040519150601f19603f3d011682016040523d82523d6000602084013e61055f565b606091505b509150915081158061057057508051155b156105ad5760405162461bcd60e51b815260206004820152600d60248201526c32b1a6bab6103330b4b632b21760991b6044820152606401610254565b808060200190518101906105c19190610794565b95945050505050565b60007f30644e72e131a029b85045b68181585d97816a916871ca8d3c208c16d87cfd478284099392505050565b60007f30644e72e131a029b85045b68181585d97816a916871ca8d3c208c16d87cfd478284089392505050565b6040805190810167ffffffffffffffff8111828210171561065557634e487b7160e01b600052604160045260246000fd5b60405290565b60006040828403121561066d57600080fd5b610675610624565b9050813581526020820135602082015292915050565b60008060008060a085870312156106a157600080fd5b843593506106b2866020870161065b565b93969395505050506060820135916080013590565b600080604083850312156106da57600080fd5b50508035926020909101359150565b600080606083850312156106fc57600080fd5b610706848461065b565b946040939093013593505050565b82815260608101610433602083018480518252602090810151910152565b815181526020808301519082015260408101610205565b60006040828403121561075b57600080fd5b610433838361065b565b6000825160005b81811015610786576020818601810151858301520161076c565b506000920191825250919050565b6000604082840312156107a657600080fd5b6107ae610624565b8251815260208301516020820152809150509291505056fea26469706673582212209b362313902f0449abb5dfc9b88f803b1598c6f9dfa46f74d8f49dabbcf8449964736f6c63430008190033","linkReferences":{}},"methodIdentifiers":{"FIELD_MODULUS()":"4f76a98e","GROUP_ORDER()":"8e692fa1","calcPubKey(Point,uint256)":"afd238ac","decrypt(uint256,Point,uint256,uint256)":"3a89a523","deriveSymmetricKey(uint256,uint256)":"3aa98bd7","encrypt(uint256,Point,uint256,uint256)":"9c1ebe59","isOnBn128(Point)":"ecfcc501","isValid(Point)":"f4bca8b2","recoverSharedSecret(Point,uint256)":"5d5a7142"},"id":71}