{"abi":[{"type":"constructor","inputs":[{"name":"newOwner","type":"address","internalType":"address"}],"stateMutability":"nonpayable"},{"type":"function","name":"createPreLiquidSale","inputs":[{"name":"preLiquidSaleConfig","type":"tuple","internalType":"struct ILegionPreLiquidSale.PreLiquidSaleConfig","components":[{"name":"refundPeriodSeconds","type":"uint256","internalType":"uint256"},{"name":"vestingDurationSeconds","type":"uint256","internalType":"uint256"},{"name":"vestingCliffDurationSeconds","type":"uint256","internalType":"uint256"},{"name":"tokenAllocationOnTGEBps","type":"uint256","internalType":"uint256"},{"name":"legionFeeOnCapitalRaisedBps","type":"uint256","internalType":"uint256"},{"name":"legionFeeOnTokensSoldBps","type":"uint256","internalType":"uint256"},{"name":"saftMerkleRoot","type":"bytes32","internalType":"bytes32"},{"name":"bidToken","type":"address","internalType":"address"},{"name":"projectAdmin","type":"address","internalType":"address"},{"name":"legionAdmin","type":"address","internalType":"address"},{"name":"vestingFactory","type":"address","internalType":"address"}]}],"outputs":[{"name":"preLiquidSaleInstance","type":"address","internalType":"address payable"}],"stateMutability":"nonpayable"},{"type":"function","name":"owner","inputs":[],"outputs":[{"name":"","type":"address","internalType":"address"}],"stateMutability":"view"},{"type":"function","name":"preLiquidSaleTemplate","inputs":[],"outputs":[{"name":"","type":"address","internalType":"address"}],"stateMutability":"view"},{"type":"function","name":"renounceOwnership","inputs":[],"outputs":[],"stateMutability":"nonpayable"},{"type":"function","name":"totalInstances","inputs":[],"outputs":[{"name":"","type":"uint256","internalType":"uint256"}],"stateMutability":"view"},{"type":"function","name":"transferOwnership","inputs":[{"name":"newOwner","type":"address","internalType":"address"}],"outputs":[],"stateMutability":"nonpayable"},{"type":"event","name":"NewPreLiquidSaleCreated","inputs":[{"name":"saleInstance","type":"address","indexed":false,"internalType":"address"},{"name":"preLiquidSaleConfig","type":"tuple","indexed":false,"internalType":"struct ILegionPreLiquidSale.PreLiquidSaleConfig","components":[{"name":"refundPeriodSeconds","type":"uint256","internalType":"uint256"},{"name":"vestingDurationSeconds","type":"uint256","internalType":"uint256"},{"name":"vestingCliffDurationSeconds","type":"uint256","internalType":"uint256"},{"name":"tokenAllocationOnTGEBps","type":"uint256","internalType":"uint256"},{"name":"legionFeeOnCapitalRaisedBps","type":"uint256","internalType":"uint256"},{"name":"legionFeeOnTokensSoldBps","type":"uint256","internalType":"uint256"},{"name":"saftMerkleRoot","type":"bytes32","internalType":"bytes32"},{"name":"bidToken","type":"address","internalType":"address"},{"name":"projectAdmin","type":"address","internalType":"address"},{"name":"legionAdmin","type":"address","internalType":"address"},{"name":"vestingFactory","type":"address","internalType":"address"}]}],"anonymous":false},{"type":"event","name":"OwnershipTransferred","inputs":[{"name":"previousOwner","type":"address","indexed":true,"internalType":"address"},{"name":"newOwner","type":"address","indexed":true,"internalType":"address"}],"anonymous":false},{"type":"error","name":"FailedDeployment","inputs":[]},{"type":"error","name":"InsufficientBalance","inputs":[{"name":"balance","type":"uint256","internalType":"uint256"},{"name":"needed","type":"uint256","internalType":"uint256"}]},{"type":"error","name":"OwnableInvalidOwner","inputs":[{"name":"owner","type":"address","internalType":"address"}]},{"type":"error","name":"OwnableUnauthorizedAccount","inputs":[{"name":"account","type":"address","internalType":"address"}]}],"bytecode":{"object":"0x60a0604052604051610010906100f3565b604051809103906000f08015801561002c573d6000803e3d6000fd5b506001600160a01b031660805234801561004557600080fd5b506040516127a93803806127a983398101604081905261006491610100565b806001600160a01b03811661009357604051631e4fbdf760e01b81526000600482015260240160405180910390fd5b61009c816100a3565b5050610130565b600080546001600160a01b038381166001600160a01b0319831681178455604051919092169283917f8be0079c531659141344cd1fd0a4f28419497f9722a3daafe3b4186f6b6457e09190a35050565b61215a8061064f83390190565b60006020828403121561011257600080fd5b81516001600160a01b038116811461012957600080fd5b9392505050565b6080516104fe6101516000396000818160ce015261014101526104fe6000f3fe608060405234801561001057600080fd5b50600436106100625760003560e01c8063715018a6146100675780638412e7cc1461007157806385416bac1461008d5780638da5cb5b146100b857806392be66a4146100c9578063f2fde38b146100f0575b600080fd5b61006f610103565b005b61007a60015481565b6040519081526020015b60405180910390f35b6100a061009b36600461036d565b610117565b6040516001600160a01b039091168152602001610084565b6000546001600160a01b03166100a0565b6100a07f000000000000000000000000000000000000000000000000000000000000000081565b61006f6100fe3660046103a2565b610204565b61010b610247565b6101156000610274565b565b6000610121610247565b600160008154610130906103c4565b909155506101666001600160a01b037f0000000000000000000000000000000000000000000000000000000000000000166102c4565b90507f6dbfb85b35dbe734ceeb3089cc34b84f3d6c198a099e153abb3339438e22e0dd818360405161019992919061049b565b60405180910390a1604051634d04ea5b60e01b81526001600160a01b03821690634d04ea5b906101cd9085906004016104b9565b600060405180830381600087803b1580156101e757600080fd5b505af11580156101fb573d6000803e3d6000fd5b50505050919050565b61020c610247565b6001600160a01b03811661023b57604051631e4fbdf760e01b8152600060048201526024015b60405180910390fd5b61024481610274565b50565b6000546001600160a01b031633146101155760405163118cdaa760e01b8152336004820152602401610232565b600080546001600160a01b038381166001600160a01b0319831681178455604051919092169283917f8be0079c531659141344cd1fd0a4f28419497f9722a3daafe3b4186f6b6457e09190a35050565b60006102d18260006102d7565b92915050565b6000814710156103035760405163cf47918160e01b815247600482015260248101839052604401610232565b763d602d80600a3d3981f3363d3d373d3d3d363d730000008360601b60e81c176000526e5af43d82803e903d91602b57fd5bf38360781b176020526037600983f090506001600160a01b0381166102d15760405163b06ebf3d60e01b815260040160405180910390fd5b6000610160828403121561038057600080fd5b50919050565b80356001600160a01b038116811461039d57600080fd5b919050565b6000602082840312156103b457600080fd5b6103bd82610386565b9392505050565b6000600182016103e457634e487b7160e01b600052601160045260246000fd5b5060010190565b803582526020810135602083015260408101356040830152606081013560608301526080810135608083015260a081013560a083015260c081013560c083015261043760e08201610386565b6001600160a01b031660e0830152610100610453828201610386565b6001600160a01b03169083015261012061046e828201610386565b6001600160a01b031690830152610140610489828201610386565b6001600160a01b031692019190915250565b6001600160a01b038316815261018081016103bd60208301846103eb565b61016081016102d182846103eb56fea26469706673582212203fda20f51befc057139c9ce451d8f9757932f5bc3b06cc327595b4076f8e44fb64736f6c634300081900336080604052348015600f57600080fd5b506016601a565b60ca565b7ff0c57e16840df040f15088dc2f81fe391c3923bec73e23a9662efc9c229c6a00805468010000000000000000900460ff161560695760405163f92ee8a960e01b815260040160405180910390fd5b80546001600160401b039081161460c75780546001600160401b0319166001600160401b0390811782556040519081527fc7f505b2f371ae2175ee4913f4499e1f2633a7b5936321eed1cdaeb6115181d29060200160405180910390a15b50565b612081806100d96000396000f3fe608060405234801561001057600080fd5b506004361061010b5760003560e01c8063a96f8668116100a2578063c684e70a11610071578063c684e70a1461033d578063e63ea40814610350578063e7e1049014610363578063f37bfe741461036b578063f9020e331461037e57600080fd5b8063a96f866814610307578063b19164d01461030f578063c366eff814610322578063c5e9339f1461032a57600080fd5b806356f55bab116100de57806356f55bab146101f4578063590e1ae3146101fc578063689513a01461020457806390aa0b0f1461022557600080fd5b80634d04ea5b146101105780634e474163146101255780634e9148a6146101385780635111e9861461014b575b600080fd5b61012361011e366004611ca1565b6103ef565b005b610123610133366004611d06565b6105fb565b610123610146366004611d85565b610708565b6101a9610159366004611dc0565b6012602052600090815260409020805460018201546002830154600384015460048501546005860154600690960154949593949293919290919060ff81169061010090046001600160a01b031688565b604080519889526020890197909752958701949094526060860192909252608085015260a0840152151560c08301526001600160a01b031660e0820152610100015b60405180910390f35b6101236107b3565b610123610900565b610217610212366004611ddd565b6109b3565b6040519081526020016101eb565b6102fa6040805161016081018252600080825260208201819052918101829052606081018290526080810182905260a0810182905260c0810182905260e081018290526101008101829052610120810182905261014081019190915250604080516101608101825260005481526001546020820152600254918101919091526003546060820152600454608082015260055460a082015260065460c08201526007546001600160a01b0390811660e083015260085481166101008301526009548116610120830152600a541661014082015290565b6040516101eb9190611e1f565b610123610b92565b61012361031d366004611d06565b610c85565b610123610d75565b610123610338366004611ebc565b610e29565b61012361034b366004611ed5565b610e9f565b61012361035e366004611ef7565b610f99565b610123611028565b610123610379366004611f38565b6110b7565b61038661114f565b6040516101eb919081516001600160a01b031681526020808301519082015260408083015190820152606080830151908201526080808301519082015260a0828101519082015260c08083015115159082015260e0918201511515918101919091526101000190565b7ff0c57e16840df040f15088dc2f81fe391c3923bec73e23a9662efc9c229c6a008054600160401b810460ff16159067ffffffffffffffff166000811580156104355750825b905060008267ffffffffffffffff1660011480156104525750303b155b905081158015610460575080155b1561047e5760405163f92ee8a960e01b815260040160405180910390fd5b845467ffffffffffffffff1916600117855583156104a857845460ff60401b1916600160401b1785555b8535600055602086013560015560408601356002556060860135600355608086013560045560a086013560055560c08601356006556104ee610100870160e08801611dc0565b600780546001600160a01b0319166001600160a01b039290921691909117905561052061012087016101008801611dc0565b600880546001600160a01b0319166001600160a01b039290921691909117905561055261014087016101208801611dc0565b600980546001600160a01b0319166001600160a01b039290921691909117905561058461016087016101408801611dc0565b600a80546001600160a01b0319166001600160a01b03929092169190911790556105ad86611208565b83156105f357845460ff60401b19168555604051600181527fc7f505b2f371ae2175ee4913f4499e1f2633a7b5936321eed1cdaeb6115181d29060200160405180910390a15b505050505050565b610603611305565b336000908152601260205260408120600e805491928992610625908490611f7a565b909155505080548790829060009061063e908490611f7a565b90915550506002810154600003610656574260028201555b8581600301541461066957600381018690555b8481600401541461067c57600481018590555b8381600501541461068f57600581018490555b61069a33848461132b565b60408051888152336020820152908101869052606081018590524260808201527f1a67a76a9e304ee20506c8fcce419857970b8af84bc88f250510f3042caad1d69060a00160405180910390a16007546106ff906001600160a01b031633308a611492565b50505050505050565b6009546001600160a01b031633146107335760405163f3b1b93560e01b815260040160405180910390fd5b61073b611305565b61074584846114ff565b600b80546001600160a01b0319166001600160a01b038616179055600d839055600c829055600f8190556040517f0d1e7d410b8c1f5458a5aed9b93922c886b6cba9e90562aefd5eebd46fb00c5d906107a5908690869086908690611f8d565b60405180910390a150505050565b6107bb611305565b6107c433611581565b3360009081526012602052604081206004810154600d54919291612710916107eb91611fb3565b6107f59190611fca565b905060006127106003548361080a9190611fb3565b6108149190611fca565b905060006108228284611fec565b9050600061083833600c54600154600254611675565b60068601805460ff196001600160a01b03841661010002166001600160a81b03199091161760011790556040519091507ff923792c0048215a0ec9c4a916271549f6ef7be7caddd9438ea7edfef2e6e38a906108bd90849086903390869093845260208401929092526001600160a01b03908116604084015216606082015260800190565b60405180910390a1600b546108dc906001600160a01b0316828461170f565b82156108f957600b546108f9906001600160a01b0316338561170f565b5050505050565b610908611305565b61091133611740565b33600090815260126020526040812080549091819003610944576040516316365d5f60e01b815260040160405180910390fd5b6000808355600e805483929061095b908490611fec565b9091555050604080518281523360208201527f68537ca51c1b2cb464f6b47b5ab5fed672fd221e6745c3784c21d1cf127693b6910160405180910390a16007546109af906001600160a01b0316338361170f565b5050565b6008546000906001600160a01b031633146109e157604051635d9c72eb60e01b815260040160405180910390fd5b6109e9611305565b60005b82811015610ad557610a23848483818110610a0957610a09611fff565b9050602002016020810190610a1e9190611dc0565b6117ea565b610a52848483818110610a3857610a38611fff565b9050602002016020810190610a4d9190611dc0565b611893565b600060126000868685818110610a6a57610a6a611fff565b9050602002016020810190610a7f9190611dc0565b6001600160a01b03166001600160a01b0316815260200190815260200160002090508060000154816001016000828254610ab99190611f7a565b90915550508054610aca9084611f7a565b9250506001016109ec565b508060106000828254610ae89190611f7a565b92505081905550600061271082600454610b029190611fb3565b610b0c9190611fca565b90507f3ae35a082057a5be9e6d5f35595c7af95c80661ebf74fdbb3790f6ef55c75e4f82604051610b3f91815260200190565b60405180910390a1610b6833610b558385611fec565b6007546001600160a01b0316919061170f565b8015610b8b57600954600754610b8b916001600160a01b0391821691168361170f565b5092915050565b3360009081526012602090815260409182902082516101008082018552825482526001830154938201939093526002820154938101939093526003810154606084015260048101546080840152600581015460a08401526006015460ff8116151560c0840152046001600160a01b031660e08201819052610c2657604051638474420160e01b815260040160405180910390fd5b60e0810151600b54604051631916558760e01b81526001600160a01b039182166004820152911690631916558790602401600060405180830381600087803b158015610c7157600080fd5b505af11580156108f9573d6000803e3d6000fd5b610c8d611305565b336000908152601260205260408120600e805491928992610caf908490611fec565b9091555050805487908290600090610cc8908490611fec565b909155505060038101548614610ce057600381018690555b84816004015414610cf357600481018590555b83816005015414610d0657600581018490555b610d1133848461196b565b60408051888152336020820152908101869052606081018590524260808201527fd84decea969f0c829ea42947cd8c6f90667f2eb8458cf4a499c0f1d4983950439060a00160405180910390a16007546106ff906001600160a01b0316338961170f565b610d7d611acd565b3360009081526012602052604081205490819003610dae5760405163843ce46b60e01b815260040160405180910390fd5b336000908152601260205260408120819055600e8054839290610dd2908490611fec565b9091555050604080518281523360208201527f3807f78213e07f1e91138875c27db2a63adf27577192e6d8617910fb3b755b13910160405180910390a1600754610e26906001600160a01b0316338361170f565b50565b6008546001600160a01b03163314610e5457604051635d9c72eb60e01b815260040160405180910390fd5b610e5c611305565b610e64611af0565b60068190556040518181527fac6ccaebceb7db9d2c79237384a321e39219912d1cbb6a95c09ae874c6ca4a8d9060200160405180910390a150565b6008546001600160a01b03163314610eca57604051635d9c72eb60e01b815260040160405180910390fd5b610ed2611305565b610edb82611b11565b61271082600554610eec9190611fb3565b610ef69190611fca565b8114610f145760405162a4671960e71b815260040160405180910390fd5b6011805461ff00191661010017905560408051838152602081018390527f8fb31ceaccebf6ba3c9c15e8959a4b82e39bf26a144aa885ae5e82a1d1b9c16c910160405180910390a1600b54610f74906001600160a01b0316333085611492565b80156109af57600954600b546109af916001600160a01b039182169133911684611492565b6009546001600160a01b03163314610fc45760405163f3b1b93560e01b815260040160405180910390fd5b604080516001600160a01b038086168252841660208201529081018290527ff24ef89f38eadc1bde50701ad6e4d6d11a2dc24f7cf834a486991f38833285049060600160405180910390a16110236001600160a01b038316848361170f565b505050565b6008546001600160a01b0316331461105357604051635d9c72eb60e01b815260040160405180910390fd5b61105b611305565b6010546011805460ff191660011790556040517f0943552b21b3bcfb11bcb560653f2703faf49c76ac2a791e285b130c0117678a90600090a18015610e26576000601055600754610e26906001600160a01b0316333084611492565b6008546001600160a01b031633146110e257604051635d9c72eb60e01b815260040160405180910390fd5b6110ea611305565b6110f2611af0565b6110fa611b82565b60018390556002829055600381905560408051848152602081018490529081018290527f58e28d925e2c26857c5c2ca9745e16c543063e7a0cfe5eb61045cce9a465466b9060600160405180910390a1505050565b6111a460405180610100016040528060006001600160a01b0316815260200160008152602001600081526020016000815260200160008152602001600081526020016000151581526020016000151581525090565b50604080516101008082018352600b546001600160a01b03168252600c546020830152600d5492820192909252600e546060820152600f54608082015260105460a082015260115460ff808216151560c0840152929004909116151560e082015290565b600061121b610100830160e08401611dc0565b6001600160a01b0316148061124a5750600061123f61012083016101008401611dc0565b6001600160a01b0316145b8061126f5750600061126461014083016101208401611dc0565b6001600160a01b0316145b806112945750600061128961016083016101408401611dc0565b6001600160a01b0316145b156112b257604051638474420160e01b815260040160405180910390fd5b803515806112c2575060c0810135155b156112e05760405163ad3e811360e01b815260040160405180910390fd5b6212750081351115610e2657604051630373c09360e51b815260040160405180910390fd5b60115460ff161561132957604051638019358960e01b815260040160405180910390fd5b565b6001600160a01b0380841660009081526012602090815260408083208151610100808201845282548252600183015482860152600283015482850152600383015460608301819052600484015460808401819052600585015460a0850181905260069095015460ff8116151560c08601529290920490971660e0830152925190956113bc948a949193919201611f8d565b60408051601f19818403018152828252805160209182012090830152016040516020818303038152906040528051906020012090508160600151826000015114611429576040516370d2e4b760e11b81526001600160a01b03861660048201526024015b60405180910390fd5b61146a848480806020026020016040519081016040528093929190818152602001838360200280828437600092019190915250506006549150849050611ba3565b6108f9576040516370d2e4b760e11b81526001600160a01b0386166004820152602401611420565b6040516001600160a01b0384811660248301528381166044830152606482018390526114f99186918216906323b872dd906084015b604051602081830303815290604052915060e01b6020820180516001600160e01b038381831617835250505050611bb9565b50505050565b816001600160a01b03166318160ddd6040518163ffffffff1660e01b8152600401602060405180830381865afa15801561153d573d6000803e3d6000fd5b505050506040513d601f19601f820116820180604052508101906115619190612015565b8110156109af576040516334bbd58560e01b815260040160405180910390fd5b6001600160a01b0380821660009081526012602090815260409182902082516101008082018552825482526001830154938201939093526002820154938101939093526003810154606084015260048101546080840152600581015460a08401526006015460ff808216151560c08501529082900490931660e083015260115491929104166116235760405163130f6b4360e31b815260040160405180910390fd5b8060c001511561165157604051634f051ead60e11b81526001600160a01b0383166004820152602401611420565b80516000036109af57604051633177dde360e21b8152336004820152602401611420565b600a54604051636ddc243d60e01b81526001600160a01b03868116600483015267ffffffffffffffff80871660248401528086166044840152841660648301526000921690636ddc243d906084016020604051808303816000875af11580156116e2573d6000803e3d6000fd5b505050506040513d601f19601f82011682018060405250810190611706919061202e565b95945050505050565b6040516001600160a01b0383811660248301526044820183905261102391859182169063a9059cbb906064016114c7565b6001600160a01b038082166000908152601260209081526040808320815161010080820184528254825260018301549482019490945260028201549281018390526003820154606082015260048201546080820152600582015460a082015260069091015460ff8116151560c08301529290920490931660e0820152905490916117ca9190611f7a565b4211156109af57604051632a65994560e21b815260040160405180910390fd5b6001600160a01b038082166000908152601260209081526040808320815161010080820184528254825260018301549482019490945260028201549281018390526003820154606082015260048201546080820152600582015460a082015260069091015460ff8116151560c08301529290920490931660e0820152905490916118749190611f7a565b42116109af57604051630aabc7c160e11b815260040160405180910390fd5b6001600160a01b0380821660009081526012602090815260408083208151610100808201845282548083526001840154958301959095526002830154938201939093526003820154606082015260048201546080820152600582015460a082015260069091015460ff8116151560c08301529190910490931660e0840152900361193b57604051633177dde360e21b81526001600160a01b0383166004820152602401611420565b80516020820151036109af576040516392f1dcf760e01b81526001600160a01b0383166004820152602401611420565b6001600160a01b0380841660009081526012602090815260408083208151610100808201845282548252600183015482860152600283015482850152600383015460608301819052600484015460808401819052600585015460a0850181905260069095015460ff8116151560c08601529290920490971660e0830152925190956119fc948a949193919201611f8d565b60408051601f19818403018152828252805160209182012090830152016040516020818303038152906040528051906020012090508160600151826000015114611a6457604051635e7272cd60e11b81526001600160a01b0386166004820152602401611420565b611aa5848480806020026020016040519081016040528093929190818152602001838360200280828437600092019190915250506006549150849050611ba3565b6108f957604051635e7272cd60e11b81526001600160a01b0386166004820152602401611420565b60115460ff1661132957604051639903ed3760e01b815260040160405180910390fd5b6010541561132957604051638aada42160e01b815260040160405180910390fd5b600f54600003611b34576040516324f7856360e01b815260040160405180910390fd5b601154610100900460ff1615611b5d576040516323e6655160e11b815260040160405180910390fd5b600f548114610e265760405163fda813a360e01b815260048101829052602401611420565b600f541561132957604051632801533160e21b815260040160405180910390fd5b600082611bb08584611c2a565b14949350505050565b600080602060008451602086016000885af180611bdc576040513d6000823e3d81fd5b50506000513d91508115611bf4578060011415611c01565b6001600160a01b0384163b155b156114f957604051635274afe760e01b81526001600160a01b0385166004820152602401611420565b600081815b8451811015611c6557611c5b82868381518110611c4e57611c4e611fff565b6020026020010151611c6f565b9150600101611c2f565b5090505b92915050565b6000818310611c8b576000828152602084905260409020611c9a565b60008381526020839052604090205b9392505050565b60006101608284031215611cb457600080fd5b50919050565b60008083601f840112611ccc57600080fd5b50813567ffffffffffffffff811115611ce457600080fd5b6020830191508360208260051b8501011115611cff57600080fd5b9250929050565b60008060008060008060a08789031215611d1f57600080fd5b86359550602087013594506040870135935060608701359250608087013567ffffffffffffffff811115611d5257600080fd5b611d5e89828a01611cba565b979a9699509497509295939492505050565b6001600160a01b0381168114610e2657600080fd5b60008060008060808587031215611d9b57600080fd5b8435611da681611d70565b966020860135965060408601359560600135945092505050565b600060208284031215611dd257600080fd5b8135611c9a81611d70565b60008060208385031215611df057600080fd5b823567ffffffffffffffff811115611e0757600080fd5b611e1385828601611cba565b90969095509350505050565b600061016082019050825182526020830151602083015260408301516040830152606083015160608301526080830151608083015260a083015160a083015260c083015160c083015260e0830151611e8260e08401826001600160a01b03169052565b50610100838101516001600160a01b0390811691840191909152610120808501518216908401526101409384015116929091019190915290565b600060208284031215611ece57600080fd5b5035919050565b60008060408385031215611ee857600080fd5b50508035926020909101359150565b600080600060608486031215611f0c57600080fd5b8335611f1781611d70565b92506020840135611f2781611d70565b929592945050506040919091013590565b600080600060608486031215611f4d57600080fd5b505081359360208301359350604090920135919050565b634e487b7160e01b600052601160045260246000fd5b80820180821115611c6957611c69611f64565b6001600160a01b0394909416845260208401929092526040830152606082015260800190565b8082028115828204841417611c6957611c69611f64565b600082611fe757634e487b7160e01b600052601260045260246000fd5b500490565b81810381811115611c6957611c69611f64565b634e487b7160e01b600052603260045260246000fd5b60006020828403121561202757600080fd5b5051919050565b60006020828403121561204057600080fd5b8151611c9a81611d7056fea26469706673582212206930c9b56fd83597a49ce3d6f18056ba0c774dc2aa81ec31001b4375ce4efeb664736f6c63430008190033","linkReferences":{}},"methodIdentifiers":{"createPreLiquidSale((uint256,uint256,uint256,uint256,uint256,uint256,bytes32,address,address,address,address))":"85416bac","owner()":"8da5cb5b","preLiquidSaleTemplate()":"92be66a4","renounceOwnership()":"715018a6","totalInstances()":"8412e7cc","transferOwnership(address)":"f2fde38b"},"id":61}