{"abi":[{"type":"constructor","inputs":[],"stateMutability":"nonpayable"},{"type":"receive","stateMutability":"payable"},{"type":"function","name":"cliffEnd","inputs":[],"outputs":[{"name":"","type":"uint256","internalType":"uint256"}],"stateMutability":"view"},{"type":"function","name":"duration","inputs":[],"outputs":[{"name":"","type":"uint256","internalType":"uint256"}],"stateMutability":"view"},{"type":"function","name":"end","inputs":[],"outputs":[{"name":"","type":"uint256","internalType":"uint256"}],"stateMutability":"view"},{"type":"function","name":"initialize","inputs":[{"name":"beneficiary","type":"address","internalType":"address"},{"name":"startTimestamp","type":"uint64","internalType":"uint64"},{"name":"durationSeconds","type":"uint64","internalType":"uint64"}],"outputs":[],"stateMutability":"nonpayable"},{"type":"function","name":"initialize","inputs":[{"name":"beneficiary","type":"address","internalType":"address"},{"name":"startTimestamp","type":"uint64","internalType":"uint64"},{"name":"durationSeconds","type":"uint64","internalType":"uint64"},{"name":"cliffDurationSeconds","type":"uint64","internalType":"uint64"}],"outputs":[],"stateMutability":"nonpayable"},{"type":"function","name":"owner","inputs":[],"outputs":[{"name":"","type":"address","internalType":"address"}],"stateMutability":"view"},{"type":"function","name":"releasable","inputs":[{"name":"token","type":"address","internalType":"address"}],"outputs":[{"name":"","type":"uint256","internalType":"uint256"}],"stateMutability":"view"},{"type":"function","name":"releasable","inputs":[],"outputs":[{"name":"","type":"uint256","internalType":"uint256"}],"stateMutability":"view"},{"type":"function","name":"release","inputs":[{"name":"token","type":"address","internalType":"address"}],"outputs":[],"stateMutability":"nonpayable"},{"type":"function","name":"release","inputs":[],"outputs":[],"stateMutability":"nonpayable"},{"type":"function","name":"released","inputs":[],"outputs":[{"name":"","type":"uint256","internalType":"uint256"}],"stateMutability":"view"},{"type":"function","name":"released","inputs":[{"name":"token","type":"address","internalType":"address"}],"outputs":[{"name":"","type":"uint256","internalType":"uint256"}],"stateMutability":"view"},{"type":"function","name":"renounceOwnership","inputs":[],"outputs":[],"stateMutability":"nonpayable"},{"type":"function","name":"start","inputs":[],"outputs":[{"name":"","type":"uint256","internalType":"uint256"}],"stateMutability":"view"},{"type":"function","name":"transferOwnership","inputs":[{"name":"newOwner","type":"address","internalType":"address"}],"outputs":[],"stateMutability":"nonpayable"},{"type":"function","name":"vestedAmount","inputs":[{"name":"timestamp","type":"uint64","internalType":"uint64"}],"outputs":[{"name":"","type":"uint256","internalType":"uint256"}],"stateMutability":"view"},{"type":"function","name":"vestedAmount","inputs":[{"name":"token","type":"address","internalType":"address"},{"name":"timestamp","type":"uint64","internalType":"uint64"}],"outputs":[{"name":"","type":"uint256","internalType":"uint256"}],"stateMutability":"view"},{"type":"event","name":"ERC20Released","inputs":[{"name":"token","type":"address","indexed":true,"internalType":"address"},{"name":"amount","type":"uint256","indexed":false,"internalType":"uint256"}],"anonymous":false},{"type":"event","name":"EtherReleased","inputs":[{"name":"amount","type":"uint256","indexed":false,"internalType":"uint256"}],"anonymous":false},{"type":"event","name":"Initialized","inputs":[{"name":"version","type":"uint64","indexed":false,"internalType":"uint64"}],"anonymous":false},{"type":"event","name":"OwnershipTransferred","inputs":[{"name":"previousOwner","type":"address","indexed":true,"internalType":"address"},{"name":"newOwner","type":"address","indexed":true,"internalType":"address"}],"anonymous":false},{"type":"error","name":"CliffNotEnded","inputs":[{"name":"currentTimestamp","type":"uint256","internalType":"uint256"}]},{"type":"error","name":"FailedCall","inputs":[]},{"type":"error","name":"InsufficientBalance","inputs":[{"name":"balance","type":"uint256","internalType":"uint256"},{"name":"needed","type":"uint256","internalType":"uint256"}]},{"type":"error","name":"InvalidInitialization","inputs":[]},{"type":"error","name":"NotInitializing","inputs":[]},{"type":"error","name":"OwnableInvalidOwner","inputs":[{"name":"owner","type":"address","internalType":"address"}]},{"type":"error","name":"OwnableUnauthorizedAccount","inputs":[{"name":"account","type":"address","internalType":"address"}]},{"type":"error","name":"SafeERC20FailedOperation","inputs":[{"name":"token","type":"address","internalType":"address"}]}],"bytecode":{"object":"0x6080604052348015600f57600080fd5b506016601a565b60ca565b7ff0c57e16840df040f15088dc2f81fe391c3923bec73e23a9662efc9c229c6a00805468010000000000000000900460ff161560695760405163f92ee8a960e01b815260040160405180910390fd5b80546001600160401b039081161460c75780546001600160401b0319166001600160401b0390811782556040519081527fc7f505b2f371ae2175ee4913f4499e1f2633a7b5936321eed1cdaeb6115181d29060200160405180910390a15b50565b610e91806100d96000396000f3fe6080604052600436106101025760003560e01c80639613252111610095578063be9a655511610064578063be9a655514610286578063df3d33051461029b578063efbe1c1c146102bb578063f2fde38b146102d0578063fbccedae146102f057600080fd5b806396132521146102045780639852595c14610226578063989a836614610246578063a3f8eace1461026657600080fd5b8063810ec23b116100d1578063810ec23b1461018d57806386d1a69f146101ad5780638da5cb5b146101c25780639130297b146101ef57600080fd5b80630a17b06b1461010e5780630fb5a6b4146101415780631916558714610156578063715018a61461017857600080fd5b3661010957005b600080fd5b34801561011a57600080fd5b5061012e610129366004610c6f565b610305565b6040519081526020015b60405180910390f35b34801561014d57600080fd5b5061012e610336565b34801561016257600080fd5b50610176610171366004610ca1565b61036b565b005b34801561018457600080fd5b506101766103a1565b34801561019957600080fd5b5061012e6101a8366004610cbc565b6103b5565b3480156101b957600080fd5b5061017661043c565b3480156101ce57600080fd5b506101d7610469565b6040516001600160a01b039091168152602001610138565b3480156101fb57600080fd5b5060005461012e565b34801561021057600080fd5b50600080516020610e3c8339815191525461012e565b34801561023257600080fd5b5061012e610241366004610ca1565b610497565b34801561025257600080fd5b50610176610261366004610cef565b6104d1565b34801561027257600080fd5b5061012e610281366004610ca1565b6105e3565b34801561029257600080fd5b5061012e610602565b3480156102a757600080fd5b506101766102b6366004610d32565b610630565b3480156102c757600080fd5b5061012e610759565b3480156102dc57600080fd5b506101766102eb366004610ca1565b61077a565b3480156102fc57600080fd5b5061012e6107b5565b6000610330610320600080516020610e3c8339815191525490565b61032a9047610d9c565b836107e0565b92915050565b7fa1eac494560f7591e4da38ed031587f09556afdfc4399dd2e205b935fdfa390254600160401b90046001600160401b031690565b600054421015610395576040516371b769d160e11b81524260048201526024015b60405180910390fd5b61039e8161085e565b50565b6103a9610901565b6103b36000610933565b565b60006104356103c384610497565b6040516370a0823160e01b81523060048201526001600160a01b038616906370a0823190602401602060405180830381865afa158015610407573d6000803e3d6000fd5b505050506040513d601f19601f8201168201806040525081019061042b9190610daf565b61032a9190610d9c565b9392505050565b600054421015610461576040516371b769d160e11b815242600482015260240161038c565b6103b36109a4565b7f9016d09d72d40fdae2fd8ceac6b6234c7706214fd39c1cd1e609a0528c199300546001600160a01b031690565b6001600160a01b031660009081527fa1eac494560f7591e4da38ed031587f09556afdfc4399dd2e205b935fdfa3901602052604090205490565b7ff0c57e16840df040f15088dc2f81fe391c3923bec73e23a9662efc9c229c6a008054600160401b810460ff1615906001600160401b03166000811580156105165750825b90506000826001600160401b031660011480156105325750303b155b905081158015610540575080155b1561055e5760405163f92ee8a960e01b815260040160405180910390fd5b845467ffffffffffffffff19166001178555831561058857845460ff60401b1916600160401b1785555b610593888888610a20565b83156105d957845460ff60401b19168555604051600181527fc7f505b2f371ae2175ee4913f4499e1f2633a7b5936321eed1cdaeb6115181d29060200160405180910390a15b5050505050505050565b60006105ee82610497565b6105f883426103b5565b6103309190610dc8565b7fa1eac494560f7591e4da38ed031587f09556afdfc4399dd2e205b935fdfa3902546001600160401b031690565b7ff0c57e16840df040f15088dc2f81fe391c3923bec73e23a9662efc9c229c6a008054600160401b810460ff1615906001600160401b03166000811580156106755750825b90506000826001600160401b031660011480156106915750303b155b90508115801561069f575080155b156106bd5760405163f92ee8a960e01b815260040160405180910390fd5b845467ffffffffffffffff1916600117855583156106e757845460ff60401b1916600160401b1785555b6106f2898989610a20565b6106fc8689610ddb565b6001600160401b0316600055831561074e57845460ff60401b19168555604051600181527fc7f505b2f371ae2175ee4913f4499e1f2633a7b5936321eed1cdaeb6115181d29060200160405180910390a15b505050505050505050565b6000610763610336565b61076b610602565b6107759190610d9c565b905090565b610782610901565b6001600160a01b0381166107ac57604051631e4fbdf760e01b81526000600482015260240161038c565b61039e81610933565b60006107cd600080516020610e3c8339815191525490565b6107d642610305565b6107759190610dc8565b60006107ea610602565b826001600160401b0316101561080257506000610330565b61080a610759565b826001600160401b031610610820575081610330565b610828610336565b610830610602565b610843906001600160401b038516610dc8565b61084d9085610e02565b6108579190610e19565b9050610330565b600080516020610e3c8339815191526000610878836105e3565b6001600160a01b03841660009081526001840160205260408120805492935083929091906108a7908490610d9c565b90915550506040518181526001600160a01b038416907fc0e523490dd523c33b1878c9eb14ff46991e3f5b2cd33710918618f2a39cba1b9060200160405180910390a26108fc836108f6610469565b83610a3c565b505050565b3361090a610469565b6001600160a01b0316146103b35760405163118cdaa760e01b815233600482015260240161038c565b7f9016d09d72d40fdae2fd8ceac6b6234c7706214fd39c1cd1e609a0528c19930080546001600160a01b031981166001600160a01b03848116918217845560405192169182907f8be0079c531659141344cd1fd0a4f28419497f9722a3daafe3b4186f6b6457e090600090a3505050565b600080516020610e3c83398151915260006109bd6107b5565b9050808260000160008282546109d39190610d9c565b90915550506040518181527fda9d4e5f101b8b9b1c5b76d0c5a9f7923571acfc02376aa076b75a8c080c956b9060200160405180910390a1610a1c610a16610469565b82610a8e565b5050565b610a28610b2c565b610a3183610b75565b6108fc838383610b7d565b604080516001600160a01b038416602482015260448082018490528251808303909101815260649091019091526020810180516001600160e01b031663a9059cbb60e01b1790526108fc908490610bdc565b80471015610ab85760405163cf47918160e01b81524760048201526024810182905260440161038c565b6000826001600160a01b03168260405160006040518083038185875af1925050503d8060008114610b05576040519150601f19603f3d011682016040523d82523d6000602084013e610b0a565b606091505b50509050806108fc5760405163d6bda27560e01b815260040160405180910390fd5b7ff0c57e16840df040f15088dc2f81fe391c3923bec73e23a9662efc9c229c6a0054600160401b900460ff166103b357604051631afcd79f60e31b815260040160405180910390fd5b610782610b2c565b610b85610b2c565b7fa1eac494560f7591e4da38ed031587f09556afdfc4399dd2e205b935fdfa390280546001600160401b03928316600160401b026fffffffffffffffffffffffffffffffff19909116939092169290921717905550565b600080602060008451602086016000885af180610bff576040513d6000823e3d81fd5b50506000513d91508115610c17578060011415610c24565b6001600160a01b0384163b155b15610c4d57604051635274afe760e01b81526001600160a01b038516600482015260240161038c565b50505050565b80356001600160401b0381168114610c6a57600080fd5b919050565b600060208284031215610c8157600080fd5b61043582610c53565b80356001600160a01b0381168114610c6a57600080fd5b600060208284031215610cb357600080fd5b61043582610c8a565b60008060408385031215610ccf57600080fd5b610cd883610c8a565b9150610ce660208401610c53565b90509250929050565b600080600060608486031215610d0457600080fd5b610d0d84610c8a565b9250610d1b60208501610c53565b9150610d2960408501610c53565b90509250925092565b60008060008060808587031215610d4857600080fd5b610d5185610c8a565b9350610d5f60208601610c53565b9250610d6d60408601610c53565b9150610d7b60608601610c53565b905092959194509250565b634e487b7160e01b600052601160045260246000fd5b8082018082111561033057610330610d86565b600060208284031215610dc157600080fd5b5051919050565b8181038181111561033057610330610d86565b6001600160401b03818116838216019080821115610dfb57610dfb610d86565b5092915050565b808202811582820484141761033057610330610d86565b600082610e3657634e487b7160e01b600052601260045260246000fd5b50049056fea1eac494560f7591e4da38ed031587f09556afdfc4399dd2e205b935fdfa3900a264697066735822122026dfdf0345a06d29159a25673f9afddd6d9d989ea936483efb7f931bca66bb3064736f6c63430008190033","linkReferences":{}},"methodIdentifiers":{"cliffEnd()":"9130297b","duration()":"0fb5a6b4","end()":"efbe1c1c","initialize(address,uint64,uint64)":"989a8366","initialize(address,uint64,uint64,uint64)":"df3d3305","owner()":"8da5cb5b","releasable()":"fbccedae","releasable(address)":"a3f8eace","release()":"86d1a69f","release(address)":"19165587","released()":"96132521","released(address)":"9852595c","renounceOwnership()":"715018a6","start()":"be9a6555","transferOwnership(address)":"f2fde38b","vestedAmount(address,uint64)":"810ec23b","vestedAmount(uint64)":"0a17b06b"},"id":57}