{"abi":[{"type":"constructor","inputs":[{"name":"newOwner","type":"address","internalType":"address"}],"stateMutability":"nonpayable"},{"type":"function","name":"createFixedPriceSale","inputs":[{"name":"fixedPriceSalePeriodAndFeeConfig","type":"tuple","internalType":"struct ILegionFixedPriceSale.FixedPriceSalePeriodAndFeeConfig","components":[{"name":"prefundPeriodSeconds","type":"uint256","internalType":"uint256"},{"name":"prefundAllocationPeriodSeconds","type":"uint256","internalType":"uint256"},{"name":"salePeriodSeconds","type":"uint256","internalType":"uint256"},{"name":"refundPeriodSeconds","type":"uint256","internalType":"uint256"},{"name":"lockupPeriodSeconds","type":"uint256","internalType":"uint256"},{"name":"vestingDurationSeconds","type":"uint256","internalType":"uint256"},{"name":"vestingCliffDurationSeconds","type":"uint256","internalType":"uint256"},{"name":"legionFeeOnCapitalRaisedBps","type":"uint256","internalType":"uint256"},{"name":"legionFeeOnTokensSoldBps","type":"uint256","internalType":"uint256"},{"name":"minimumPledgeAmount","type":"uint256","internalType":"uint256"},{"name":"tokenPrice","type":"uint256","internalType":"uint256"}]},{"name":"fixedPriceSaleAddressConfig","type":"tuple","internalType":"struct ILegionFixedPriceSale.FixedPriceSaleAddressConfig","components":[{"name":"bidToken","type":"address","internalType":"address"},{"name":"askToken","type":"address","internalType":"address"},{"name":"projectAdmin","type":"address","internalType":"address"},{"name":"legionAdmin","type":"address","internalType":"address"},{"name":"legionSigner","type":"address","internalType":"address"},{"name":"vestingFactory","type":"address","internalType":"address"}]}],"outputs":[{"name":"fixedPriceSaleInstance","type":"address","internalType":"address payable"}],"stateMutability":"nonpayable"},{"type":"function","name":"createPreLiquidSale","inputs":[{"name":"preLiquidSaleConfig","type":"tuple","internalType":"struct ILegionPreLiquidSale.PreLiquidSaleConfig","components":[{"name":"refundPeriodSeconds","type":"uint256","internalType":"uint256"},{"name":"vestingDurationSeconds","type":"uint256","internalType":"uint256"},{"name":"vestingCliffDurationSeconds","type":"uint256","internalType":"uint256"},{"name":"tokenAllocationOnTGEBps","type":"uint256","internalType":"uint256"},{"name":"legionFeeOnCapitalRaisedBps","type":"uint256","internalType":"uint256"},{"name":"legionFeeOnTokensSoldBps","type":"uint256","internalType":"uint256"},{"name":"saftMerkleRoot","type":"bytes32","internalType":"bytes32"},{"name":"bidToken","type":"address","internalType":"address"},{"name":"projectAdmin","type":"address","internalType":"address"},{"name":"legionAdmin","type":"address","internalType":"address"},{"name":"vestingFactory","type":"address","internalType":"address"}]}],"outputs":[{"name":"preLiquidSaleInstance","type":"address","internalType":"address payable"}],"stateMutability":"nonpayable"},{"type":"function","name":"createSealedBidAuction","inputs":[{"name":"sealedBidAuctionPeriodAndFeeConfig","type":"tuple","internalType":"struct ILegionSealedBidAuction.SealedBidAuctionPeriodAndFeeConfig","components":[{"name":"salePeriodSeconds","type":"uint256","internalType":"uint256"},{"name":"refundPeriodSeconds","type":"uint256","internalType":"uint256"},{"name":"lockupPeriodSeconds","type":"uint256","internalType":"uint256"},{"name":"vestingDurationSeconds","type":"uint256","internalType":"uint256"},{"name":"vestingCliffDurationSeconds","type":"uint256","internalType":"uint256"},{"name":"legionFeeOnCapitalRaisedBps","type":"uint256","internalType":"uint256"},{"name":"legionFeeOnTokensSoldBps","type":"uint256","internalType":"uint256"},{"name":"minimumPledgeAmount","type":"uint256","internalType":"uint256"},{"name":"publicKey","type":"tuple","internalType":"struct Point","components":[{"name":"x","type":"uint256","internalType":"uint256"},{"name":"y","type":"uint256","internalType":"uint256"}]}]},{"name":"sealedBidAuctionAddressConfig","type":"tuple","internalType":"struct ILegionSealedBidAuction.SealedBidAuctionAddressConfig","components":[{"name":"bidToken","type":"address","internalType":"address"},{"name":"askToken","type":"address","internalType":"address"},{"name":"projectAdmin","type":"address","internalType":"address"},{"name":"legionAdmin","type":"address","internalType":"address"},{"name":"legionSigner","type":"address","internalType":"address"},{"name":"vestingFactory","type":"address","internalType":"address"}]}],"outputs":[{"name":"sealedBidAuctionInstance","type":"address","internalType":"address payable"}],"stateMutability":"nonpayable"},{"type":"function","name":"fixedPriceSaleTemplate","inputs":[],"outputs":[{"name":"","type":"address","internalType":"address"}],"stateMutability":"view"},{"type":"function","name":"owner","inputs":[],"outputs":[{"name":"","type":"address","internalType":"address"}],"stateMutability":"view"},{"type":"function","name":"preLiquidSaleTemplate","inputs":[],"outputs":[{"name":"","type":"address","internalType":"address"}],"stateMutability":"view"},{"type":"function","name":"renounceOwnership","inputs":[],"outputs":[],"stateMutability":"nonpayable"},{"type":"function","name":"sealedBidAuctionTemplate","inputs":[],"outputs":[{"name":"","type":"address","internalType":"address"}],"stateMutability":"view"},{"type":"function","name":"transferOwnership","inputs":[{"name":"newOwner","type":"address","internalType":"address"}],"outputs":[],"stateMutability":"nonpayable"},{"type":"event","name":"NewFixedPriceSaleCreated","inputs":[{"name":"saleInstance","type":"address","indexed":false,"internalType":"address"},{"name":"fixedPriceSalePeriodAndFeeConfig","type":"tuple","indexed":false,"internalType":"struct ILegionFixedPriceSale.FixedPriceSalePeriodAndFeeConfig","components":[{"name":"prefundPeriodSeconds","type":"uint256","internalType":"uint256"},{"name":"prefundAllocationPeriodSeconds","type":"uint256","internalType":"uint256"},{"name":"salePeriodSeconds","type":"uint256","internalType":"uint256"},{"name":"refundPeriodSeconds","type":"uint256","internalType":"uint256"},{"name":"lockupPeriodSeconds","type":"uint256","internalType":"uint256"},{"name":"vestingDurationSeconds","type":"uint256","internalType":"uint256"},{"name":"vestingCliffDurationSeconds","type":"uint256","internalType":"uint256"},{"name":"legionFeeOnCapitalRaisedBps","type":"uint256","internalType":"uint256"},{"name":"legionFeeOnTokensSoldBps","type":"uint256","internalType":"uint256"},{"name":"minimumPledgeAmount","type":"uint256","internalType":"uint256"},{"name":"tokenPrice","type":"uint256","internalType":"uint256"}]},{"name":"fixedPriceSaleAddressConfig","type":"tuple","indexed":false,"internalType":"struct ILegionFixedPriceSale.FixedPriceSaleAddressConfig","components":[{"name":"bidToken","type":"address","internalType":"address"},{"name":"askToken","type":"address","internalType":"address"},{"name":"projectAdmin","type":"address","internalType":"address"},{"name":"legionAdmin","type":"address","internalType":"address"},{"name":"legionSigner","type":"address","internalType":"address"},{"name":"vestingFactory","type":"address","internalType":"address"}]}],"anonymous":false},{"type":"event","name":"NewPreLiquidSaleCreated","inputs":[{"name":"saleInstance","type":"address","indexed":false,"internalType":"address"},{"name":"preLiquidSaleConfig","type":"tuple","indexed":false,"internalType":"struct ILegionPreLiquidSale.PreLiquidSaleConfig","components":[{"name":"refundPeriodSeconds","type":"uint256","internalType":"uint256"},{"name":"vestingDurationSeconds","type":"uint256","internalType":"uint256"},{"name":"vestingCliffDurationSeconds","type":"uint256","internalType":"uint256"},{"name":"tokenAllocationOnTGEBps","type":"uint256","internalType":"uint256"},{"name":"legionFeeOnCapitalRaisedBps","type":"uint256","internalType":"uint256"},{"name":"legionFeeOnTokensSoldBps","type":"uint256","internalType":"uint256"},{"name":"saftMerkleRoot","type":"bytes32","internalType":"bytes32"},{"name":"bidToken","type":"address","internalType":"address"},{"name":"projectAdmin","type":"address","internalType":"address"},{"name":"legionAdmin","type":"address","internalType":"address"},{"name":"vestingFactory","type":"address","internalType":"address"}]}],"anonymous":false},{"type":"event","name":"NewSealedBidAuctionCreated","inputs":[{"name":"saleInstance","type":"address","indexed":false,"internalType":"address"},{"name":"sealedBidAuctionPeriodAndFeeConfig","type":"tuple","indexed":false,"internalType":"struct ILegionSealedBidAuction.SealedBidAuctionPeriodAndFeeConfig","components":[{"name":"salePeriodSeconds","type":"uint256","internalType":"uint256"},{"name":"refundPeriodSeconds","type":"uint256","internalType":"uint256"},{"name":"lockupPeriodSeconds","type":"uint256","internalType":"uint256"},{"name":"vestingDurationSeconds","type":"uint256","internalType":"uint256"},{"name":"vestingCliffDurationSeconds","type":"uint256","internalType":"uint256"},{"name":"legionFeeOnCapitalRaisedBps","type":"uint256","internalType":"uint256"},{"name":"legionFeeOnTokensSoldBps","type":"uint256","internalType":"uint256"},{"name":"minimumPledgeAmount","type":"uint256","internalType":"uint256"},{"name":"publicKey","type":"tuple","internalType":"struct Point","components":[{"name":"x","type":"uint256","internalType":"uint256"},{"name":"y","type":"uint256","internalType":"uint256"}]}]},{"name":"sealedBidAuctionAddressConfig","type":"tuple","indexed":false,"internalType":"struct ILegionSealedBidAuction.SealedBidAuctionAddressConfig","components":[{"name":"bidToken","type":"address","internalType":"address"},{"name":"askToken","type":"address","internalType":"address"},{"name":"projectAdmin","type":"address","internalType":"address"},{"name":"legionAdmin","type":"address","internalType":"address"},{"name":"legionSigner","type":"address","internalType":"address"},{"name":"vestingFactory","type":"address","internalType":"address"}]}],"anonymous":false},{"type":"event","name":"OwnershipTransferred","inputs":[{"name":"previousOwner","type":"address","indexed":true,"internalType":"address"},{"name":"newOwner","type":"address","indexed":true,"internalType":"address"}],"anonymous":false},{"type":"error","name":"FailedDeployment","inputs":[]},{"type":"error","name":"InsufficientBalance","inputs":[{"name":"balance","type":"uint256","internalType":"uint256"},{"name":"needed","type":"uint256","internalType":"uint256"}]},{"type":"error","name":"OwnableInvalidOwner","inputs":[{"name":"owner","type":"address","internalType":"address"}]},{"type":"error","name":"OwnableUnauthorizedAccount","inputs":[{"name":"account","type":"address","internalType":"address"}]}],"bytecode":{"object":"0x60e06040526040516100109061015d565b604051809103906000f08015801561002c573d6000803e3d6000fd5b506001600160a01b03166080526040516100459061016a565b604051809103906000f080158015610061573d6000803e3d6000fd5b506001600160a01b031660a05260405161007a90610177565b604051809103906000f080158015610096573d6000803e3d6000fd5b506001600160a01b031660c0523480156100af57600080fd5b50604051617b74380380617b748339810160408190526100ce91610184565b806001600160a01b0381166100fd57604051631e4fbdf760e01b81526000600482015260240160405180910390fd5b6101068161010d565b50506101b4565b600080546001600160a01b038381166001600160a01b0319831681178455604051919092169283917f8be0079c531659141344cd1fd0a4f28419497f9722a3daafe3b4186f6b6457e09190a35050565b61249c80610b5e83390190565b6122ad80612ffa83390190565b6128cd806152a783390190565b60006020828403121561019657600080fd5b81516001600160a01b03811681146101ad57600080fd5b9392505050565b60805160a05160c0516109676101f760003960008181609d015261036c0152600081816101480152610292015260008181610110015261019f01526109676000f3fe608060405234801561001057600080fd5b50600436106100935760003560e01c80638be135a7116100665780638be135a71461010b5780638da5cb5b1461013257806392be66a414610143578063c15a83201461016a578063f2fde38b1461017d57600080fd5b806318a1fa181461009857806328376939146100db578063715018a6146100ee57806385416bac146100f8575b600080fd5b6100bf7f000000000000000000000000000000000000000000000000000000000000000081565b6040516001600160a01b03909116815260200160405180910390f35b6100bf6100e9366004610598565b610190565b6100f661026f565b005b6100bf6101063660046105cf565b610283565b6100bf7f000000000000000000000000000000000000000000000000000000000000000081565b6000546001600160a01b03166100bf565b6100bf7f000000000000000000000000000000000000000000000000000000000000000081565b6100bf6101783660046105f3565b61035d565b6100f661018b36600461064e565b610404565b600061019a610447565b6101cc7f00000000000000000000000000000000000000000000000000000000000000006001600160a01b0316610474565b90507f6f3b3e252e297a9cc656895a8b66c98304801b6ed89bb115af1dc9853c93ecfd81848460405161020193929190610754565b60405180910390a16040516356e915b960e11b81526001600160a01b0382169063add22b72906102379086908690600401610788565b600060405180830381600087803b15801561025157600080fd5b505af1158015610265573d6000803e3d6000fd5b5050505092915050565b610277610447565b6102816000610487565b565b600061028d610447565b6102bf7f00000000000000000000000000000000000000000000000000000000000000006001600160a01b0316610474565b90507f6dbfb85b35dbe734ceeb3089cc34b84f3d6c198a099e153abb3339438e22e0dd81836040516102f2929190610855565b60405180910390a1604051634d04ea5b60e01b81526001600160a01b03821690634d04ea5b90610326908590600401610873565b600060405180830381600087803b15801561034057600080fd5b505af1158015610354573d6000803e3d6000fd5b50505050919050565b6000610367610447565b6103997f00000000000000000000000000000000000000000000000000000000000000006001600160a01b0316610474565b90507f3f7774426a2fed3c45807372b24027a6bff94c8b0b27cf299992862ceda0fb148184846040516103ce939291906108e8565b60405180910390a160405163f5af582d60e01b81526001600160a01b0382169063f5af582d906102379086908690600401610914565b61040c610447565b6001600160a01b03811661043b57604051631e4fbdf760e01b8152600060048201526024015b60405180910390fd5b61044481610487565b50565b6000546001600160a01b031633146102815760405163118cdaa760e01b8152336004820152602401610432565b60006104818260006104d7565b92915050565b600080546001600160a01b038381166001600160a01b0319831681178455604051919092169283917f8be0079c531659141344cd1fd0a4f28419497f9722a3daafe3b4186f6b6457e09190a35050565b6000814710156105035760405163cf47918160e01b815247600482015260248101839052604401610432565b763d602d80600a3d3981f3363d3d373d3d3d363d730000008360601b60e81c176000526e5af43d82803e903d91602b57fd5bf38360781b176020526037600983f090506001600160a01b0381166104815760405163b06ebf3d60e01b815260040160405180910390fd5b6000610160828403121561058057600080fd5b50919050565b600060c0828403121561058057600080fd5b60008061022083850312156105ac57600080fd5b6105b6848461056d565b91506105c6846101608501610586565b90509250929050565b600061016082840312156105e257600080fd5b6105ec838361056d565b9392505050565b60008082840361020081121561060857600080fd5b6101408082121561061857600080fd5b84935061062786828701610586565b925050509250929050565b80356001600160a01b038116811461064957600080fd5b919050565b60006020828403121561066057600080fd5b6105ec82610632565b803582526020810135602083015260408101356040830152606081013560608301526080810135608083015260a081013560a083015260c081013560c083015260e081013560e08301526101008082013581840152506101208082013581840152506101408082013581840152505050565b6001600160a01b03806106ed83610632565b168352806106fd60208401610632565b1660208401528061071060408401610632565b1660408401528061072360608401610632565b1660608401528061073660808401610632565b1660808401528061074960a08401610632565b1660a0840152505050565b6001600160a01b038416815261024081016107726020830185610669565b6107806101808301846106db565b949350505050565b61022081016107978285610669565b6105ec6101608301846106db565b803582526020810135602083015260408101356040830152606081013560608301526080810135608083015260a081013560a083015260c081013560c08301526107f160e08201610632565b6001600160a01b031660e083015261010061080d828201610632565b6001600160a01b031690830152610120610828828201610632565b6001600160a01b031690830152610140610843828201610632565b6001600160a01b031692019190915250565b6001600160a01b038316815261018081016105ec60208301846107a5565b610160810161048182846107a5565b803582526020810135602083015260408101356040830152606081013560608301526080810135608083015260a081013560a083015260c081013560c083015260e081013560e08301526101008082013581840152506101208082013581840152505050565b6001600160a01b038416815261022081016109066020830185610882565b6107806101608301846106db565b61020081016109238285610882565b6105ec6101408301846106db56fea2646970667358221220a04762d301a15f289390cbe783f86c2be2ce4adfd8d02d6330f19e91dbc0de1a64736f6c634300081900336080604052348015600f57600080fd5b506016601a565b60ca565b7ff0c57e16840df040f15088dc2f81fe391c3923bec73e23a9662efc9c229c6a00805468010000000000000000900460ff161560695760405163f92ee8a960e01b815260040160405180910390fd5b80546001600160401b039081161460c75780546001600160401b0319166001600160401b0390811782556040519081527fc7f505b2f371ae2175ee4913f4499e1f2633a7b5936321eed1cdaeb6115181d29060200160405180910390a15b50565b6123c3806100d96000396000f3fe608060405234801561001057600080fd5b50600436106101165760003560e01c8063b14d8bd5116100a2578063e7e1049011610071578063e7e1049014610317578063e8d214531461031f578063e90b366314610332578063ee36f21b14610345578063f9020e33146103d257600080fd5b8063b14d8bd5146102e1578063bcb520bd146102e9578063d5cef133146102fc578063e63ea4081461030457600080fd5b80635111e986116100e95780635111e9861461023757806389bd6265146102ab578063a96f8668146102be578063ada14d77146102c6578063add22b72146102ce57600080fd5b806306b31e2c1461011b57806317727a00146102075780633b0e9e411461021157806349bfdafd14610224575b600080fd5b6101a36040805160c081018252600080825260208201819052918101829052606081018290526080810182905260a0810191909152506040805160c0810182526008546001600160a01b03908116825260095481166020830152600a54811692820192909252600b5482166060820152600c5482166080820152600d5490911660a082015290565b6040516101fe919081516001600160a01b03908116825260208084015182169083015260408084015182169083015260608084015182169083015260808084015182169083015260a092830151169181019190915260c00190565b60405180910390f35b61020f6103e7565b005b61020f61021f366004611eca565b6104e8565b61020f610232366004611eec565b610605565b61027c610245366004611f1a565b6019602052600090815260409020805460019091015460ff808216916101008104909116906201000090046001600160a01b031684565b604080519485529215156020850152901515918301919091526001600160a01b031660608201526080016101fe565b61020f6102b9366004611eca565b610683565b61020f6107af565b61020f6108b5565b61020f6102dc366004611f37565b61096a565b61020f610c78565b61020f6102f7366004611f7e565b610ce6565b61020f610db8565b61020f610312366004611ffd565b610e5f565b61020f610ee9565b61020f61032d366004611f7e565b610f24565b61020f610340366004612054565b611043565b61034d61110e565b6040516101fe9190600061016082019050825182526020830151602083015260408301516040830152606083015160608301526080830151608083015260a083015160a083015260c083015160c083015260e083015160e083015261010080840151818401525061012080840151818401525061014080840151818401525092915050565b6103da6111d2565b6040516101fe919061210f565b600a546001600160a01b0316331461041257604051635d9c72eb60e01b815260040160405180910390fd5b61041a6112e0565b610422611305565b61042a611329565b6009546001600160a01b0316156104435761044361134c565b6015546005546000906127109061045b9084906121cf565b61046591906121e6565b604080518481523360208201529192507f2d6f01e5411cbd4277f423f351cb310dc3488eec3993da5a4ae9276837d4b82f910160405180910390a16104c1336104ae8385612208565b6008546001600160a01b03169190611374565b80156104e457600b546008546104e4916001600160a01b03918216911683611374565b5050565b600b546001600160a01b031633146105135760405163f3b1b93560e01b815260040160405180910390fd5b61051b611305565b6105236112e0565b61052b6113d3565b601682905560148190556008546040805163313ce56760e01b815290516001600160a01b039092169163313ce567916004808201926020929091908290030181865afa15801561057f573d6000803e3d6000fd5b505050506040513d601f19601f820116820180604052508101906105a3919061221b565b6105ae90600a612322565b601c546105bb90836121cf565b6105c591906121e6565b60155560408051838152602081018390527f86f76a0050decd53ce203c8e8294aa73d2f1f21363a5551d08325fa564f361e6910160405180910390a15050565b600b546001600160a01b031633146106305760405163f3b1b93560e01b815260040160405180910390fd5b610638611305565b610640611403565b610648611426565b60178190556040518181527f1d05456b2ffc08dcb82751ae9e81ca9abf41f6579406fa5f5b9939abbb51cf7f9060200160405180910390a150565b600a546001600160a01b031633146106ae57604051635d9c72eb60e01b815260040160405180910390fd5b6009546001600160a01b03166106d757604051632c7efdd160e21b815260040160405180910390fd5b6106e08261144d565b6106e8611305565b6106f0611495565b6018805461ff001916610100179055600654612710906107119084906121cf565b61071b91906121e6565b81146107395760405162a4671960e71b815260040160405180910390fd5b60408051838152602081018390527f8fb31ceaccebf6ba3c9c15e8959a4b82e39bf26a144aa885ae5e82a1d1b9c16c910160405180910390a160095461078a906001600160a01b03163330856114be565b80156104e457600b546009546104e4916001600160a01b0391821691339116846114be565b6009546001600160a01b03166107d857604051632c7efdd160e21b815260040160405180910390fd5b3360009081526019602090815260409182902082516080810184528154815260019091015460ff80821615159383019390935261010081049092161515928101929092526201000090046001600160a01b03166060820181905261084f57604051638474420160e01b815260040160405180910390fd5b6060810151600954604051631916558760e01b81526001600160a01b039182166004820152911690631916558790602401600060405180830381600087803b15801561089a57600080fd5b505af11580156108ae573d6000803e3d6000fd5b5050505050565b6108bd6114f7565b33600090815260196020526040812054908190036108ee5760405163843ce46b60e01b815260040160405180910390fd5b33600090815260196020526040812081905560138054839290610912908490612208565b9091555050604080518281523360208201527f3807f78213e07f1e91138875c27db2a63adf27577192e6d8617910fb3b755b1391015b60405180910390a1600854610967906001600160a01b03163383611374565b50565b7ff0c57e16840df040f15088dc2f81fe391c3923bec73e23a9662efc9c229c6a008054600160401b810460ff16159067ffffffffffffffff166000811580156109b05750825b905060008267ffffffffffffffff1660011480156109cd5750303b155b9050811580156109db575080155b156109f95760405163f92ee8a960e01b815260040160405180910390fd5b845467ffffffffffffffff191660011785558315610a2357845460ff60401b1916600160401b1785555b8635601a55602080880135601b5560408801356000556060880135600155608088013560025560a088013560035560c088013560045560e0880135600555610100880135600655610120880135600755610140880135601c55610a8890870187611f1a565b600880546001600160a01b0319166001600160a01b0392909216919091179055610ab86040870160208801611f1a565b600980546001600160a01b0319166001600160a01b0392909216919091179055610ae86060870160408801611f1a565b600a80546001600160a01b0319166001600160a01b0392909216919091179055610b186080870160608801611f1a565b600b80546001600160a01b0319166001600160a01b0392909216919091179055610b4860a0870160808801611f1a565b600c80546001600160a01b0319166001600160a01b0392909216919091179055610b7860c0870160a08801611f1a565b600d80546001600160a01b0319166001600160a01b039290921691909117905542601d819055610baa90883590612331565b601e819055610bbe90602089013590612331565b600e819055610bd290604089013590612331565b600f819055610be690606089013590612331565b6010556060870135608088013511610c0357601054601155610c19565b8660800135600f54610c159190612331565b6011555b601154601255610c29878761151a565b8315610c6f57845460ff60401b19168555604051600181527fc7f505b2f371ae2175ee4913f4499e1f2633a7b5936321eed1cdaeb6115181d29060200160405180910390a15b50505050505050565b610c8061170d565b610c88611305565b6009546001600160a01b031615610ca657610ca1611495565b610cae565b610cae611730565b6018805460ff191660011790556040517f0943552b21b3bcfb11bcb560653f2703faf49c76ac2a791e285b130c0117678a90600090a1565b610cee611403565b610cf6611305565b610d0233848484611751565b336000908152601960205260409020600101805461ff0019166101001790558215610db3573360009081526019602052604081208054859290610d46908490612208565b925050819055508260136000828254610d5f9190612208565b9091555050604080518481523360208201527f4a475b512b2940a96ef545685fe93076a8d71b278f57c3206f204dc7e9049acc910160405180910390a1600854610db3906001600160a01b03163385611374565b505050565b610dc06118b8565b610dc8611305565b610dd0611403565b3360009081526019602052604081205490819003610e01576040516316365d5f60e01b815260040160405180910390fd5b33600090815260196020526040812081905560138054839290610e25908490612208565b9091555050604080518281523360208201527f68537ca51c1b2cb464f6b47b5ab5fed672fd221e6745c3784c21d1cf127693b69101610948565b600b546001600160a01b03163314610e8a5760405163f3b1b93560e01b815260040160405180910390fd5b604080516001600160a01b038086168252841660208201529081018290527ff24ef89f38eadc1bde50701ad6e4d6d11a2dc24f7cf834a486991f38833285049060600160405180910390a1610db36001600160a01b0383168483611374565b600a546001600160a01b03163314610f1457604051635d9c72eb60e01b815260040160405180910390fd5b610f1c611730565b610cae611305565b6009546001600160a01b0316610f4d57604051632c7efdd160e21b815260040160405180910390fd5b610f55611329565b610f61338484846118da565b610f69611305565b610f7161170d565b3360009081526019602052604090206001908101805460ff191690911790558215610db3576000610faa33601254600354600454611a0c565b604080518681523360208201526001600160a01b0383168183015290519192507f4a05d5cbbd2a218b1587ca6133e262548c26dc0596c2178e5bac5812b1f9a610919081900360600190a133600090815260196020526040902060010180546001600160a01b03808416620100000262010000600160b01b03199092169190911790915560095461103d91168286611374565b50505050565b61104c81611aa6565b611054611b54565b61105c611b85565b611064611305565b61106d82611ba7565b816013600082825461107f9190612331565b909155505033600090815260196020526040812080548492906110a3908490612331565b9091555050601e546040805184815233602082015242928310818301819052606082019390935290517f42dc9c05c6880bfa823f19361e04c707f8c5a03bb7197ba9d9737f5a5624d7dc9181900360800190a1600854610db3906001600160a01b03163330866114be565b61116b60405180610160016040528060008152602001600081526020016000815260200160008152602001600081526020016000815260200160008152602001600081526020016000815260200160008152602001600081525090565b604051806101600160405280601a548152602001601b5481526020016000548152602001600154815260200160025481526020016003548152602001600454815260200160055481526020016006548152602001601c548152602001600754815250905090565b61124e604051806101c001604052806000815260200160008152602001600081526020016000815260200160008152602001600081526020016000815260200160008152602001600081526020016000815260200160008019168152602001600080191681526020016000151581526020016000151581525090565b50604080516101c081018252601d548152601e546020820152600e5491810191909152600f546060820152601054608082015260115460a082015260125460c082015260135460e08201526014546101008083019190915260155461012083015260165461014083015260175461016083015260185460ff80821615156101808501529190041615156101a082015290565b60105442101561130357604051630aabc7c160e11b815260040160405180910390fd5b565b60185460ff161561130357604051638019358960e01b815260040160405180910390fd5b60145460000361130357604051630efd8e0d60e21b815260040160405180910390fd5b601854610100900460ff1661130357604051630479472b60e51b815260040160405180910390fd5b6040516001600160a01b03838116602483015260448201839052610db391859182169063a9059cbb906064015b604051602081830303815290604052915060e01b6020820180516001600160e01b038381831617835250505050611bcd565b6014541561130357601454604051632d459d4360e01b81526004016113fa91815260200190565b60405180910390fd5b600f54421015611303576040516313365f7760e01b815260040160405180910390fd5b6017541561130357601754604051630ce9692f60e41b81526004016113fa91815260200190565b601454600003611470576040516324f7856360e01b815260040160405180910390fd5b60145481146109675760405163fda813a360e01b8152600481018290526024016113fa565b601854610100900460ff1615611303576040516323e6655160e11b815260040160405180910390fd5b6040516001600160a01b03848116602483015283811660448301526064820183905261103d9186918216906323b872dd906084016113a1565b60185460ff1661130357604051639903ed3760e01b815260040160405180910390fd5b60006115296020830183611f1a565b6001600160a01b031614806115565750600061154b6060830160408401611f1a565b6001600160a01b0316145b806115795750600061156e6080830160608401611f1a565b6001600160a01b0316145b8061159c5750600061159160a0830160808401611f1a565b6001600160a01b0316145b806115bf575060006115b460c0830160a08401611f1a565b6001600160a01b0316145b156115dd57604051638474420160e01b815260040160405180910390fd5b813515806115ed57506020820135155b806115fa57506040820135155b8061160757506060820135155b8061161457506080820135155b806116225750610140820135155b156116405760405163ad3e811360e01b815260040160405180910390fd5b6276a700823511806116585750621275008260200135115b8061166957506276a7008260400135115b8061167a5750621275008260600135115b8061168b575062f0c8a08260800135115b156116a957604051630373c09360e51b815260040160405180910390fd5b610e10823510806116bf5750610e108260200135105b806116cf5750610e108260400135105b806116df5750610e108260600135105b806116ef5750610e108260800135105b156104e457604051630373c09360e51b815260040160405180910390fd5b60115442101561130357604051631a7fddef60e01b815260040160405180910390fd5b6014541561130357604051630a1bb29160e01b815260040160405180910390fd5b604080516001600160a01b038616602082015290810184905260009060600160408051601f198184030181528282528051602091820120908301520160408051601f1981840301815282825280516020918201206001600160a01b03808a16600090815260198452849020608086018552805486526001015460ff8082161515878601526101008204161515868601526201000090041660608501528251868302818101840190945286815290945061182d92909187918791829190850190849080828437600092019190915250506017549150859050611c3e565b61185557604051638b68cb5760e01b81526001600160a01b03871660048201526024016113fa565b80604001511561188357604051633b8936cf60e11b81526001600160a01b03871660048201526024016113fa565b80516000036118b05760405163f224fc4960e01b81526001600160a01b03871660048201526024016113fa565b505050505050565b601054421061130357604051632a65994560e21b815260040160405180910390fd5b604080516001600160a01b038616602082015290810184905260009060600160408051601f198184030181528282528051602091820120908301520160408051601f1981840301815282825280516020918201206001600160a01b03808a16600090815260198452849020608086018552805486526001015460ff808216151587860152610100820416151586860152620100009004166060850152825186830281810184019094528681529094506119b692909187918791829190850190849080828437600092019190915250506016549150859050611c3e565b6119de576040516375774fbf60e11b81526001600160a01b03871660048201526024016113fa565b80602001511561188357604051634f051ead60e11b81526001600160a01b03871660048201526024016113fa565b600d54604051636ddc243d60e01b81526001600160a01b03868116600483015267ffffffffffffffff80871660248401528086166044840152841660648301526000921690636ddc243d906084016020604051808303816000875af1158015611a79573d6000803e3d6000fd5b505050506040513d601f19601f82011682018060405250810190611a9d9190612344565b95945050505050565b6040516bffffffffffffffffffffffff193360601b166020820152600090611b1490603401604051602081830303815290604052805190602001207f19457468657265756d205369676e6564204d6573736167653a0a3332000000006000908152601c91909152603c902090565b600c549091506001600160a01b0316611b2d8284611c54565b6001600160a01b0316146104e457604051638baa579f60e01b815260040160405180910390fd5b601e544210158015611b675750600e5442105b156113035760405163043f49dd60e11b815260040160405180910390fd5b600f54421061130357604051634298ddab60e11b815260040160405180910390fd5b600754811015610967576040516328c3d6d560e01b8152600481018290526024016113fa565b600080602060008451602086016000885af180611bf0576040513d6000823e3d81fd5b50506000513d91508115611c08578060011415611c15565b6001600160a01b0384163b155b1561103d57604051635274afe760e01b81526001600160a01b03851660048201526024016113fa565b600082611c4b8584611c80565b14949350505050565b600080600080611c648686611cc3565b925092509250611c748282611d10565b50909150505b92915050565b600081815b8451811015611cbb57611cb182868381518110611ca457611ca4612361565b6020026020010151611dc9565b9150600101611c85565b509392505050565b60008060008351604103611cfd5760208401516040850151606086015160001a611cef88828585611dfb565b955095509550505050611d09565b50508151600091506002905b9250925092565b6000826003811115611d2457611d24612377565b03611d2d575050565b6001826003811115611d4157611d41612377565b03611d5f5760405163f645eedf60e01b815260040160405180910390fd5b6002826003811115611d7357611d73612377565b03611d945760405163fce698f760e01b8152600481018290526024016113fa565b6003826003811115611da857611da8612377565b036104e4576040516335e2f38360e21b8152600481018290526024016113fa565b6000818310611de5576000828152602084905260409020611df4565b60008381526020839052604090205b9392505050565b600080807f7fffffffffffffffffffffffffffffff5d576e7357a4501ddfe92f46681b20a0841115611e365750600091506003905082611ec0565b604080516000808252602082018084528a905260ff891692820192909252606081018790526080810186905260019060a0016020604051602081039080840390855afa158015611e8a573d6000803e3d6000fd5b5050604051601f1901519150506001600160a01b038116611eb657506000925060019150829050611ec0565b9250600091508190505b9450945094915050565b60008060408385031215611edd57600080fd5b50508035926020909101359150565b600060208284031215611efe57600080fd5b5035919050565b6001600160a01b038116811461096757600080fd5b600060208284031215611f2c57600080fd5b8135611df481611f05565b600080828403610220811215611f4c57600080fd5b61016080821215611f5c57600080fd5b84935060c061015f1983011215611f7257600080fd5b92959390920193505050565b600080600060408486031215611f9357600080fd5b83359250602084013567ffffffffffffffff80821115611fb257600080fd5b818601915086601f830112611fc657600080fd5b813581811115611fd557600080fd5b8760208260051b8501011115611fea57600080fd5b6020830194508093505050509250925092565b60008060006060848603121561201257600080fd5b833561201d81611f05565b9250602084013561202d81611f05565b929592945050506040919091013590565b634e487b7160e01b600052604160045260246000fd5b6000806040838503121561206757600080fd5b82359150602083013567ffffffffffffffff8082111561208657600080fd5b818501915085601f83011261209a57600080fd5b8135818111156120ac576120ac61203e565b604051601f8201601f19908116603f011681019083821181831017156120d4576120d461203e565b816040528281528860208487010111156120ed57600080fd5b8260208601602083013760006020848301015280955050505050509250929050565b60006101c082019050825182526020830151602083015260408301516040830152606083015160608301526080830151608083015260a083015160a083015260c083015160c083015260e083015160e0830152610100808401518184015250610120808401518184015250610140808401518184015250610160808401518184015250610180808401516121a68285018215159052565b50506101a0928301511515919092015290565b634e487b7160e01b600052601160045260246000fd5b8082028115828204841417611c7a57611c7a6121b9565b60008261220357634e487b7160e01b600052601260045260246000fd5b500490565b81810381811115611c7a57611c7a6121b9565b60006020828403121561222d57600080fd5b815160ff81168114611df457600080fd5b600181815b8085111561227957816000190482111561225f5761225f6121b9565b8085161561226c57918102915b93841c9390800290612243565b509250929050565b60008261229057506001611c7a565b8161229d57506000611c7a565b81600181146122b357600281146122bd576122d9565b6001915050611c7a565b60ff8411156122ce576122ce6121b9565b50506001821b611c7a565b5060208310610133831016604e8410600b84101617156122fc575081810a611c7a565b612306838361223e565b806000190482111561231a5761231a6121b9565b029392505050565b6000611df460ff841683612281565b80820180821115611c7a57611c7a6121b9565b60006020828403121561235657600080fd5b8151611df481611f05565b634e487b7160e01b600052603260045260246000fd5b634e487b7160e01b600052602160045260246000fdfea2646970667358221220a0667a24a26b9cb85b3ea5857bc317f981c6fb5b7f28db99b1a1485d93bad16364736f6c634300081900336080604052348015600f57600080fd5b506016601a565b60ca565b7ff0c57e16840df040f15088dc2f81fe391c3923bec73e23a9662efc9c229c6a00805468010000000000000000900460ff161560695760405163f92ee8a960e01b815260040160405180910390fd5b80546001600160401b039081161460c75780546001600160401b0319166001600160401b0390811782556040519081527fc7f505b2f371ae2175ee4913f4499e1f2633a7b5936321eed1cdaeb6115181d29060200160405180910390a15b50565b6121d4806100d96000396000f3fe608060405234801561001057600080fd5b50600436106101165760003560e01c8063b19164d0116100a2578063e5ccd91b11610071578063e5ccd91b1461035b578063e63ea40814610363578063e7e1049014610376578063f37bfe741461037e578063f9020e331461039157600080fd5b8063b19164d01461031a578063c366eff81461032d578063c5e9339f14610335578063c684e70a1461034857600080fd5b806356f55bab116100e957806356f55bab146101ff578063590e1ae314610207578063689513a01461020f57806390aa0b0f14610230578063a96f86681461031257600080fd5b80634d04ea5b1461011b5780634e474163146101305780634e9148a6146101435780635111e98614610156575b600080fd5b61012e610129366004611d67565b6103a6565b005b61012e61013e366004611dcc565b6105c5565b61012e610151366004611e4b565b6106da565b6101b4610164366004611e86565b6012602052600090815260409020805460018201546002830154600384015460048501546005860154600690960154949593949293919290919060ff81169061010090046001600160a01b031688565b604080519889526020890197909752958701949094526060860192909252608085015260a0840152151560c08301526001600160a01b031660e0820152610100015b60405180910390f35b61012e6107a2565b61012e6108ef565b61022261021d366004611ea3565b6109a2565b6040519081526020016101f6565b6103056040805161016081018252600080825260208201819052918101829052606081018290526080810182905260a0810182905260c0810182905260e081018290526101008101829052610120810182905261014081019190915250604080516101608101825260005481526001546020820152600254918101919091526003546060820152600454608082015260055460a082015260065460c08201526007546001600160a01b0390811660e083015260085481166101008301526009548116610120830152600a541661014082015290565b6040516101f69190611ee5565b61012e610b81565b61012e610328366004611dcc565b610c74565b61012e610d64565b61012e610343366004611f95565b610e18565b61012e610356366004611fae565b610e8e565b61012e610f88565b61012e610371366004611fd0565b61101f565b61012e6110ae565b61012e61038c366004612011565b61113d565b6103996111d5565b6040516101f6919061203d565b7ff0c57e16840df040f15088dc2f81fe391c3923bec73e23a9662efc9c229c6a008054600160401b810460ff16159067ffffffffffffffff166000811580156103ec5750825b905060008267ffffffffffffffff1660011480156104095750303b155b905081158015610417575080155b156104355760405163f92ee8a960e01b815260040160405180910390fd5b845467ffffffffffffffff19166001178555831561045f57845460ff60401b1916600160401b1785555b8535600055602086013560015560408601356002556060860135600355608086013560045560a086013560055560c08601356006556104a5610100870160e08801611e86565b600780546001600160a01b0319166001600160a01b03929092169190911790556104d761012087016101008801611e86565b600880546001600160a01b0319166001600160a01b039290921691909117905561050961014087016101208801611e86565b600980546001600160a01b0319166001600160a01b039290921691909117905561053b61016087016101408801611e86565b600a80546001600160a01b03929092166001600160a01b03199092169190911790556011805462ff0000191662010000179055610577866112a6565b83156105bd57845460ff60401b19168555604051600181527fc7f505b2f371ae2175ee4913f4499e1f2633a7b5936321eed1cdaeb6115181d29060200160405180910390a15b505050505050565b6105cd6113a3565b6105d56113c9565b336000908152601260205260408120600e8054919289926105f79084906120cd565b90915550508054879082906000906106109084906120cd565b90915550506002810154600003610628574260028201555b8581600301541461063b57600381018690555b8481600401541461064e57600481018590555b8381600501541461066157600581018490555b61066c3384846113f1565b60408051888152336020820152908101869052606081018590524260808201527f1a67a76a9e304ee20506c8fcce419857970b8af84bc88f250510f3042caad1d69060a00160405180910390a16007546106d1906001600160a01b031633308a611558565b50505050505050565b6009546001600160a01b031633146107055760405163f3b1b93560e01b815260040160405180910390fd5b61070d6113a3565b61071784846115c5565b600b80546001600160a01b0319166001600160a01b038616179055600d839055600c829055600f81905560115462010000900460ff161561075f576011805462ff0000191690555b7f0d1e7d410b8c1f5458a5aed9b93922c886b6cba9e90562aefd5eebd46fb00c5d8484848460405161079494939291906120e0565b60405180910390a150505050565b6107aa6113a3565b6107b333611647565b3360009081526012602052604081206004810154600d54919291612710916107da91612106565b6107e4919061211d565b90506000612710600354836107f99190612106565b610803919061211d565b90506000610811828461213f565b9050600061082733600c5460015460025461173b565b60068601805460ff196001600160a01b03841661010002166001600160a81b03199091161760011790556040519091507ff923792c0048215a0ec9c4a916271549f6ef7be7caddd9438ea7edfef2e6e38a906108ac90849086903390869093845260208401929092526001600160a01b03908116604084015216606082015260800190565b60405180910390a1600b546108cb906001600160a01b031682846117d5565b82156108e857600b546108e8906001600160a01b031633856117d5565b5050505050565b6108f76113a3565b61090033611806565b33600090815260126020526040812080549091819003610933576040516316365d5f60e01b815260040160405180910390fd5b6000808355600e805483929061094a90849061213f565b9091555050604080518281523360208201527f68537ca51c1b2cb464f6b47b5ab5fed672fd221e6745c3784c21d1cf127693b6910160405180910390a160075461099e906001600160a01b031633836117d5565b5050565b6008546000906001600160a01b031633146109d057604051635d9c72eb60e01b815260040160405180910390fd5b6109d86113a3565b60005b82811015610ac457610a128484838181106109f8576109f8612152565b9050602002016020810190610a0d9190611e86565b6118b0565b610a41848483818110610a2757610a27612152565b9050602002016020810190610a3c9190611e86565b611959565b600060126000868685818110610a5957610a59612152565b9050602002016020810190610a6e9190611e86565b6001600160a01b03166001600160a01b0316815260200190815260200160002090508060000154816001016000828254610aa891906120cd565b90915550508054610ab990846120cd565b9250506001016109db565b508060106000828254610ad791906120cd565b92505081905550600061271082600454610af19190612106565b610afb919061211d565b90507f3ae35a082057a5be9e6d5f35595c7af95c80661ebf74fdbb3790f6ef55c75e4f82604051610b2e91815260200190565b60405180910390a1610b5733610b44838561213f565b6007546001600160a01b031691906117d5565b8015610b7a57600954600754610b7a916001600160a01b039182169116836117d5565b5092915050565b3360009081526012602090815260409182902082516101008082018552825482526001830154938201939093526002820154938101939093526003810154606084015260048101546080840152600581015460a08401526006015460ff8116151560c0840152046001600160a01b031660e08201819052610c1557604051638474420160e01b815260040160405180910390fd5b60e0810151600b54604051631916558760e01b81526001600160a01b039182166004820152911690631916558790602401600060405180830381600087803b158015610c6057600080fd5b505af11580156108e8573d6000803e3d6000fd5b610c7c6113a3565b336000908152601260205260408120600e805491928992610c9e90849061213f565b9091555050805487908290600090610cb790849061213f565b909155505060038101548614610ccf57600381018690555b84816004015414610ce257600481018590555b83816005015414610cf557600581018490555b610d00338484611a31565b60408051888152336020820152908101869052606081018590524260808201527fd84decea969f0c829ea42947cd8c6f90667f2eb8458cf4a499c0f1d4983950439060a00160405180910390a16007546106d1906001600160a01b031633896117d5565b610d6c611b93565b3360009081526012602052604081205490819003610d9d5760405163843ce46b60e01b815260040160405180910390fd5b336000908152601260205260408120819055600e8054839290610dc190849061213f565b9091555050604080518281523360208201527f3807f78213e07f1e91138875c27db2a63adf27577192e6d8617910fb3b755b13910160405180910390a1600754610e15906001600160a01b031633836117d5565b50565b6008546001600160a01b03163314610e4357604051635d9c72eb60e01b815260040160405180910390fd5b610e4b6113a3565b610e53611bb6565b60068190556040518181527fac6ccaebceb7db9d2c79237384a321e39219912d1cbb6a95c09ae874c6ca4a8d9060200160405180910390a150565b6008546001600160a01b03163314610eb957604051635d9c72eb60e01b815260040160405180910390fd5b610ec16113a3565b610eca82611bd7565b61271082600554610edb9190612106565b610ee5919061211d565b8114610f035760405162a4671960e71b815260040160405180910390fd5b6011805461ff00191661010017905560408051838152602081018390527f8fb31ceaccebf6ba3c9c15e8959a4b82e39bf26a144aa885ae5e82a1d1b9c16c910160405180910390a1600b54610f63906001600160a01b0316333085611558565b801561099e57600954600b5461099e916001600160a01b039182169133911684611558565b6008546001600160a01b03163314610fb357604051635d9c72eb60e01b815260040160405180910390fd5b610fbb611c48565b6011805460ff62010000808304821615810262ff00001990931692909217928390556040517f45feb7652572c788bb34f6d73371acf0a76228b5f94a6267ab079c67448ee662936110159390049091161515815260200190565b60405180910390a1565b6009546001600160a01b0316331461104a5760405163f3b1b93560e01b815260040160405180910390fd5b604080516001600160a01b038086168252841660208201529081018290527ff24ef89f38eadc1bde50701ad6e4d6d11a2dc24f7cf834a486991f38833285049060600160405180910390a16110a96001600160a01b03831684836117d5565b505050565b6008546001600160a01b031633146110d957604051635d9c72eb60e01b815260040160405180910390fd5b6110e16113a3565b6010546011805460ff191660011790556040517f0943552b21b3bcfb11bcb560653f2703faf49c76ac2a791e285b130c0117678a90600090a18015610e15576000601055600754610e15906001600160a01b0316333084611558565b6008546001600160a01b0316331461116857604051635d9c72eb60e01b815260040160405180910390fd5b6111706113a3565b611178611bb6565b611180611c48565b60018390556002829055600381905560408051848152602081018490529081018290527f58e28d925e2c26857c5c2ca9745e16c543063e7a0cfe5eb61045cce9a465466b9060600160405180910390a1505050565b61123360405180610120016040528060006001600160a01b0316815260200160008152602001600081526020016000815260200160008152602001600081526020016000151581526020016000151581526020016000151581525090565b506040805161012081018252600b546001600160a01b03168152600c546020820152600d5491810191909152600e546060820152600f54608082015260105460a082015260115460ff808216151560c08401526101008083048216151560e0850152620100009092041615159082015290565b60006112b9610100830160e08401611e86565b6001600160a01b031614806112e8575060006112dd61012083016101008401611e86565b6001600160a01b0316145b8061130d5750600061130261014083016101208401611e86565b6001600160a01b0316145b806113325750600061132761016083016101408401611e86565b6001600160a01b0316145b1561135057604051638474420160e01b815260040160405180910390fd5b80351580611360575060c0810135155b1561137e5760405163ad3e811360e01b815260040160405180910390fd5b6212750081351115610e1557604051630373c09360e51b815260040160405180910390fd5b60115460ff16156113c757604051638019358960e01b815260040160405180910390fd5b565b60115462010000900460ff166113c757604051625abecd60e71b815260040160405180910390fd5b6001600160a01b0380841660009081526012602090815260408083208151610100808201845282548252600183015482860152600283015482850152600383015460608301819052600484015460808401819052600585015460a0850181905260069095015460ff8116151560c08601529290920490971660e083015292519095611482948a9491939192016120e0565b60408051601f198184030181528282528051602091820120908301520160405160208183030381529060405280519060200120905081606001518260000151146114ef576040516370d2e4b760e11b81526001600160a01b03861660048201526024015b60405180910390fd5b611530848480806020026020016040519081016040528093929190818152602001838360200280828437600092019190915250506006549150849050611c69565b6108e8576040516370d2e4b760e11b81526001600160a01b03861660048201526024016114e6565b6040516001600160a01b0384811660248301528381166044830152606482018390526115bf9186918216906323b872dd906084015b604051602081830303815290604052915060e01b6020820180516001600160e01b038381831617835250505050611c7f565b50505050565b816001600160a01b03166318160ddd6040518163ffffffff1660e01b8152600401602060405180830381865afa158015611603573d6000803e3d6000fd5b505050506040513d601f19601f820116820180604052508101906116279190612168565b81101561099e576040516334bbd58560e01b815260040160405180910390fd5b6001600160a01b0380821660009081526012602090815260409182902082516101008082018552825482526001830154938201939093526002820154938101939093526003810154606084015260048101546080840152600581015460a08401526006015460ff808216151560c08501529082900490931660e083015260115491929104166116e95760405163130f6b4360e31b815260040160405180910390fd5b8060c001511561171757604051634f051ead60e11b81526001600160a01b03831660048201526024016114e6565b805160000361099e57604051633177dde360e21b81523360048201526024016114e6565b600a54604051636ddc243d60e01b81526001600160a01b03868116600483015267ffffffffffffffff80871660248401528086166044840152841660648301526000921690636ddc243d906084016020604051808303816000875af11580156117a8573d6000803e3d6000fd5b505050506040513d601f19601f820116820180604052508101906117cc9190612181565b95945050505050565b6040516001600160a01b038381166024830152604482018390526110a991859182169063a9059cbb9060640161158d565b6001600160a01b038082166000908152601260209081526040808320815161010080820184528254825260018301549482019490945260028201549281018390526003820154606082015260048201546080820152600582015460a082015260069091015460ff8116151560c08301529290920490931660e08201529054909161189091906120cd565b42111561099e57604051632a65994560e21b815260040160405180910390fd5b6001600160a01b038082166000908152601260209081526040808320815161010080820184528254825260018301549482019490945260028201549281018390526003820154606082015260048201546080820152600582015460a082015260069091015460ff8116151560c08301529290920490931660e08201529054909161193a91906120cd565b421161099e57604051630aabc7c160e11b815260040160405180910390fd5b6001600160a01b0380821660009081526012602090815260408083208151610100808201845282548083526001840154958301959095526002830154938201939093526003820154606082015260048201546080820152600582015460a082015260069091015460ff8116151560c08301529190910490931660e08401529003611a0157604051633177dde360e21b81526001600160a01b03831660048201526024016114e6565b805160208201510361099e576040516392f1dcf760e01b81526001600160a01b03831660048201526024016114e6565b6001600160a01b0380841660009081526012602090815260408083208151610100808201845282548252600183015482860152600283015482850152600383015460608301819052600484015460808401819052600585015460a0850181905260069095015460ff8116151560c08601529290920490971660e083015292519095611ac2948a9491939192016120e0565b60408051601f19818403018152828252805160209182012090830152016040516020818303038152906040528051906020012090508160600151826000015114611b2a57604051635e7272cd60e11b81526001600160a01b03861660048201526024016114e6565b611b6b848480806020026020016040519081016040528093929190818152602001838360200280828437600092019190915250506006549150849050611c69565b6108e857604051635e7272cd60e11b81526001600160a01b03861660048201526024016114e6565b60115460ff166113c757604051639903ed3760e01b815260040160405180910390fd5b601054156113c757604051638aada42160e01b815260040160405180910390fd5b600f54600003611bfa576040516324f7856360e01b815260040160405180910390fd5b601154610100900460ff1615611c23576040516323e6655160e11b815260040160405180910390fd5b600f548114610e155760405163fda813a360e01b8152600481018290526024016114e6565b600f54156113c757604051632801533160e21b815260040160405180910390fd5b600082611c768584611cf0565b14949350505050565b600080602060008451602086016000885af180611ca2576040513d6000823e3d81fd5b50506000513d91508115611cba578060011415611cc7565b6001600160a01b0384163b155b156115bf57604051635274afe760e01b81526001600160a01b03851660048201526024016114e6565b600081815b8451811015611d2b57611d2182868381518110611d1457611d14612152565b6020026020010151611d35565b9150600101611cf5565b5090505b92915050565b6000818310611d51576000828152602084905260409020611d60565b60008381526020839052604090205b9392505050565b60006101608284031215611d7a57600080fd5b50919050565b60008083601f840112611d9257600080fd5b50813567ffffffffffffffff811115611daa57600080fd5b6020830191508360208260051b8501011115611dc557600080fd5b9250929050565b60008060008060008060a08789031215611de557600080fd5b86359550602087013594506040870135935060608701359250608087013567ffffffffffffffff811115611e1857600080fd5b611e2489828a01611d80565b979a9699509497509295939492505050565b6001600160a01b0381168114610e1557600080fd5b60008060008060808587031215611e6157600080fd5b8435611e6c81611e36565b966020860135965060408601359560600135945092505050565b600060208284031215611e9857600080fd5b8135611d6081611e36565b60008060208385031215611eb657600080fd5b823567ffffffffffffffff811115611ecd57600080fd5b611ed985828601611d80565b90969095509350505050565b600061016082019050825182526020830151602083015260408301516040830152606083015160608301526080830151608083015260a083015160a083015260c083015160c083015260e0830151611f4860e08401826001600160a01b03169052565b50610100838101516001600160a01b038116848301525050610120838101516001600160a01b038116848301525050610140838101516001600160a01b038116848301525b505092915050565b600060208284031215611fa757600080fd5b5035919050565b60008060408385031215611fc157600080fd5b50508035926020909101359150565b600080600060608486031215611fe557600080fd5b8335611ff081611e36565b9250602084013561200081611e36565b929592945050506040919091013590565b60008060006060848603121561202657600080fd5b505081359360208301359350604090920135919050565b60006101208201905060018060a01b0383511682526020830151602083015260408301516040830152606083015160608301526080830151608083015260a083015160a083015260c0830151151560c083015260e08301516120a360e084018215159052565b506101008381015180151584830152611f8d565b634e487b7160e01b600052601160045260246000fd5b80820180821115611d2f57611d2f6120b7565b6001600160a01b0394909416845260208401929092526040830152606082015260800190565b8082028115828204841417611d2f57611d2f6120b7565b60008261213a57634e487b7160e01b600052601260045260246000fd5b500490565b81810381811115611d2f57611d2f6120b7565b634e487b7160e01b600052603260045260246000fd5b60006020828403121561217a57600080fd5b5051919050565b60006020828403121561219357600080fd5b8151611d6081611e3656fea2646970667358221220ceeb54b470cee2231aaba3fcbbf716c85063797aa2cb5acf3a65c064b828108e64736f6c634300081900336080604052348015600f57600080fd5b506016601a565b60ca565b7ff0c57e16840df040f15088dc2f81fe391c3923bec73e23a9662efc9c229c6a00805468010000000000000000900460ff161560695760405163f92ee8a960e01b815260040160405180910390fd5b80546001600160401b039081161460c75780546001600160401b0319166001600160401b0390811782556040519081527fc7f505b2f371ae2175ee4913f4499e1f2633a7b5936321eed1cdaeb6115181d29060200160405180910390a15b50565b6127f4806100d96000396000f3fe608060405234801561001057600080fd5b506004361061012c5760003560e01c8063b14d8bd5116100ad578063e7e1049011610071578063e7e1049014610356578063e8d214531461035e578063ee36f21b14610371578063f5af582d14610386578063f9020e331461039957600080fd5b8063b14d8bd51461030d578063bcb520bd14610315578063c043586a14610328578063d5cef1331461033b578063e63ea4081461034357600080fd5b806349bfdafd116100f457806349bfdafd146102635780635111e9861461027657806389bd6265146102ea578063a96f8668146102fd578063ada14d771461030557600080fd5b806306b31e2c1461013157806311c0dcaa1461021d57806317727a001461023e578063245b5e6b146102485780632a8b6fae1461025b575b600080fd5b6101b96040805160c081018252600080825260208201819052918101829052606081018290526080810182905260a0810191909152506040805160c0810182526008546001600160a01b03908116825260095481166020830152600a54811692820192909252600b5482166060820152600c5482166080820152600d5490911660a082015290565b604051610214919081516001600160a01b03908116825260208084015182169083015260408084015182169083015260608084015182169083015260808084015182169083015260a092830151169181019190915260c00190565b60405180910390f35b61023061022b366004612215565b6103ae565b604051908152602001610214565b610246610457565b005b610246610256366004612237565b610558565b61024661060e565b610246610271366004612269565b610691565b6102bb610284366004612297565b6019602052600090815260409020805460019091015460ff808216916101008104909116906201000090046001600160a01b031684565b604080519485529215156020850152901515918301919091526001600160a01b03166060820152608001610214565b6102466102f8366004612215565b61070f565b61024661083b565b610246610941565b6102466109f6565b6102466103233660046122bb565b610a64565b610246610336366004612379565b610b36565b610246610c29565b610246610351366004612486565b610cd0565b610246610d5a565b61024661036c3660046122bb565b610d97565b610379610eb6565b60405161021491906124c7565b61024661039436600461253f565b610f2a565b6103a1611206565b6040516102149190612586565b60006103b8611304565b601c54604051633a89a52360e01b815260048101859052601a546024820152601b54604482015260648101919091526084810183905273__$edfbc930edab1df5637e2c8827573bd861$__90633a89a5239060a401602060405180830381865af415801561042a573d6000803e3d6000fd5b505050506040513d601f19601f8201168201806040525081019061044e9190612626565b90505b92915050565b600a546001600160a01b0316331461048257604051635d9c72eb60e01b815260040160405180910390fd5b61048a611327565b61049261134a565b61049a61136e565b6009546001600160a01b0316156104b3576104b3611391565b601554600554600090612710906104cb908490612655565b6104d5919061266c565b604080518481523360208201529192507f2d6f01e5411cbd4277f423f351cb310dc3488eec3993da5a4ae9276837d4b82f910160405180910390a16105313361051e838561268e565b6008546001600160a01b031691906113b9565b801561055457600b54600854610554916001600160a01b039182169116836113b9565b5050565b600b546001600160a01b031633146105835760405163f3b1b93560e01b815260040160405180910390fd5b61058b61134a565b610593611418565b61059b611327565b6105a48161143b565b6105ac61152e565b601684905560148390556015829055601c8190556040805185815260208101859052908101839052606081018290527f15002cf84c247aa6d0a704e65b626e112d5204efb8b2bcc20ac504b336fef5a69060800160405180910390a150505050565b600b546001600160a01b031633146106395760405163f3b1b93560e01b815260040160405180910390fd5b61064161134a565b61064961155e565b610651611327565b61065961152e565b601d805460ff191660011790556040517f7e3cf79491a274018c7f265a2e16256849ea1679173c4b19f0fea8cb7c34a87a90600090a1565b600b546001600160a01b031633146106bc5760405163f3b1b93560e01b815260040160405180910390fd5b6106c461134a565b6106cc611582565b6106d46115a5565b60178190556040518181527f1d05456b2ffc08dcb82751ae9e81ca9abf41f6579406fa5f5b9939abbb51cf7f9060200160405180910390a150565b600a546001600160a01b0316331461073a57604051635d9c72eb60e01b815260040160405180910390fd5b6009546001600160a01b031661076357604051632c7efdd160e21b815260040160405180910390fd5b61076c826115cc565b61077461134a565b61077c611614565b6018805461ff0019166101001790556006546127109061079d908490612655565b6107a7919061266c565b81146107c55760405162a4671960e71b815260040160405180910390fd5b60408051838152602081018390527f8fb31ceaccebf6ba3c9c15e8959a4b82e39bf26a144aa885ae5e82a1d1b9c16c910160405180910390a1600954610816906001600160a01b031633308561163d565b801561055457600b54600954610554916001600160a01b03918216913391168461163d565b6009546001600160a01b031661086457604051632c7efdd160e21b815260040160405180910390fd5b3360009081526019602090815260409182902082516080810184528154815260019091015460ff80821615159383019390935261010081049092161515928101929092526201000090046001600160a01b0316606082018190526108db57604051638474420160e01b815260040160405180910390fd5b6060810151600954604051631916558760e01b81526001600160a01b039182166004820152911690631916558790602401600060405180830381600087803b15801561092657600080fd5b505af115801561093a573d6000803e3d6000fd5b5050505050565b610949611676565b336000908152601960205260408120549081900361097a5760405163843ce46b60e01b815260040160405180910390fd5b3360009081526019602052604081208190556013805483929061099e90849061268e565b9091555050604080518281523360208201527f3807f78213e07f1e91138875c27db2a63adf27577192e6d8617910fb3b755b1391015b60405180910390a16008546109f3906001600160a01b031633836113b9565b50565b6109fe611699565b610a0661134a565b6009546001600160a01b031615610a2457610a1f611614565b610a2c565b610a2c6116bc565b6018805460ff191660011790556040517f0943552b21b3bcfb11bcb560653f2703faf49c76ac2a791e285b130c0117678a90600090a1565b610a6c611582565b610a7461134a565b610a80338484846116dd565b336000908152601960205260409020600101805461ff0019166101001790558215610b31573360009081526019602052604081208054859290610ac490849061268e565b925050819055508260136000828254610add919061268e565b9091555050604080518481523360208201527f4a475b512b2940a96ef545685fe93076a8d71b278f57c3206f204dc7e9049acc910160405180910390a1600854610b31906001600160a01b031633856113b9565b505050565b610b3f81611844565b60008080610b4f858701876126a1565b925092509250610b5e826118f2565b610b6781611912565b610b6f611a1d565b610b7761134a565b610b8087611a3f565b8660136000828254610b9291906126f7565b90915550503360009081526019602052604081208054899290610bb69084906126f7565b909155505060408051888152602081018590529081018390523360608201524260808201527f9e2b3387341690ff22eba0ca100d437b6c0e24ca49e13174fb09b991b8050e469060a00160405180910390a1600854610c20906001600160a01b031633308a61163d565b50505050505050565b610c31611a65565b610c3961134a565b610c41611582565b3360009081526019602052604081205490819003610c72576040516316365d5f60e01b815260040160405180910390fd5b33600090815260196020526040812081905560138054839290610c9690849061268e565b9091555050604080518281523360208201527f68537ca51c1b2cb464f6b47b5ab5fed672fd221e6745c3784c21d1cf127693b691016109d4565b600b546001600160a01b03163314610cfb5760405163f3b1b93560e01b815260040160405180910390fd5b604080516001600160a01b038086168252841660208201529081018290527ff24ef89f38eadc1bde50701ad6e4d6d11a2dc24f7cf834a486991f38833285049060600160405180910390a1610b316001600160a01b03831684836113b9565b600a546001600160a01b03163314610d8557604051635d9c72eb60e01b815260040160405180910390fd5b610d8d611a87565b610d9561155e565b565b6009546001600160a01b0316610dc057604051632c7efdd160e21b815260040160405180910390fd5b610dc861136e565b610dd433848484611ac2565b610ddc61134a565b610de4611699565b3360009081526019602052604090206001908101805460ff191690911790558215610b31576000610e1d33601254600354600454611bf4565b604080518681523360208201526001600160a01b0383168183015290519192507f4a05d5cbbd2a218b1587ca6133e262548c26dc0596c2178e5bac5812b1f9a610919081900360600190a133600090815260196020526040902060010180546001600160a01b03808416620100000262010000600160b01b031990921691909117909155600954610eb0911682866113b9565b50505050565b610ebe6121af565b5060408051610120810182526000548152600154602080830191909152600254828401526003546060830152600454608083015260055460a083015260065460c083015260075460e08301528251808401909352601a548352601b549083015261010081019190915290565b7ff0c57e16840df040f15088dc2f81fe391c3923bec73e23a9662efc9c229c6a008054600160401b810460ff16159067ffffffffffffffff16600081158015610f705750825b905060008267ffffffffffffffff166001148015610f8d5750303b155b905081158015610f9b575080155b15610fb95760405163f92ee8a960e01b815260040160405180910390fd5b845467ffffffffffffffff191660011785558315610fe357845460ff60401b1916600160401b1785555b863560005560208088013560015560408801356002556060880135600355608088013560045560a088013560055560c088013560065560e0880135600755610100880135601a55610120880135601b5561103f90870187612297565b600880546001600160a01b0319166001600160a01b039290921691909117905561106f6040870160208801612297565b600980546001600160a01b0319166001600160a01b039290921691909117905561109f6060870160408801612297565b600a80546001600160a01b0319166001600160a01b03929092169190911790556110cf6080870160608801612297565b600b80546001600160a01b0319166001600160a01b03929092169190911790556110ff60a0870160808801612297565b600c80546001600160a01b0319166001600160a01b039290921691909117905561112f60c0870160a08801612297565b600d80546001600160a01b0319166001600160a01b039290921691909117905542600e819055611161908835906126f7565b600f819055611175906020890135906126f7565b6010556020870135604088013511611192576010546011556111a8565b8660400135600f546111a491906126f7565b6011555b6011546012556111b88787611c8e565b8315610c2057845460ff60401b19168555604051600181527fc7f505b2f371ae2175ee4913f4499e1f2633a7b5936321eed1cdaeb6115181d29060200160405180910390a150505050505050565b61127b604051806101a0016040528060008152602001600081526020016000815260200160008152602001600081526020016000815260200160008152602001600081526020016000815260200160008019168152602001600080191681526020016000151581526020016000151581525090565b50604080516101a081018252600e548152600f546020820152601054918101919091526011546060820152601254608082015260135460a082015260145460c082015260155460e0820152601c546101008083019190915260165461012083015260175461014083015260185460ff808216151561016085015291900416151561018082015290565b601c54600003610d955760405163483d23a160e11b815260040160405180910390fd5b601054421015610d9557604051630aabc7c160e11b815260040160405180910390fd5b60185460ff1615610d9557604051638019358960e01b815260040160405180910390fd5b601454600003610d9557604051630efd8e0d60e21b815260040160405180910390fd5b601854610100900460ff16610d9557604051630479472b60e51b815260040160405180910390fd5b6040516001600160a01b03838116602483015260448201839052610b3191859182169063a9059cbb906064015b604051602081830303815290604052915060e01b6020820180516001600160e01b038381831617835250505050611eb7565b601d5460ff16610d9557604051634f21a3b760e01b815260040160405180910390fd5b601c541561145c576040516336fb475960e01b815260040160405180910390fd5b604080518082018252600181526002602082019081529151632bf48e2b60e21b815290516004820152905160248201526044810182905260009073__$edfbc930edab1df5637e2c8827573bd861$__9063afd238ac906064016040805180830381865af41580156114d1573d6000803e3d6000fd5b505050506040513d601f19601f820116820180604052508101906114f5919061270a565b601a5481519192501415806115105750601b54602082015114155b1561055457604051635508a9c960e01b815260040160405180910390fd5b60145415610d9557601454604051632d459d4360e01b815260040161155591815260200190565b60405180910390fd5b601d5460ff1615610d95576040516373b9f2c160e11b815260040160405180910390fd5b600f54421015610d95576040516313365f7760e01b815260040160405180910390fd5b60175415610d9557601754604051630ce9692f60e41b815260040161155591815260200190565b6014546000036115ef576040516324f7856360e01b815260040160405180910390fd5b60145481146109f35760405163fda813a360e01b815260048101829052602401611555565b601854610100900460ff1615610d95576040516323e6655160e11b815260040160405180910390fd5b6040516001600160a01b038481166024830152838116604483015260648201839052610eb09186918216906323b872dd906084016113e6565b60185460ff16610d9557604051639903ed3760e01b815260040160405180910390fd5b601154421015610d9557604051631a7fddef60e01b815260040160405180910390fd5b60145415610d9557604051630a1bb29160e01b815260040160405180910390fd5b604080516001600160a01b038616602082015290810184905260009060600160408051601f198184030181528282528051602091820120908301520160408051601f1981840301815282825280516020918201206001600160a01b03808a16600090815260198452849020608086018552805486526001015460ff808216151587860152610100820416151586860152620100009004166060850152825186830281810184019094528681529094506117b992909187918791829190850190849080828437600092019190915250506017549150859050611f28565b6117e157604051638b68cb5760e01b81526001600160a01b0387166004820152602401611555565b80604001511561180f57604051633b8936cf60e11b81526001600160a01b0387166004820152602401611555565b805160000361183c5760405163f224fc4960e01b81526001600160a01b0387166004820152602401611555565b505050505050565b6040516bffffffffffffffffffffffff193360601b1660208201526000906118b290603401604051602081830303815290604052805190602001207f19457468657265756d205369676e6564204d6573736167653a0a3332000000006000908152601c91909152603c902090565b600c549091506001600160a01b03166118cb8284611f3e565b6001600160a01b03161461055457604051638baa579f60e01b815260040160405180910390fd5b3381146109f3576040516381e69d9b60e01b815260040160405180910390fd5b604051637a5e545960e11b815273__$edfbc930edab1df5637e2c8827573bd861$__9063f4bca8b29061194990849060040161273c565b602060405180830381865af4158015611966573d6000803e3d6000fd5b505050506040513d601f19601f8201168201806040525081019061198a9190612753565b6119a757604051637bdf9a2360e01b815260040160405180910390fd5b601a54601b5460408051602081019390935282015260600160408051601f19818403018152828252805160209182012084518583015192850152918301529060600160405160208183030381529060405280519060200120146109f357604051637bdf9a2360e01b815260040160405180910390fd5b600f544210610d9557604051634298ddab60e11b815260040160405180910390fd5b6007548110156109f3576040516328c3d6d560e01b815260048101829052602401611555565b6010544210610d9557604051632a65994560e21b815260040160405180910390fd5b600a546001600160a01b03163314611ab257604051635d9c72eb60e01b815260040160405180910390fd5b611aba6116bc565b610a2c61134a565b604080516001600160a01b038616602082015290810184905260009060600160408051601f198184030181528282528051602091820120908301520160408051601f1981840301815282825280516020918201206001600160a01b03808a16600090815260198452849020608086018552805486526001015460ff80821615158786015261010082041615158686015262010000900416606085015282518683028181018401909452868152909450611b9e92909187918791829190850190849080828437600092019190915250506016549150859050611f28565b611bc6576040516375774fbf60e11b81526001600160a01b0387166004820152602401611555565b80602001511561180f57604051634f051ead60e11b81526001600160a01b0387166004820152602401611555565b600d54604051636ddc243d60e01b81526001600160a01b03868116600483015267ffffffffffffffff80871660248401528086166044840152841660648301526000921690636ddc243d906084016020604051808303816000875af1158015611c61573d6000803e3d6000fd5b505050506040513d601f19601f82011682018060405250810190611c859190612775565b95945050505050565b6000611c9d6020830183612297565b6001600160a01b03161480611cca57506000611cbf6060830160408401612297565b6001600160a01b0316145b80611ced57506000611ce26080830160608401612297565b6001600160a01b0316145b80611d1057506000611d0560a0830160808401612297565b6001600160a01b0316145b80611d3357506000611d2860c0830160a08401612297565b6001600160a01b0316145b15611d5157604051638474420160e01b815260040160405180910390fd5b81351580611d6157506020820135155b80611d6e57506040820135155b15611d8c5760405163ad3e811360e01b815260040160405180910390fd5b604051637a5e545960e11b81526101008301356004820152610120830135602482015273__$edfbc930edab1df5637e2c8827573bd861$__9063f4bca8b290604401602060405180830381865af4158015611deb573d6000803e3d6000fd5b505050506040513d601f19601f82011682018060405250810190611e0f9190612753565b611e2c57604051637bdf9a2360e01b815260040160405180910390fd5b6276a70082351180611e445750621275008260200135115b80611e55575062f0c8a08260400135115b15611e7357604051630373c09360e51b815260040160405180910390fd5b610e1082351080611e895750610e108260200135105b80611e995750610e108260400135105b1561055457604051630373c09360e51b815260040160405180910390fd5b600080602060008451602086016000885af180611eda576040513d6000823e3d81fd5b50506000513d91508115611ef2578060011415611eff565b6001600160a01b0384163b155b15610eb057604051635274afe760e01b81526001600160a01b0385166004820152602401611555565b600082611f358584611f68565b14949350505050565b600080600080611f4e8686611fab565b925092509250611f5e8282611ff8565b5090949350505050565b600081815b8451811015611fa357611f9982868381518110611f8c57611f8c612792565b60200260200101516120b1565b9150600101611f6d565b509392505050565b60008060008351604103611fe55760208401516040850151606086015160001a611fd7888285856120e0565b955095509550505050611ff1565b50508151600091506002905b9250925092565b600082600381111561200c5761200c6127a8565b03612015575050565b6001826003811115612029576120296127a8565b036120475760405163f645eedf60e01b815260040160405180910390fd5b600282600381111561205b5761205b6127a8565b0361207c5760405163fce698f760e01b815260048101829052602401611555565b6003826003811115612090576120906127a8565b03610554576040516335e2f38360e21b815260048101829052602401611555565b60008183106120cd57600082815260208490526040902061044e565b600083815260208390526040902061044e565b600080807f7fffffffffffffffffffffffffffffff5d576e7357a4501ddfe92f46681b20a084111561211b57506000915060039050826121a5565b604080516000808252602082018084528a905260ff891692820192909252606081018790526080810186905260019060a0016020604051602081039080840390855afa15801561216f573d6000803e3d6000fd5b5050604051601f1901519150506001600160a01b03811661219b575060009250600191508290506121a5565b9250600091508190505b9450945094915050565b6040518061012001604052806000815260200160008152602001600081526020016000815260200160008152602001600081526020016000815260200160008152602001612210604051806040016040528060008152602001600081525090565b905290565b6000806040838503121561222857600080fd5b50508035926020909101359150565b6000806000806080858703121561224d57600080fd5b5050823594602084013594506040840135936060013592509050565b60006020828403121561227b57600080fd5b5035919050565b6001600160a01b03811681146109f357600080fd5b6000602082840312156122a957600080fd5b81356122b481612282565b9392505050565b6000806000604084860312156122d057600080fd5b83359250602084013567ffffffffffffffff808211156122ef57600080fd5b818601915086601f83011261230357600080fd5b81358181111561231257600080fd5b8760208260051b850101111561232757600080fd5b6020830194508093505050509250925092565b634e487b7160e01b600052604160045260246000fd5b6040805190810167ffffffffffffffff811182821017156123735761237361233a565b60405290565b6000806000806060858703121561238f57600080fd5b8435935060208086013567ffffffffffffffff808211156123af57600080fd5b818801915088601f8301126123c357600080fd5b8135818111156123d257600080fd5b89848285010111156123e357600080fd5b9183019550909350604087013590808211156123fe57600080fd5b818801915088601f83011261241257600080fd5b8135818111156124245761242461233a565b604051601f8201601f19908116603f0116810190838211818310171561244c5761244c61233a565b816040528281528b8684870101111561246457600080fd5b8286860187830137600086848301015280965050505050505092959194509250565b60008060006060848603121561249b57600080fd5b83356124a681612282565b925060208401356124b681612282565b929592945050506040919091013590565b600061014082019050825182526020830151602083015260408301516040830152606083015160608301526080830151608083015260a083015160a083015260c083015160c083015260e083015160e0830152610100808401516125378285018280518252602090810151910152565b505092915050565b60008082840361020081121561255457600080fd5b6101408082121561256457600080fd5b84935060c061013f198301121561257a57600080fd5b92959390920193505050565b60006101a082019050825182526020830151602083015260408301516040830152606083015160608301526080830151608083015260a083015160a083015260c083015160c083015260e083015160e0830152610100808401518184015250610120808401518184015250610140808401518184015250610160808401516126118285018215159052565b50506101808381015180151584830152612537565b60006020828403121561263857600080fd5b5051919050565b634e487b7160e01b600052601160045260246000fd5b80820281158282048414176104515761045161263f565b60008261268957634e487b7160e01b600052601260045260246000fd5b500490565b818103818111156104515761045161263f565b600080600083850360808112156126b757600080fd5b84359350602085013592506040603f19820112156126d457600080fd5b506126dd612350565b604085013581526060909401356020850152509093909250565b808201808211156104515761045161263f565b60006040828403121561271c57600080fd5b612724612350565b82518152602083015160208201528091505092915050565b815181526020808301519082015260408101610451565b60006020828403121561276557600080fd5b815180151581146122b457600080fd5b60006020828403121561278757600080fd5b81516122b481612282565b634e487b7160e01b600052603260045260246000fd5b634e487b7160e01b600052602160045260246000fdfea26469706673582212206af5e1dcd0d349e7d68c7a2cd292b8201a3ae372e476f8904464a5a35d4367fd64736f6c63430008190033","linkReferences":{"src/lib/ECIES.sol":{"ECIES":[{"start":22384,"length":20},{"start":26648,"length":20},{"start":27809,"length":20},{"start":28977,"length":20}]}}},"methodIdentifiers":{"createFixedPriceSale((uint256,uint256,uint256,uint256,uint256,uint256,uint256,uint256,uint256,uint256,uint256),(address,address,address,address,address,address))":"28376939","createPreLiquidSale((uint256,uint256,uint256,uint256,uint256,uint256,bytes32,address,address,address,address))":"85416bac","createSealedBidAuction((uint256,uint256,uint256,uint256,uint256,uint256,uint256,uint256,(uint256,uint256)),(address,address,address,address,address,address))":"c15a8320","fixedPriceSaleTemplate()":"8be135a7","owner()":"8da5cb5b","preLiquidSaleTemplate()":"92be66a4","renounceOwnership()":"715018a6","sealedBidAuctionTemplate()":"18a1fa18","transferOwnership(address)":"f2fde38b"},"id":59}