{"abi":[{"type":"receive","stateMutability":"payable"},{"type":"function","name":"duration","inputs":[],"outputs":[{"name":"","type":"uint256","internalType":"uint256"}],"stateMutability":"view"},{"type":"function","name":"end","inputs":[],"outputs":[{"name":"","type":"uint256","internalType":"uint256"}],"stateMutability":"view"},{"type":"function","name":"initialize","inputs":[{"name":"beneficiary","type":"address","internalType":"address"},{"name":"startTimestamp","type":"uint64","internalType":"uint64"},{"name":"durationSeconds","type":"uint64","internalType":"uint64"}],"outputs":[],"stateMutability":"nonpayable"},{"type":"function","name":"owner","inputs":[],"outputs":[{"name":"","type":"address","internalType":"address"}],"stateMutability":"view"},{"type":"function","name":"releasable","inputs":[{"name":"token","type":"address","internalType":"address"}],"outputs":[{"name":"","type":"uint256","internalType":"uint256"}],"stateMutability":"view"},{"type":"function","name":"releasable","inputs":[],"outputs":[{"name":"","type":"uint256","internalType":"uint256"}],"stateMutability":"view"},{"type":"function","name":"release","inputs":[{"name":"token","type":"address","internalType":"address"}],"outputs":[],"stateMutability":"nonpayable"},{"type":"function","name":"release","inputs":[],"outputs":[],"stateMutability":"nonpayable"},{"type":"function","name":"released","inputs":[],"outputs":[{"name":"","type":"uint256","internalType":"uint256"}],"stateMutability":"view"},{"type":"function","name":"released","inputs":[{"name":"token","type":"address","internalType":"address"}],"outputs":[{"name":"","type":"uint256","internalType":"uint256"}],"stateMutability":"view"},{"type":"function","name":"renounceOwnership","inputs":[],"outputs":[],"stateMutability":"nonpayable"},{"type":"function","name":"start","inputs":[],"outputs":[{"name":"","type":"uint256","internalType":"uint256"}],"stateMutability":"view"},{"type":"function","name":"transferOwnership","inputs":[{"name":"newOwner","type":"address","internalType":"address"}],"outputs":[],"stateMutability":"nonpayable"},{"type":"function","name":"vestedAmount","inputs":[{"name":"timestamp","type":"uint64","internalType":"uint64"}],"outputs":[{"name":"","type":"uint256","internalType":"uint256"}],"stateMutability":"view"},{"type":"function","name":"vestedAmount","inputs":[{"name":"token","type":"address","internalType":"address"},{"name":"timestamp","type":"uint64","internalType":"uint64"}],"outputs":[{"name":"","type":"uint256","internalType":"uint256"}],"stateMutability":"view"},{"type":"event","name":"ERC20Released","inputs":[{"name":"token","type":"address","indexed":true,"internalType":"address"},{"name":"amount","type":"uint256","indexed":false,"internalType":"uint256"}],"anonymous":false},{"type":"event","name":"EtherReleased","inputs":[{"name":"amount","type":"uint256","indexed":false,"internalType":"uint256"}],"anonymous":false},{"type":"event","name":"Initialized","inputs":[{"name":"version","type":"uint64","indexed":false,"internalType":"uint64"}],"anonymous":false},{"type":"event","name":"OwnershipTransferred","inputs":[{"name":"previousOwner","type":"address","indexed":true,"internalType":"address"},{"name":"newOwner","type":"address","indexed":true,"internalType":"address"}],"anonymous":false},{"type":"error","name":"FailedCall","inputs":[]},{"type":"error","name":"InsufficientBalance","inputs":[{"name":"balance","type":"uint256","internalType":"uint256"},{"name":"needed","type":"uint256","internalType":"uint256"}]},{"type":"error","name":"InvalidInitialization","inputs":[]},{"type":"error","name":"NotInitializing","inputs":[]},{"type":"error","name":"OwnableInvalidOwner","inputs":[{"name":"owner","type":"address","internalType":"address"}]},{"type":"error","name":"OwnableUnauthorizedAccount","inputs":[{"name":"account","type":"address","internalType":"address"}]},{"type":"error","name":"SafeERC20FailedOperation","inputs":[{"name":"token","type":"address","internalType":"address"}]}],"bytecode":{"object":"0x6080604052348015600f57600080fd5b50610c508061001f6000396000f3fe6080604052600436106100ec5760003560e01c8063961325211161008a578063be9a655511610059578063be9a65551461025b578063efbe1c1c14610270578063f2fde38b14610285578063fbccedae146102a557600080fd5b806396132521146101d95780639852595c146101fb578063989a83661461021b578063a3f8eace1461023b57600080fd5b8063715018a6116100c6578063715018a614610162578063810ec23b1461017757806386d1a69f146101975780638da5cb5b146101ac57600080fd5b80630a17b06b146100f85780630fb5a6b41461012b578063191655871461014057600080fd5b366100f357005b600080fd5b34801561010457600080fd5b50610118610113366004610aa9565b6102ba565b6040519081526020015b60405180910390f35b34801561013757600080fd5b506101186102eb565b34801561014c57600080fd5b5061016061015b366004610adb565b610321565b005b34801561016e57600080fd5b506101606103c4565b34801561018357600080fd5b50610118610192366004610af6565b6103d8565b3480156101a357600080fd5b5061016061045f565b3480156101b857600080fd5b506101c16104db565b6040516001600160a01b039091168152602001610122565b3480156101e557600080fd5b50600080516020610bfb83398151915254610118565b34801561020757600080fd5b50610118610216366004610adb565b610509565b34801561022757600080fd5b50610160610236366004610b29565b610543565b34801561024757600080fd5b50610118610256366004610adb565b610657565b34801561026757600080fd5b50610118610676565b34801561027c57600080fd5b506101186106a5565b34801561029157600080fd5b506101606102a0366004610adb565b6106c6565b3480156102b157600080fd5b50610118610709565b60006102e56102d5600080516020610bfb8339815191525490565b6102df9047610b82565b83610734565b92915050565b7fa1eac494560f7591e4da38ed031587f09556afdfc4399dd2e205b935fdfa390254600160401b900467ffffffffffffffff1690565b600080516020610bfb833981519152600061033b83610657565b6001600160a01b038416600090815260018401602052604081208054929350839290919061036a908490610b82565b90915550506040518181526001600160a01b038416907fc0e523490dd523c33b1878c9eb14ff46991e3f5b2cd33710918618f2a39cba1b9060200160405180910390a26103bf836103b96104db565b836107b5565b505050565b6103cc610807565b6103d66000610839565b565b60006104586103e684610509565b6040516370a0823160e01b81523060048201526001600160a01b038616906370a0823190602401602060405180830381865afa15801561042a573d6000803e3d6000fd5b505050506040513d601f19601f8201168201806040525081019061044e9190610b95565b6102df9190610b82565b9392505050565b600080516020610bfb8339815191526000610478610709565b90508082600001600082825461048e9190610b82565b90915550506040518181527fda9d4e5f101b8b9b1c5b76d0c5a9f7923571acfc02376aa076b75a8c080c956b9060200160405180910390a16104d76104d16104db565b826108aa565b5050565b7f9016d09d72d40fdae2fd8ceac6b6234c7706214fd39c1cd1e609a0528c199300546001600160a01b031690565b6001600160a01b031660009081527fa1eac494560f7591e4da38ed031587f09556afdfc4399dd2e205b935fdfa3901602052604090205490565b7ff0c57e16840df040f15088dc2f81fe391c3923bec73e23a9662efc9c229c6a008054600160401b810460ff16159067ffffffffffffffff166000811580156105895750825b905060008267ffffffffffffffff1660011480156105a65750303b155b9050811580156105b4575080155b156105d25760405163f92ee8a960e01b815260040160405180910390fd5b845467ffffffffffffffff1916600117855583156105fc57845460ff60401b1916600160401b1785555b610607888888610948565b831561064d57845460ff60401b19168555604051600181527fc7f505b2f371ae2175ee4913f4499e1f2633a7b5936321eed1cdaeb6115181d29060200160405180910390a15b5050505050505050565b600061066282610509565b61066c83426103d8565b6102e59190610bae565b7fa1eac494560f7591e4da38ed031587f09556afdfc4399dd2e205b935fdfa39025467ffffffffffffffff1690565b60006106af6102eb565b6106b7610676565b6106c19190610b82565b905090565b6106ce610807565b6001600160a01b0381166106fd57604051631e4fbdf760e01b8152600060048201526024015b60405180910390fd5b61070681610839565b50565b6000610721600080516020610bfb8339815191525490565b61072a426102ba565b6106c19190610bae565b600061073e610676565b8267ffffffffffffffff161015610757575060006102e5565b61075f6106a5565b8267ffffffffffffffff16106107765750816102e5565b61077e6102eb565b610786610676565b61079a9067ffffffffffffffff8516610bae565b6107a49085610bc1565b6107ae9190610bd8565b90506102e5565b604080516001600160a01b038416602482015260448082018490528251808303909101815260649091019091526020810180516001600160e01b031663a9059cbb60e01b1790526103bf908490610964565b336108106104db565b6001600160a01b0316146103d65760405163118cdaa760e01b81523360048201526024016106f4565b7f9016d09d72d40fdae2fd8ceac6b6234c7706214fd39c1cd1e609a0528c19930080546001600160a01b031981166001600160a01b03848116918217845560405192169182907f8be0079c531659141344cd1fd0a4f28419497f9722a3daafe3b4186f6b6457e090600090a3505050565b804710156108d45760405163cf47918160e01b8152476004820152602481018290526044016106f4565b6000826001600160a01b03168260405160006040518083038185875af1925050503d8060008114610921576040519150601f19603f3d011682016040523d82523d6000602084013e610926565b606091505b50509050806103bf5760405163d6bda27560e01b815260040160405180910390fd5b6109506109db565b61095983610a24565b6103bf838383610a2c565b600080602060008451602086016000885af180610987576040513d6000823e3d81fd5b50506000513d9150811561099f5780600114156109ac565b6001600160a01b0384163b155b156109d557604051635274afe760e01b81526001600160a01b03851660048201526024016106f4565b50505050565b7ff0c57e16840df040f15088dc2f81fe391c3923bec73e23a9662efc9c229c6a0054600160401b900460ff166103d657604051631afcd79f60e31b815260040160405180910390fd5b6106ce6109db565b610a346109db565b7fa1eac494560f7591e4da38ed031587f09556afdfc4399dd2e205b935fdfa3902805467ffffffffffffffff928316600160401b026fffffffffffffffffffffffffffffffff19909116939092169290921717905550565b803567ffffffffffffffff81168114610aa457600080fd5b919050565b600060208284031215610abb57600080fd5b61045882610a8c565b80356001600160a01b0381168114610aa457600080fd5b600060208284031215610aed57600080fd5b61045882610ac4565b60008060408385031215610b0957600080fd5b610b1283610ac4565b9150610b2060208401610a8c565b90509250929050565b600080600060608486031215610b3e57600080fd5b610b4784610ac4565b9250610b5560208501610a8c565b9150610b6360408501610a8c565b90509250925092565b634e487b7160e01b600052601160045260246000fd5b808201808211156102e5576102e5610b6c565b600060208284031215610ba757600080fd5b5051919050565b818103818111156102e5576102e5610b6c565b80820281158282048414176102e5576102e5610b6c565b600082610bf557634e487b7160e01b600052601260045260246000fd5b50049056fea1eac494560f7591e4da38ed031587f09556afdfc4399dd2e205b935fdfa3900a2646970667358221220042394524ff49279708864ed9f6d47e5a43223f82a68345d2ae13cc95feb041964736f6c63430008190033","linkReferences":{}},"methodIdentifiers":{"duration()":"0fb5a6b4","end()":"efbe1c1c","initialize(address,uint64,uint64)":"989a8366","owner()":"8da5cb5b","releasable()":"fbccedae","releasable(address)":"a3f8eace","release()":"86d1a69f","release(address)":"19165587","released()":"96132521","released(address)":"9852595c","renounceOwnership()":"715018a6","start()":"be9a6555","transferOwnership(address)":"f2fde38b","vestedAmount(address,uint64)":"810ec23b","vestedAmount(uint64)":"0a17b06b"},"id":24}