{"abi":[{"type":"constructor","inputs":[{"name":"defaultAdmin","type":"address","internalType":"address"},{"name":"defaultBroadcaster","type":"address","internalType":"address"}],"stateMutability":"nonpayable"},{"type":"function","name":"BROADCASTER_ROLE","inputs":[],"outputs":[{"name":"","type":"bytes32","internalType":"bytes32"}],"stateMutability":"view"},{"type":"function","name":"DEFAULT_ADMIN_ROLE","inputs":[],"outputs":[{"name":"","type":"bytes32","internalType":"bytes32"}],"stateMutability":"view"},{"type":"function","name":"functionCall","inputs":[{"name":"target","type":"address","internalType":"address"},{"name":"data","type":"bytes","internalType":"bytes"}],"outputs":[],"stateMutability":"nonpayable"},{"type":"function","name":"getRoleAdmin","inputs":[{"name":"role","type":"bytes32","internalType":"bytes32"}],"outputs":[{"name":"","type":"bytes32","internalType":"bytes32"}],"stateMutability":"view"},{"type":"function","name":"grantRole","inputs":[{"name":"role","type":"bytes32","internalType":"bytes32"},{"name":"account","type":"address","internalType":"address"}],"outputs":[],"stateMutability":"nonpayable"},{"type":"function","name":"hasRole","inputs":[{"name":"role","type":"bytes32","internalType":"bytes32"},{"name":"account","type":"address","internalType":"address"}],"outputs":[{"name":"","type":"bool","internalType":"bool"}],"stateMutability":"view"},{"type":"function","name":"renounceRole","inputs":[{"name":"role","type":"bytes32","internalType":"bytes32"},{"name":"callerConfirmation","type":"address","internalType":"address"}],"outputs":[],"stateMutability":"nonpayable"},{"type":"function","name":"revokeRole","inputs":[{"name":"role","type":"bytes32","internalType":"bytes32"},{"name":"account","type":"address","internalType":"address"}],"outputs":[],"stateMutability":"nonpayable"},{"type":"function","name":"supportsInterface","inputs":[{"name":"interfaceId","type":"bytes4","internalType":"bytes4"}],"outputs":[{"name":"","type":"bool","internalType":"bool"}],"stateMutability":"view"},{"type":"event","name":"RoleAdminChanged","inputs":[{"name":"role","type":"bytes32","indexed":true,"internalType":"bytes32"},{"name":"previousAdminRole","type":"bytes32","indexed":true,"internalType":"bytes32"},{"name":"newAdminRole","type":"bytes32","indexed":true,"internalType":"bytes32"}],"anonymous":false},{"type":"event","name":"RoleGranted","inputs":[{"name":"role","type":"bytes32","indexed":true,"internalType":"bytes32"},{"name":"account","type":"address","indexed":true,"internalType":"address"},{"name":"sender","type":"address","indexed":true,"internalType":"address"}],"anonymous":false},{"type":"event","name":"RoleRevoked","inputs":[{"name":"role","type":"bytes32","indexed":true,"internalType":"bytes32"},{"name":"account","type":"address","indexed":true,"internalType":"address"},{"name":"sender","type":"address","indexed":true,"internalType":"address"}],"anonymous":false},{"type":"error","name":"AccessControlBadConfirmation","inputs":[]},{"type":"error","name":"AccessControlUnauthorizedAccount","inputs":[{"name":"account","type":"address","internalType":"address"},{"name":"neededRole","type":"bytes32","internalType":"bytes32"}]},{"type":"error","name":"AddressEmptyCode","inputs":[{"name":"target","type":"address","internalType":"address"}]},{"type":"error","name":"FailedCall","inputs":[]},{"type":"error","name":"InsufficientBalance","inputs":[{"name":"balance","type":"uint256","internalType":"uint256"},{"name":"needed","type":"uint256","internalType":"uint256"}]}],"bytecode":{"object":"0x608060405234801561001057600080fd5b5060405161086f38038061086f83398101604081905261002f91610135565b61003a60008361006d565b506100657f4a20cc833c13f0b7e71c8c74810a8f97737829513da1fbb806c0d9d370cf497e8261006d565b505050610168565b6000828152602081815260408083206001600160a01b038516845290915281205460ff1661010f576000838152602081815260408083206001600160a01b03861684529091529020805460ff191660011790556100c73390565b6001600160a01b0316826001600160a01b0316847f2f8788117e7eff1d82e926ec794901d17c78024a50270940304540a733656f0d60405160405180910390a4506001610113565b5060005b92915050565b80516001600160a01b038116811461013057600080fd5b919050565b6000806040838503121561014857600080fd5b61015183610119565b915061015f60208401610119565b90509250929050565b6106f8806101776000396000f3fe608060405234801561001057600080fd5b50600436106100935760003560e01c80635996522611610066578063599652261461011957806391d1485414610140578063a0b5ffb014610153578063a217fddf14610166578063d547741f1461016e57600080fd5b806301ffc9a714610098578063248a9ca3146100c05780632f2ff15d146100f157806336568abe14610106575b600080fd5b6100ab6100a6366004610530565b610181565b60405190151581526020015b60405180910390f35b6100e36100ce36600461055a565b60009081526020819052604090206001015490565b6040519081526020016100b7565b6101046100ff36600461058f565b6101b8565b005b61010461011436600461058f565b6101e3565b6100e37f4a20cc833c13f0b7e71c8c74810a8f97737829513da1fbb806c0d9d370cf497e81565b6100ab61014e36600461058f565b61021b565b6101046101613660046105d1565b610244565b6100e3600081565b61010461017c36600461058f565b610281565b60006001600160e01b03198216637965db0b60e01b14806101b257506301ffc9a760e01b6001600160e01b03198316145b92915050565b6000828152602081905260409020600101546101d3816102a6565b6101dd83836102b3565b50505050565b6001600160a01b038116331461020c5760405163334bd91960e11b815260040160405180910390fd5b6102168282610345565b505050565b6000918252602082815260408084206001600160a01b0393909316845291905290205460ff1690565b7f4a20cc833c13f0b7e71c8c74810a8f97737829513da1fbb806c0d9d370cf497e61026e816102a6565b6101dd6001600160a01b038416836103b0565b60008281526020819052604090206001015461029c816102a6565b6101dd8383610345565b6102b081336103c5565b50565b60006102bf838361021b565b61033d576000838152602081815260408083206001600160a01b03861684529091529020805460ff191660011790556102f53390565b6001600160a01b0316826001600160a01b0316847f2f8788117e7eff1d82e926ec794901d17c78024a50270940304540a733656f0d60405160405180910390a45060016101b2565b5060006101b2565b6000610351838361021b565b1561033d576000838152602081815260408083206001600160a01b0386168085529252808320805460ff1916905551339286917ff6391f5c32d9c69d2a47ea670b442974b53935d1edc7fd64eb21e047a839171b9190a45060016101b2565b60606103be83836000610407565b9392505050565b6103cf828261021b565b6104035760405163e2517d3f60e01b81526001600160a01b0382166004820152602481018390526044015b60405180910390fd5b5050565b6060814710156104335760405163cf47918160e01b8152476004820152602481018390526044016103fa565b600080856001600160a01b0316848660405161044f9190610693565b60006040518083038185875af1925050503d806000811461048c576040519150601f19603f3d011682016040523d82523d6000602084013e610491565b606091505b50915091506104a18683836104ab565b9695505050505050565b6060826104c0576104bb82610507565b6103be565b81511580156104d757506001600160a01b0384163b155b1561050057604051639996b31560e01b81526001600160a01b03851660048201526024016103fa565b50806103be565b8051156105175780518082602001fd5b60405163d6bda27560e01b815260040160405180910390fd5b60006020828403121561054257600080fd5b81356001600160e01b0319811681146103be57600080fd5b60006020828403121561056c57600080fd5b5035919050565b80356001600160a01b038116811461058a57600080fd5b919050565b600080604083850312156105a257600080fd5b823591506105b260208401610573565b90509250929050565b634e487b7160e01b600052604160045260246000fd5b600080604083850312156105e457600080fd5b6105ed83610573565b9150602083013567ffffffffffffffff8082111561060a57600080fd5b818501915085601f83011261061e57600080fd5b813581811115610630576106306105bb565b604051601f8201601f19908116603f01168101908382118183101715610658576106586105bb565b8160405282815288602084870101111561067157600080fd5b8260208601602083013760006020848301015280955050505050509250929050565b6000825160005b818110156106b4576020818601810151858301520161069a565b50600092019182525091905056fea2646970667358221220c6231ce08aab397db6d922f12d84a9910c4ec46c1d8241c38d7483efc2ce53af64736f6c63430008190033","linkReferences":{}},"methodIdentifiers":{"BROADCASTER_ROLE()":"59965226","DEFAULT_ADMIN_ROLE()":"a217fddf","functionCall(address,bytes)":"a0b5ffb0","getRoleAdmin(bytes32)":"248a9ca3","grantRole(bytes32,address)":"2f2ff15d","hasRole(bytes32,address)":"91d14854","renounceRole(bytes32,address)":"36568abe","revokeRole(bytes32,address)":"d547741f","supportsInterface(bytes4)":"01ffc9a7"},"id":53}