{"abi":[{"type":"constructor","inputs":[{"name":"newOwner","type":"address","internalType":"address"}],"stateMutability":"nonpayable"},{"type":"function","name":"getLegionAddress","inputs":[{"name":"id","type":"bytes32","internalType":"bytes32"}],"outputs":[{"name":"","type":"address","internalType":"address"}],"stateMutability":"view"},{"type":"function","name":"owner","inputs":[],"outputs":[{"name":"","type":"address","internalType":"address"}],"stateMutability":"view"},{"type":"function","name":"renounceOwnership","inputs":[],"outputs":[],"stateMutability":"nonpayable"},{"type":"function","name":"setLegionAddress","inputs":[{"name":"id","type":"bytes32","internalType":"bytes32"},{"name":"updatedAddress","type":"address","internalType":"address"}],"outputs":[],"stateMutability":"nonpayable"},{"type":"function","name":"transferOwnership","inputs":[{"name":"newOwner","type":"address","internalType":"address"}],"outputs":[],"stateMutability":"nonpayable"},{"type":"event","name":"LegionAddressSet","inputs":[{"name":"id","type":"bytes32","indexed":false,"internalType":"bytes32"},{"name":"previousAddress","type":"address","indexed":false,"internalType":"address"},{"name":"updatedAddress","type":"address","indexed":false,"internalType":"address"}],"anonymous":false},{"type":"event","name":"OwnershipTransferred","inputs":[{"name":"previousOwner","type":"address","indexed":true,"internalType":"address"},{"name":"newOwner","type":"address","indexed":true,"internalType":"address"}],"anonymous":false},{"type":"error","name":"OwnableInvalidOwner","inputs":[{"name":"owner","type":"address","internalType":"address"}]},{"type":"error","name":"OwnableUnauthorizedAccount","inputs":[{"name":"account","type":"address","internalType":"address"}]}],"bytecode":{"object":"0x608060405234801561001057600080fd5b506040516103e33803806103e383398101604081905261002f916100be565b806001600160a01b03811661005e57604051631e4fbdf760e01b81526000600482015260240160405180910390fd5b6100678161006e565b50506100ee565b600080546001600160a01b038381166001600160a01b0319831681178455604051919092169283917f8be0079c531659141344cd1fd0a4f28419497f9722a3daafe3b4186f6b6457e09190a35050565b6000602082840312156100d057600080fd5b81516001600160a01b03811681146100e757600080fd5b9392505050565b6102e6806100fd6000396000f3fe608060405234801561001057600080fd5b50600436106100575760003560e01c8063715018a61461005c5780638da5cb5b14610066578063970559cf1461008f578063c7340e70146100b8578063f2fde38b146100cb575b600080fd5b6100646100de565b005b6000546001600160a01b03165b6040516001600160a01b03909116815260200160405180910390f35b61007361009d36600461022d565b6000908152600160205260409020546001600160a01b031690565b6100646100c6366004610262565b6100f2565b6100646100d936600461028e565b61016d565b6100e66101b0565b6100f060006101dd565b565b6100fa6101b0565b60008281526001602090815260409182902080546001600160a01b038581166001600160a01b0319831681179093558451878152911692810183905292830152907fd0cec17a2a280f5b3c174b76f71774b8f70124f57eaada9eacba035df0f174d79060600160405180910390a1505050565b6101756101b0565b6001600160a01b0381166101a457604051631e4fbdf760e01b8152600060048201526024015b60405180910390fd5b6101ad816101dd565b50565b6000546001600160a01b031633146100f05760405163118cdaa760e01b815233600482015260240161019b565b600080546001600160a01b038381166001600160a01b0319831681178455604051919092169283917f8be0079c531659141344cd1fd0a4f28419497f9722a3daafe3b4186f6b6457e09190a35050565b60006020828403121561023f57600080fd5b5035919050565b80356001600160a01b038116811461025d57600080fd5b919050565b6000806040838503121561027557600080fd5b8235915061028560208401610246565b90509250929050565b6000602082840312156102a057600080fd5b6102a982610246565b939250505056fea2646970667358221220641d006c7f050ce9b2d885def6835776fef938fdbb20a2ac82300e8170b3afe064736f6c63430008190033","linkReferences":{}},"methodIdentifiers":{"getLegionAddress(bytes32)":"970559cf","owner()":"8da5cb5b","renounceOwnership()":"715018a6","setLegionAddress(bytes32,address)":"c7340e70","transferOwnership(address)":"f2fde38b"},"id":54}